{
  "contractName": "DeQuora",
  "abi": [
    {
      "inputs": [],
      "stateMutability": "nonpayable",
      "type": "constructor"
    },
    {
      "anonymous": false,
      "inputs": [
        {
          "indexed": true,
          "internalType": "address",
          "name": "_owner",
          "type": "address"
        },
        {
          "indexed": true,
          "internalType": "address",
          "name": "_approved",
          "type": "address"
        },
        {
          "indexed": false,
          "internalType": "uint256",
          "name": "_tokenId",
          "type": "uint256"
        }
      ],
      "name": "Approval",
      "type": "event"
    },
    {
      "anonymous": false,
      "inputs": [
        {
          "indexed": true,
          "internalType": "address",
          "name": "_from",
          "type": "address"
        },
        {
          "indexed": true,
          "internalType": "address",
          "name": "_to",
          "type": "address"
        },
        {
          "indexed": false,
          "internalType": "uint256",
          "name": "_tokenId",
          "type": "uint256"
        }
      ],
      "name": "Transfer",
      "type": "event"
    },
    {
      "anonymous": false,
      "inputs": [
        {
          "components": [
            {
              "internalType": "uint256",
              "name": "id",
              "type": "uint256"
            },
            {
              "internalType": "uint256",
              "name": "question_id",
              "type": "uint256"
            },
            {
              "internalType": "uint256",
              "name": "NFT_id",
              "type": "uint256"
            },
            {
              "internalType": "string",
              "name": "answer",
              "type": "string"
            },
            {
              "internalType": "string",
              "name": "author_name",
              "type": "string"
            },
            {
              "internalType": "address",
              "name": "author_address",
              "type": "address"
            },
            {
              "internalType": "address",
              "name": "owner_address",
              "type": "address"
            },
            {
              "internalType": "uint256",
              "name": "likes",
              "type": "uint256"
            },
            {
              "internalType": "address[]",
              "name": "liked_by",
              "type": "address[]"
            },
            {
              "internalType": "uint256",
              "name": "created_on",
              "type": "uint256"
            },
            {
              "internalType": "uint256",
              "name": "bonus",
              "type": "uint256"
            },
            {
              "internalType": "address[]",
              "name": "support_by",
              "type": "address[]"
            },
            {
              "internalType": "uint256",
              "name": "expire",
              "type": "uint256"
            }
          ],
          "indexed": false,
          "internalType": "struct DeQuora.Answer",
          "name": "",
          "type": "tuple"
        }
      ],
      "name": "answer_liked",
      "type": "event"
    },
    {
      "anonymous": false,
      "inputs": [
        {
          "components": [
            {
              "internalType": "uint256",
              "name": "id",
              "type": "uint256"
            },
            {
              "internalType": "uint256",
              "name": "question_id",
              "type": "uint256"
            },
            {
              "internalType": "uint256",
              "name": "NFT_id",
              "type": "uint256"
            },
            {
              "internalType": "string",
              "name": "answer",
              "type": "string"
            },
            {
              "internalType": "string",
              "name": "author_name",
              "type": "string"
            },
            {
              "internalType": "address",
              "name": "author_address",
              "type": "address"
            },
            {
              "internalType": "address",
              "name": "owner_address",
              "type": "address"
            },
            {
              "internalType": "uint256",
              "name": "likes",
              "type": "uint256"
            },
            {
              "internalType": "address[]",
              "name": "liked_by",
              "type": "address[]"
            },
            {
              "internalType": "uint256",
              "name": "created_on",
              "type": "uint256"
            },
            {
              "internalType": "uint256",
              "name": "bonus",
              "type": "uint256"
            },
            {
              "internalType": "address[]",
              "name": "support_by",
              "type": "address[]"
            },
            {
              "internalType": "uint256",
              "name": "expire",
              "type": "uint256"
            }
          ],
          "indexed": false,
          "internalType": "struct DeQuora.Answer",
          "name": "",
          "type": "tuple"
        }
      ],
      "name": "answer_tipped",
      "type": "event"
    },
    {
      "anonymous": false,
      "inputs": [
        {
          "indexed": false,
          "internalType": "string",
          "name": "",
          "type": "string"
        }
      ],
      "name": "main_deployed",
      "type": "event"
    },
    {
      "anonymous": false,
      "inputs": [
        {
          "components": [
            {
              "internalType": "uint256",
              "name": "id",
              "type": "uint256"
            },
            {
              "internalType": "address",
              "name": "account",
              "type": "address"
            },
            {
              "internalType": "string",
              "name": "name",
              "type": "string"
            },
            {
              "internalType": "uint256[]",
              "name": "questions",
              "type": "uint256[]"
            },
            {
              "internalType": "uint256[]",
              "name": "answered_questions",
              "type": "uint256[]"
            },
            {
              "internalType": "uint256[]",
              "name": "answers",
              "type": "uint256[]"
            },
            {
              "internalType": "uint256",
              "name": "joined_on",
              "type": "uint256"
            }
          ],
          "indexed": false,
          "internalType": "struct DeQuora.User",
          "name": "",
          "type": "tuple"
        }
      ],
      "name": "new_user_added",
      "type": "event"
    },
    {
      "anonymous": false,
      "inputs": [
        {
          "components": [
            {
              "internalType": "uint256",
              "name": "id",
              "type": "uint256"
            },
            {
              "internalType": "string",
              "name": "question",
              "type": "string"
            },
            {
              "internalType": "string",
              "name": "author_name",
              "type": "string"
            },
            {
              "internalType": "address",
              "name": "author_address",
              "type": "address"
            },
            {
              "internalType": "address",
              "name": "owner_address",
              "type": "address"
            },
            {
              "internalType": "uint256",
              "name": "total_answers",
              "type": "uint256"
            },
            {
              "internalType": "uint256",
              "name": "likes",
              "type": "uint256"
            },
            {
              "internalType": "address[]",
              "name": "liked_by",
              "type": "address[]"
            },
            {
              "internalType": "uint256",
              "name": "created_on",
              "type": "uint256"
            },
            {
              "internalType": "uint256",
              "name": "bonus_pool",
              "type": "uint256"
            },
            {
              "internalType": "address[]",
              "name": "support_by",
              "type": "address[]"
            },
            {
              "internalType": "uint256",
              "name": "expire",
              "type": "uint256"
            }
          ],
          "indexed": false,
          "internalType": "struct DeQuora.Question",
          "name": "",
          "type": "tuple"
        }
      ],
      "name": "question_added",
      "type": "event"
    },
    {
      "anonymous": false,
      "inputs": [
        {
          "components": [
            {
              "internalType": "uint256",
              "name": "id",
              "type": "uint256"
            },
            {
              "internalType": "string",
              "name": "question",
              "type": "string"
            },
            {
              "internalType": "string",
              "name": "author_name",
              "type": "string"
            },
            {
              "internalType": "address",
              "name": "author_address",
              "type": "address"
            },
            {
              "internalType": "address",
              "name": "owner_address",
              "type": "address"
            },
            {
              "internalType": "uint256",
              "name": "total_answers",
              "type": "uint256"
            },
            {
              "internalType": "uint256",
              "name": "likes",
              "type": "uint256"
            },
            {
              "internalType": "address[]",
              "name": "liked_by",
              "type": "address[]"
            },
            {
              "internalType": "uint256",
              "name": "created_on",
              "type": "uint256"
            },
            {
              "internalType": "uint256",
              "name": "bonus_pool",
              "type": "uint256"
            },
            {
              "internalType": "address[]",
              "name": "support_by",
              "type": "address[]"
            },
            {
              "internalType": "uint256",
              "name": "expire",
              "type": "uint256"
            }
          ],
          "indexed": false,
          "internalType": "struct DeQuora.Question",
          "name": "",
          "type": "tuple"
        }
      ],
      "name": "question_bonus_divided",
      "type": "event"
    },
    {
      "anonymous": false,
      "inputs": [
        {
          "components": [
            {
              "internalType": "uint256",
              "name": "id",
              "type": "uint256"
            },
            {
              "internalType": "string",
              "name": "question",
              "type": "string"
            },
            {
              "internalType": "string",
              "name": "author_name",
              "type": "string"
            },
            {
              "internalType": "address",
              "name": "author_address",
              "type": "address"
            },
            {
              "internalType": "address",
              "name": "owner_address",
              "type": "address"
            },
            {
              "internalType": "uint256",
              "name": "total_answers",
              "type": "uint256"
            },
            {
              "internalType": "uint256",
              "name": "likes",
              "type": "uint256"
            },
            {
              "internalType": "address[]",
              "name": "liked_by",
              "type": "address[]"
            },
            {
              "internalType": "uint256",
              "name": "created_on",
              "type": "uint256"
            },
            {
              "internalType": "uint256",
              "name": "bonus_pool",
              "type": "uint256"
            },
            {
              "internalType": "address[]",
              "name": "support_by",
              "type": "address[]"
            },
            {
              "internalType": "uint256",
              "name": "expire",
              "type": "uint256"
            }
          ],
          "indexed": false,
          "internalType": "struct DeQuora.Question",
          "name": "",
          "type": "tuple"
        }
      ],
      "name": "question_liked",
      "type": "event"
    },
    {
      "anonymous": false,
      "inputs": [
        {
          "components": [
            {
              "internalType": "uint256",
              "name": "id",
              "type": "uint256"
            },
            {
              "internalType": "string",
              "name": "question",
              "type": "string"
            },
            {
              "internalType": "string",
              "name": "author_name",
              "type": "string"
            },
            {
              "internalType": "address",
              "name": "author_address",
              "type": "address"
            },
            {
              "internalType": "address",
              "name": "owner_address",
              "type": "address"
            },
            {
              "internalType": "uint256",
              "name": "total_answers",
              "type": "uint256"
            },
            {
              "internalType": "uint256",
              "name": "likes",
              "type": "uint256"
            },
            {
              "internalType": "address[]",
              "name": "liked_by",
              "type": "address[]"
            },
            {
              "internalType": "uint256",
              "name": "created_on",
              "type": "uint256"
            },
            {
              "internalType": "uint256",
              "name": "bonus_pool",
              "type": "uint256"
            },
            {
              "internalType": "address[]",
              "name": "support_by",
              "type": "address[]"
            },
            {
              "internalType": "uint256",
              "name": "expire",
              "type": "uint256"
            }
          ],
          "indexed": false,
          "internalType": "struct DeQuora.Question",
          "name": "",
          "type": "tuple"
        }
      ],
      "name": "question_tipped",
      "type": "event"
    },
    {
      "inputs": [],
      "name": "NFT_id_generator",
      "outputs": [
        {
          "internalType": "uint256",
          "name": "",
          "type": "uint256"
        }
      ],
      "stateMutability": "view",
      "type": "function"
    },
    {
      "inputs": [
        {
          "internalType": "uint256",
          "name": "",
          "type": "uint256"
        },
        {
          "internalType": "uint256",
          "name": "",
          "type": "uint256"
        }
      ],
      "name": "answers",
      "outputs": [
        {
          "internalType": "uint256",
          "name": "id",
          "type": "uint256"
        },
        {
          "internalType": "uint256",
          "name": "question_id",
          "type": "uint256"
        },
        {
          "internalType": "uint256",
          "name": "NFT_id",
          "type": "uint256"
        },
        {
          "internalType": "string",
          "name": "answer",
          "type": "string"
        },
        {
          "internalType": "string",
          "name": "author_name",
          "type": "string"
        },
        {
          "internalType": "address",
          "name": "author_address",
          "type": "address"
        },
        {
          "internalType": "address",
          "name": "owner_address",
          "type": "address"
        },
        {
          "internalType": "uint256",
          "name": "likes",
          "type": "uint256"
        },
        {
          "internalType": "uint256",
          "name": "created_on",
          "type": "uint256"
        },
        {
          "internalType": "uint256",
          "name": "bonus",
          "type": "uint256"
        },
        {
          "internalType": "uint256",
          "name": "expire",
          "type": "uint256"
        }
      ],
      "stateMutability": "view",
      "type": "function"
    },
    {
      "inputs": [
        {
          "internalType": "uint256",
          "name": "",
          "type": "uint256"
        }
      ],
      "name": "questions",
      "outputs": [
        {
          "internalType": "uint256",
          "name": "id",
          "type": "uint256"
        },
        {
          "internalType": "string",
          "name": "question",
          "type": "string"
        },
        {
          "internalType": "string",
          "name": "author_name",
          "type": "string"
        },
        {
          "internalType": "address",
          "name": "author_address",
          "type": "address"
        },
        {
          "internalType": "address",
          "name": "owner_address",
          "type": "address"
        },
        {
          "internalType": "uint256",
          "name": "total_answers",
          "type": "uint256"
        },
        {
          "internalType": "uint256",
          "name": "likes",
          "type": "uint256"
        },
        {
          "internalType": "uint256",
          "name": "created_on",
          "type": "uint256"
        },
        {
          "internalType": "uint256",
          "name": "bonus_pool",
          "type": "uint256"
        },
        {
          "internalType": "uint256",
          "name": "expire",
          "type": "uint256"
        }
      ],
      "stateMutability": "view",
      "type": "function"
    },
    {
      "inputs": [],
      "name": "total_questions",
      "outputs": [
        {
          "internalType": "uint256",
          "name": "",
          "type": "uint256"
        }
      ],
      "stateMutability": "view",
      "type": "function"
    },
    {
      "inputs": [],
      "name": "total_users",
      "outputs": [
        {
          "internalType": "uint256",
          "name": "",
          "type": "uint256"
        }
      ],
      "stateMutability": "view",
      "type": "function"
    },
    {
      "inputs": [
        {
          "internalType": "address",
          "name": "",
          "type": "address"
        }
      ],
      "name": "users",
      "outputs": [
        {
          "internalType": "uint256",
          "name": "id",
          "type": "uint256"
        },
        {
          "internalType": "address",
          "name": "account",
          "type": "address"
        },
        {
          "internalType": "string",
          "name": "name",
          "type": "string"
        },
        {
          "internalType": "uint256",
          "name": "joined_on",
          "type": "uint256"
        }
      ],
      "stateMutability": "view",
      "type": "function"
    },
    {
      "inputs": [
        {
          "internalType": "address",
          "name": "_owner",
          "type": "address"
        }
      ],
      "name": "balanceOf",
      "outputs": [
        {
          "internalType": "uint256",
          "name": "_balance",
          "type": "uint256"
        }
      ],
      "stateMutability": "view",
      "type": "function"
    },
    {
      "inputs": [
        {
          "internalType": "uint256",
          "name": "_tokenId",
          "type": "uint256"
        }
      ],
      "name": "ownerOf",
      "outputs": [
        {
          "internalType": "address",
          "name": "_owner",
          "type": "address"
        }
      ],
      "stateMutability": "view",
      "type": "function"
    },
    {
      "inputs": [
        {
          "internalType": "address",
          "name": "_to",
          "type": "address"
        },
        {
          "internalType": "uint256",
          "name": "_tokenId",
          "type": "uint256"
        }
      ],
      "name": "transfer",
      "outputs": [],
      "stateMutability": "nonpayable",
      "type": "function"
    },
    {
      "inputs": [
        {
          "internalType": "address",
          "name": "_to",
          "type": "address"
        },
        {
          "internalType": "uint256",
          "name": "_tokenId",
          "type": "uint256"
        }
      ],
      "name": "approve",
      "outputs": [],
      "stateMutability": "nonpayable",
      "type": "function"
    },
    {
      "inputs": [
        {
          "internalType": "uint256",
          "name": "_tokenId",
          "type": "uint256"
        }
      ],
      "name": "takeOwnership",
      "outputs": [],
      "stateMutability": "nonpayable",
      "type": "function"
    },
    {
      "inputs": [
        {
          "internalType": "string",
          "name": "_name",
          "type": "string"
        }
      ],
      "name": "create_user",
      "outputs": [
        {
          "components": [
            {
              "internalType": "uint256",
              "name": "id",
              "type": "uint256"
            },
            {
              "internalType": "address",
              "name": "account",
              "type": "address"
            },
            {
              "internalType": "string",
              "name": "name",
              "type": "string"
            },
            {
              "internalType": "uint256[]",
              "name": "questions",
              "type": "uint256[]"
            },
            {
              "internalType": "uint256[]",
              "name": "answered_questions",
              "type": "uint256[]"
            },
            {
              "internalType": "uint256[]",
              "name": "answers",
              "type": "uint256[]"
            },
            {
              "internalType": "uint256",
              "name": "joined_on",
              "type": "uint256"
            }
          ],
          "internalType": "struct DeQuora.User",
          "name": "",
          "type": "tuple"
        }
      ],
      "stateMutability": "payable",
      "type": "function"
    },
    {
      "inputs": [
        {
          "internalType": "address",
          "name": "_user_address",
          "type": "address"
        }
      ],
      "name": "get_user_details",
      "outputs": [
        {
          "components": [
            {
              "internalType": "uint256",
              "name": "id",
              "type": "uint256"
            },
            {
              "internalType": "address",
              "name": "account",
              "type": "address"
            },
            {
              "internalType": "string",
              "name": "name",
              "type": "string"
            },
            {
              "internalType": "uint256[]",
              "name": "questions",
              "type": "uint256[]"
            },
            {
              "internalType": "uint256[]",
              "name": "answered_questions",
              "type": "uint256[]"
            },
            {
              "internalType": "uint256[]",
              "name": "answers",
              "type": "uint256[]"
            },
            {
              "internalType": "uint256",
              "name": "joined_on",
              "type": "uint256"
            }
          ],
          "internalType": "struct DeQuora.User",
          "name": "",
          "type": "tuple"
        }
      ],
      "stateMutability": "view",
      "type": "function"
    },
    {
      "inputs": [
        {
          "internalType": "string",
          "name": "_question",
          "type": "string"
        }
      ],
      "name": "add_question",
      "outputs": [
        {
          "components": [
            {
              "internalType": "uint256",
              "name": "id",
              "type": "uint256"
            },
            {
              "internalType": "string",
              "name": "question",
              "type": "string"
            },
            {
              "internalType": "string",
              "name": "author_name",
              "type": "string"
            },
            {
              "internalType": "address",
              "name": "author_address",
              "type": "address"
            },
            {
              "internalType": "address",
              "name": "owner_address",
              "type": "address"
            },
            {
              "internalType": "uint256",
              "name": "total_answers",
              "type": "uint256"
            },
            {
              "internalType": "uint256",
              "name": "likes",
              "type": "uint256"
            },
            {
              "internalType": "address[]",
              "name": "liked_by",
              "type": "address[]"
            },
            {
              "internalType": "uint256",
              "name": "created_on",
              "type": "uint256"
            },
            {
              "internalType": "uint256",
              "name": "bonus_pool",
              "type": "uint256"
            },
            {
              "internalType": "address[]",
              "name": "support_by",
              "type": "address[]"
            },
            {
              "internalType": "uint256",
              "name": "expire",
              "type": "uint256"
            }
          ],
          "internalType": "struct DeQuora.Question",
          "name": "",
          "type": "tuple"
        }
      ],
      "stateMutability": "payable",
      "type": "function"
    },
    {
      "inputs": [],
      "name": "get_all_questions",
      "outputs": [
        {
          "components": [
            {
              "internalType": "uint256",
              "name": "id",
              "type": "uint256"
            },
            {
              "internalType": "string",
              "name": "question",
              "type": "string"
            },
            {
              "internalType": "string",
              "name": "author_name",
              "type": "string"
            },
            {
              "internalType": "address",
              "name": "author_address",
              "type": "address"
            },
            {
              "internalType": "address",
              "name": "owner_address",
              "type": "address"
            },
            {
              "internalType": "uint256",
              "name": "total_answers",
              "type": "uint256"
            },
            {
              "internalType": "uint256",
              "name": "likes",
              "type": "uint256"
            },
            {
              "internalType": "address[]",
              "name": "liked_by",
              "type": "address[]"
            },
            {
              "internalType": "uint256",
              "name": "created_on",
              "type": "uint256"
            },
            {
              "internalType": "uint256",
              "name": "bonus_pool",
              "type": "uint256"
            },
            {
              "internalType": "address[]",
              "name": "support_by",
              "type": "address[]"
            },
            {
              "internalType": "uint256",
              "name": "expire",
              "type": "uint256"
            }
          ],
          "internalType": "struct DeQuora.Question[]",
          "name": "",
          "type": "tuple[]"
        }
      ],
      "stateMutability": "view",
      "type": "function"
    },
    {
      "inputs": [
        {
          "internalType": "uint256",
          "name": "_question_id",
          "type": "uint256"
        }
      ],
      "name": "get_question",
      "outputs": [
        {
          "components": [
            {
              "internalType": "uint256",
              "name": "id",
              "type": "uint256"
            },
            {
              "internalType": "string",
              "name": "question",
              "type": "string"
            },
            {
              "internalType": "string",
              "name": "author_name",
              "type": "string"
            },
            {
              "internalType": "address",
              "name": "author_address",
              "type": "address"
            },
            {
              "internalType": "address",
              "name": "owner_address",
              "type": "address"
            },
            {
              "internalType": "uint256",
              "name": "total_answers",
              "type": "uint256"
            },
            {
              "internalType": "uint256",
              "name": "likes",
              "type": "uint256"
            },
            {
              "internalType": "address[]",
              "name": "liked_by",
              "type": "address[]"
            },
            {
              "internalType": "uint256",
              "name": "created_on",
              "type": "uint256"
            },
            {
              "internalType": "uint256",
              "name": "bonus_pool",
              "type": "uint256"
            },
            {
              "internalType": "address[]",
              "name": "support_by",
              "type": "address[]"
            },
            {
              "internalType": "uint256",
              "name": "expire",
              "type": "uint256"
            }
          ],
          "internalType": "struct DeQuora.Question",
          "name": "",
          "type": "tuple"
        },
        {
          "components": [
            {
              "internalType": "uint256",
              "name": "id",
              "type": "uint256"
            },
            {
              "internalType": "uint256",
              "name": "question_id",
              "type": "uint256"
            },
            {
              "internalType": "uint256",
              "name": "NFT_id",
              "type": "uint256"
            },
            {
              "internalType": "string",
              "name": "answer",
              "type": "string"
            },
            {
              "internalType": "string",
              "name": "author_name",
              "type": "string"
            },
            {
              "internalType": "address",
              "name": "author_address",
              "type": "address"
            },
            {
              "internalType": "address",
              "name": "owner_address",
              "type": "address"
            },
            {
              "internalType": "uint256",
              "name": "likes",
              "type": "uint256"
            },
            {
              "internalType": "address[]",
              "name": "liked_by",
              "type": "address[]"
            },
            {
              "internalType": "uint256",
              "name": "created_on",
              "type": "uint256"
            },
            {
              "internalType": "uint256",
              "name": "bonus",
              "type": "uint256"
            },
            {
              "internalType": "address[]",
              "name": "support_by",
              "type": "address[]"
            },
            {
              "internalType": "uint256",
              "name": "expire",
              "type": "uint256"
            }
          ],
          "internalType": "struct DeQuora.Answer[]",
          "name": "",
          "type": "tuple[]"
        },
        {
          "components": [
            {
              "internalType": "uint256",
              "name": "id",
              "type": "uint256"
            },
            {
              "internalType": "address",
              "name": "account",
              "type": "address"
            },
            {
              "internalType": "string",
              "name": "name",
              "type": "string"
            },
            {
              "internalType": "uint256[]",
              "name": "questions",
              "type": "uint256[]"
            },
            {
              "internalType": "uint256[]",
              "name": "answered_questions",
              "type": "uint256[]"
            },
            {
              "internalType": "uint256[]",
              "name": "answers",
              "type": "uint256[]"
            },
            {
              "internalType": "uint256",
              "name": "joined_on",
              "type": "uint256"
            }
          ],
          "internalType": "struct DeQuora.User",
          "name": "",
          "type": "tuple"
        }
      ],
      "stateMutability": "view",
      "type": "function"
    },
    {
      "inputs": [
        {
          "components": [
            {
              "internalType": "uint256",
              "name": "id",
              "type": "uint256"
            },
            {
              "internalType": "string",
              "name": "question",
              "type": "string"
            },
            {
              "internalType": "string",
              "name": "author_name",
              "type": "string"
            },
            {
              "internalType": "address",
              "name": "author_address",
              "type": "address"
            },
            {
              "internalType": "address",
              "name": "owner_address",
              "type": "address"
            },
            {
              "internalType": "uint256",
              "name": "total_answers",
              "type": "uint256"
            },
            {
              "internalType": "uint256",
              "name": "likes",
              "type": "uint256"
            },
            {
              "internalType": "address[]",
              "name": "liked_by",
              "type": "address[]"
            },
            {
              "internalType": "uint256",
              "name": "created_on",
              "type": "uint256"
            },
            {
              "internalType": "uint256",
              "name": "bonus_pool",
              "type": "uint256"
            },
            {
              "internalType": "address[]",
              "name": "support_by",
              "type": "address[]"
            },
            {
              "internalType": "uint256",
              "name": "expire",
              "type": "uint256"
            }
          ],
          "internalType": "struct DeQuora.Question",
          "name": "_question",
          "type": "tuple"
        },
        {
          "internalType": "uint256",
          "name": "_question_id",
          "type": "uint256"
        }
      ],
      "name": "set_question",
      "outputs": [],
      "stateMutability": "nonpayable",
      "type": "function"
    },
    {
      "inputs": [
        {
          "internalType": "uint256",
          "name": "_question_id",
          "type": "uint256"
        },
        {
          "internalType": "string",
          "name": "_answer",
          "type": "string"
        }
      ],
      "name": "add_answer",
      "outputs": [
        {
          "components": [
            {
              "internalType": "uint256",
              "name": "id",
              "type": "uint256"
            },
            {
              "internalType": "uint256",
              "name": "question_id",
              "type": "uint256"
            },
            {
              "internalType": "uint256",
              "name": "NFT_id",
              "type": "uint256"
            },
            {
              "internalType": "string",
              "name": "answer",
              "type": "string"
            },
            {
              "internalType": "string",
              "name": "author_name",
              "type": "string"
            },
            {
              "internalType": "address",
              "name": "author_address",
              "type": "address"
            },
            {
              "internalType": "address",
              "name": "owner_address",
              "type": "address"
            },
            {
              "internalType": "uint256",
              "name": "likes",
              "type": "uint256"
            },
            {
              "internalType": "address[]",
              "name": "liked_by",
              "type": "address[]"
            },
            {
              "internalType": "uint256",
              "name": "created_on",
              "type": "uint256"
            },
            {
              "internalType": "uint256",
              "name": "bonus",
              "type": "uint256"
            },
            {
              "internalType": "address[]",
              "name": "support_by",
              "type": "address[]"
            },
            {
              "internalType": "uint256",
              "name": "expire",
              "type": "uint256"
            }
          ],
          "internalType": "struct DeQuora.Answer",
          "name": "",
          "type": "tuple"
        }
      ],
      "stateMutability": "payable",
      "type": "function"
    },
    {
      "inputs": [
        {
          "internalType": "uint256",
          "name": "_question_id",
          "type": "uint256"
        },
        {
          "internalType": "uint256",
          "name": "_answer_id",
          "type": "uint256"
        }
      ],
      "name": "get_answer",
      "outputs": [
        {
          "components": [
            {
              "internalType": "uint256",
              "name": "id",
              "type": "uint256"
            },
            {
              "internalType": "uint256",
              "name": "question_id",
              "type": "uint256"
            },
            {
              "internalType": "uint256",
              "name": "NFT_id",
              "type": "uint256"
            },
            {
              "internalType": "string",
              "name": "answer",
              "type": "string"
            },
            {
              "internalType": "string",
              "name": "author_name",
              "type": "string"
            },
            {
              "internalType": "address",
              "name": "author_address",
              "type": "address"
            },
            {
              "internalType": "address",
              "name": "owner_address",
              "type": "address"
            },
            {
              "internalType": "uint256",
              "name": "likes",
              "type": "uint256"
            },
            {
              "internalType": "address[]",
              "name": "liked_by",
              "type": "address[]"
            },
            {
              "internalType": "uint256",
              "name": "created_on",
              "type": "uint256"
            },
            {
              "internalType": "uint256",
              "name": "bonus",
              "type": "uint256"
            },
            {
              "internalType": "address[]",
              "name": "support_by",
              "type": "address[]"
            },
            {
              "internalType": "uint256",
              "name": "expire",
              "type": "uint256"
            }
          ],
          "internalType": "struct DeQuora.Answer",
          "name": "",
          "type": "tuple"
        }
      ],
      "stateMutability": "view",
      "type": "function"
    },
    {
      "inputs": [
        {
          "internalType": "uint256",
          "name": "_question_id",
          "type": "uint256"
        },
        {
          "internalType": "uint256",
          "name": "_answer_id",
          "type": "uint256"
        },
        {
          "components": [
            {
              "internalType": "uint256",
              "name": "id",
              "type": "uint256"
            },
            {
              "internalType": "uint256",
              "name": "question_id",
              "type": "uint256"
            },
            {
              "internalType": "uint256",
              "name": "NFT_id",
              "type": "uint256"
            },
            {
              "internalType": "string",
              "name": "answer",
              "type": "string"
            },
            {
              "internalType": "string",
              "name": "author_name",
              "type": "string"
            },
            {
              "internalType": "address",
              "name": "author_address",
              "type": "address"
            },
            {
              "internalType": "address",
              "name": "owner_address",
              "type": "address"
            },
            {
              "internalType": "uint256",
              "name": "likes",
              "type": "uint256"
            },
            {
              "internalType": "address[]",
              "name": "liked_by",
              "type": "address[]"
            },
            {
              "internalType": "uint256",
              "name": "created_on",
              "type": "uint256"
            },
            {
              "internalType": "uint256",
              "name": "bonus",
              "type": "uint256"
            },
            {
              "internalType": "address[]",
              "name": "support_by",
              "type": "address[]"
            },
            {
              "internalType": "uint256",
              "name": "expire",
              "type": "uint256"
            }
          ],
          "internalType": "struct DeQuora.Answer",
          "name": "_answer",
          "type": "tuple"
        }
      ],
      "name": "set_answer",
      "outputs": [],
      "stateMutability": "nonpayable",
      "type": "function"
    },
    {
      "inputs": [
        {
          "internalType": "uint256",
          "name": "_question_id",
          "type": "uint256"
        },
        {
          "internalType": "uint256",
          "name": "_answer_id",
          "type": "uint256"
        }
      ],
      "name": "like_answer",
      "outputs": [],
      "stateMutability": "payable",
      "type": "function"
    },
    {
      "inputs": [
        {
          "internalType": "uint256",
          "name": "_question_id",
          "type": "uint256"
        }
      ],
      "name": "like_question",
      "outputs": [],
      "stateMutability": "payable",
      "type": "function"
    },
    {
      "inputs": [
        {
          "internalType": "uint256",
          "name": "_question_id",
          "type": "uint256"
        },
        {
          "internalType": "uint256",
          "name": "_answer_id",
          "type": "uint256"
        }
      ],
      "name": "tip_answer",
      "outputs": [],
      "stateMutability": "payable",
      "type": "function"
    },
    {
      "inputs": [
        {
          "internalType": "uint256",
          "name": "_question_id",
          "type": "uint256"
        }
      ],
      "name": "tip_question",
      "outputs": [],
      "stateMutability": "payable",
      "type": "function"
    },
    {
      "inputs": [
        {
          "internalType": "uint256",
          "name": "_question_id",
          "type": "uint256"
        }
      ],
      "name": "dividing_question_bonus_pool",
      "outputs": [],
      "stateMutability": "nonpayable",
      "type": "function"
    }
  ],
  "bytecode": "0x608060405260006003553480156200001657600080fd5b50600060048190555060006005819055507f316a024183dffe386f9e64eeb7d2108a2f170f4c8708641f33f165f6dda8b9736040516200005690620000c5565b60405180910390a1620000e7565b600082825260208201905092915050565b7f4d61696e206973206465706c6f79656400000000000000000000000000000000600082015250565b6000620000ad60108362000064565b9150620000ba8262000075565b602082019050919050565b60006020820190508181036000830152620000e0816200009e565b9050919050565b61546a80620000f76000396000f3fe6080604052600436106101665760003560e01c806370a08231116100d1578063d2965f041161008a578063e78c145311610064578063e78c14531461055e578063e7cc62bd1461057a578063fd93d2e3146105a5578063ff30ae0c146105d057610166565b8063d2965f04146104d5578063df16b7ab14610512578063e68ca4a41461054257610166565b806370a08231146103bf578063a87430ba146103fc578063a9059cbb1461043c578063b2e6ceeb14610465578063c84ccaef1461048e578063d1984a70146104b957610166565b8063403aa93b11610123578063403aa93b1461029e57806348e8158a146102dd5780635fe1fc0c1461030d5780636352211e146103365780636411ad3814610373578063676c98811461038f57610166565b8063095ea7b31461016b5780631da01cad146101945780631f8ae1f5146101bd5780632401519c146101e657806330de49841461022d57806331b1b97814610258575b600080fd5b34801561017757600080fd5b50610192600480360381019061018d9190613dda565b61060d565b005b3480156101a057600080fd5b506101bb60048036038101906101b69190613e1a565b610611565b005b3480156101c957600080fd5b506101e460048036038101906101df91906141f1565b610804565b005b3480156101f257600080fd5b5061020d6004803603810190610208919061424d565b6109c3565b6040516102249b9a99989796959493929190614333565b60405180910390f35b34801561023957600080fd5b50610242610b8a565b60405161024f91906146de565b60405180910390f35b34801561026457600080fd5b5061027f600480360381019061027a9190613e1a565b610f12565b6040516102959a99989796959493929190614700565b60405180910390f35b3480156102aa57600080fd5b506102c560048036038101906102c09190613e1a565b6110c6565b6040516102d493929190614c13565b60405180910390f35b6102f760048036038101906102f29190614c5f565b611a98565b6040516103049190614ca8565b60405180910390f35b34801561031957600080fd5b50610334600480360381019061032f9190614e72565b611d79565b005b34801561034257600080fd5b5061035d60048036038101906103589190613e1a565b611f78565b60405161036a9190614ee1565b60405180910390f35b61038d6004803603810190610388919061424d565b611fb5565b005b6103a960048036038101906103a49190614c5f565b6120c9565b6040516103b69190614efc565b60405180910390f35b3480156103cb57600080fd5b506103e660048036038101906103e19190614f1e565b612564565b6040516103f39190614f4b565b60405180910390f35b34801561040857600080fd5b50610423600480360381019061041e9190614f1e565b6125ac565b6040516104339493929190614f66565b60405180910390f35b34801561044857600080fd5b50610463600480360381019061045e9190613dda565b612684565b005b34801561047157600080fd5b5061048c60048036038101906104879190613e1a565b612808565b005b34801561049a57600080fd5b506104a361280b565b6040516104b09190614f4b565b60405180910390f35b6104d360048036038101906104ce9190613e1a565b612811565b005b3480156104e157600080fd5b506104fc60048036038101906104f79190614f1e565b612898565b6040516105099190614ca8565b60405180910390f35b61052c60048036038101906105279190614fb2565b612afb565b604051610539919061513c565b60405180910390f35b61055c60048036038101906105579190613e1a565b6130db565b005b6105786004803603810190610573919061424d565b61313f565b005b34801561058657600080fd5b5061058f6131fe565b60405161059c9190614f4b565b60405180910390f35b3480156105b157600080fd5b506105ba613204565b6040516105c79190614f4b565b60405180910390f35b3480156105dc57600080fd5b506105f760048036038101906105f2919061424d565b61320a565b604051610604919061513c565b60405180910390f35b5050565b600061061c826110c6565b505090504262278d00826101600151610635919061518d565b111561064057600080fd5b60008060005b6007600086815260200190815260200160002080549050811015610727578160076000878152602001908152602001600020828154811061068a576106896151c1565b5b90600052602060002090600d02016007015410610714576007600086815260200190815260200160002081815481106106c6576106c56151c1565b5b90600052602060002090600d02016000015492506007600086815260200190815260200160002081815481106106ff576106fe6151c1565b5b90600052602060002090600d02016007015491505b808061071f906151f0565b915050610646565b506000610734858461320a565b9050836101200151816101400181815161074e9190615239565b915081815250508060c0015173ffffffffffffffffffffffffffffffffffffffff166108fc8561012001519081150290604051600060405180830381858888f193505050501580156107a4573d6000803e3d6000fd5b506000846101200181815250506107bc858483611d79565b6107c68486610804565b7f58c0dfae77f475405555022d92866578de3189260068e22bcb2a7b1baa1df004846040516107f59190614efc565b60405180910390a15050505050565b60005b6005548110156109be578160088281548110610826576108256151c1565b5b90600052602060002090600c02016000015414156109ab578260088281548110610853576108526151c1565b5b90600052602060002090600c020160008201518160000155602082015181600101908051906020019061088792919061360d565b5060408201518160020190805190602001906108a492919061360d565b5060608201518160030160006101000a81548173ffffffffffffffffffffffffffffffffffffffff021916908373ffffffffffffffffffffffffffffffffffffffff16021790555060808201518160040160006101000a81548173ffffffffffffffffffffffffffffffffffffffff021916908373ffffffffffffffffffffffffffffffffffffffff16021790555060a0820151816005015560c0820151816006015560e0820151816007019080519060200190610963929190613693565b506101008201518160080155610120820151816009015561014082015181600a019080519060200190610997929190613693565b5061016082015181600b01559050506109be565b80806109b6906151f0565b915050610807565b505050565b600760205281600052604060002081815481106109df57600080fd5b90600052602060002090600d020160009150915050806000015490806001015490806002015490806003018054610a15906152be565b80601f0160208091040260200160405190810160405280929190818152602001828054610a41906152be565b8015610a8e5780601f10610a6357610100808354040283529160200191610a8e565b820191906000526020600020905b815481529060010190602001808311610a7157829003601f168201915b505050505090806004018054610aa3906152be565b80601f0160208091040260200160405190810160405280929190818152602001828054610acf906152be565b8015610b1c5780601f10610af157610100808354040283529160200191610b1c565b820191906000526020600020905b815481529060010190602001808311610aff57829003601f168201915b5050505050908060050160009054906101000a900473ffffffffffffffffffffffffffffffffffffffff16908060060160009054906101000a900473ffffffffffffffffffffffffffffffffffffffff169080600701549080600901549080600a01549080600c015490508b565b60606008805480602002602001604051908101604052809291908181526020016000905b82821015610f0957838290600052602060002090600c02016040518061018001604052908160008201548152602001600182018054610bec906152be565b80601f0160208091040260200160405190810160405280929190818152602001828054610c18906152be565b8015610c655780601f10610c3a57610100808354040283529160200191610c65565b820191906000526020600020905b815481529060010190602001808311610c4857829003601f168201915b50505050508152602001600282018054610c7e906152be565b80601f0160208091040260200160405190810160405280929190818152602001828054610caa906152be565b8015610cf75780601f10610ccc57610100808354040283529160200191610cf7565b820191906000526020600020905b815481529060010190602001808311610cda57829003601f168201915b505050505081526020016003820160009054906101000a900473ffffffffffffffffffffffffffffffffffffffff1673ffffffffffffffffffffffffffffffffffffffff1673ffffffffffffffffffffffffffffffffffffffff1681526020016004820160009054906101000a900473ffffffffffffffffffffffffffffffffffffffff1673ffffffffffffffffffffffffffffffffffffffff1673ffffffffffffffffffffffffffffffffffffffff168152602001600582015481526020016006820154815260200160078201805480602002602001604051908101604052809291908181526020018280548015610e4557602002820191906000526020600020905b8160009054906101000a900473ffffffffffffffffffffffffffffffffffffffff1673ffffffffffffffffffffffffffffffffffffffff1681526020019060010190808311610dfb575b505050505081526020016008820154815260200160098201548152602001600a8201805480602002602001604051908101604052809291908181526020018280548015610ee757602002820191906000526020600020905b8160009054906101000a900473ffffffffffffffffffffffffffffffffffffffff1673ffffffffffffffffffffffffffffffffffffffff1681526020019060010190808311610e9d575b50505050508152602001600b8201548152505081526020019060010190610bae565b50505050905090565b60088181548110610f2257600080fd5b90600052602060002090600c0201600091509050806000015490806001018054610f4b906152be565b80601f0160208091040260200160405190810160405280929190818152602001828054610f77906152be565b8015610fc45780601f10610f9957610100808354040283529160200191610fc4565b820191906000526020600020905b815481529060010190602001808311610fa757829003601f168201915b505050505090806002018054610fd9906152be565b80601f0160208091040260200160405190810160405280929190818152602001828054611005906152be565b80156110525780601f1061102757610100808354040283529160200191611052565b820191906000526020600020905b81548152906001019060200180831161103557829003601f168201915b5050505050908060030160009054906101000a900473ffffffffffffffffffffffffffffffffffffffff16908060040160009054906101000a900473ffffffffffffffffffffffffffffffffffffffff169080600501549080600601549080600801549080600901549080600b015490508a565b6110ce61371d565b60606110d86137aa565b6110e061371d565b60005b60055481101561148a578560088281548110611102576111016151c1565b5b90600052602060002090600c0201600001541415611477576008818154811061112e5761112d6151c1565b5b90600052602060002090600c02016040518061018001604052908160008201548152602001600182018054611162906152be565b80601f016020809104026020016040519081016040528092919081815260200182805461118e906152be565b80156111db5780601f106111b0576101008083540402835291602001916111db565b820191906000526020600020905b8154815290600101906020018083116111be57829003601f168201915b505050505081526020016002820180546111f4906152be565b80601f0160208091040260200160405190810160405280929190818152602001828054611220906152be565b801561126d5780601f106112425761010080835404028352916020019161126d565b820191906000526020600020905b81548152906001019060200180831161125057829003601f168201915b505050505081526020016003820160009054906101000a900473ffffffffffffffffffffffffffffffffffffffff1673ffffffffffffffffffffffffffffffffffffffff1673ffffffffffffffffffffffffffffffffffffffff1681526020016004820160009054906101000a900473ffffffffffffffffffffffffffffffffffffffff1673ffffffffffffffffffffffffffffffffffffffff1673ffffffffffffffffffffffffffffffffffffffff1681526020016005820154815260200160068201548152602001600782018054806020026020016040519081016040528092919081815260200182805480156113bb57602002820191906000526020600020905b8160009054906101000a900473ffffffffffffffffffffffffffffffffffffffff1673ffffffffffffffffffffffffffffffffffffffff1681526020019060010190808311611371575b505050505081526020016008820154815260200160098201548152602001600a820180548060200260200160405190810160405280929190818152602001828054801561145d57602002820191906000526020600020905b8160009054906101000a900473ffffffffffffffffffffffffffffffffffffffff1673ffffffffffffffffffffffffffffffffffffffff1681526020019060010190808311611413575b50505050508152602001600b82015481525050915061148a565b8080611482906151f0565b9150506110e3565b50600060066000836060015173ffffffffffffffffffffffffffffffffffffffff1673ffffffffffffffffffffffffffffffffffffffff1681526020019081526020016000206040518060e0016040529081600082015481526020016001820160009054906101000a900473ffffffffffffffffffffffffffffffffffffffff1673ffffffffffffffffffffffffffffffffffffffff1673ffffffffffffffffffffffffffffffffffffffff16815260200160028201805461154b906152be565b80601f0160208091040260200160405190810160405280929190818152602001828054611577906152be565b80156115c45780601f10611599576101008083540402835291602001916115c4565b820191906000526020600020905b8154815290600101906020018083116115a757829003601f168201915b505050505081526020016003820180548060200260200160405190810160405280929190818152602001828054801561161c57602002820191906000526020600020905b815481526020019060010190808311611608575b505050505081526020016004820180548060200260200160405190810160405280929190818152602001828054801561167457602002820191906000526020600020905b815481526020019060010190808311611660575b50505050508152602001600582018054806020026020016040519081016040528092919081815260200182805480156116cc57602002820191906000526020600020905b8154815260200190600101908083116116b8575b50505050508152602001600682015481525050905060006007600084600001518152602001908152602001600020805480602002602001604051908101604052809291908181526020016000905b82821015611a7f57838290600052602060002090600d0201604051806101a001604052908160008201548152602001600182015481526020016002820154815260200160038201805461176c906152be565b80601f0160208091040260200160405190810160405280929190818152602001828054611798906152be565b80156117e55780601f106117ba576101008083540402835291602001916117e5565b820191906000526020600020905b8154815290600101906020018083116117c857829003601f168201915b505050505081526020016004820180546117fe906152be565b80601f016020809104026020016040519081016040528092919081815260200182805461182a906152be565b80156118775780601f1061184c57610100808354040283529160200191611877565b820191906000526020600020905b81548152906001019060200180831161185a57829003601f168201915b505050505081526020016005820160009054906101000a900473ffffffffffffffffffffffffffffffffffffffff1673ffffffffffffffffffffffffffffffffffffffff1673ffffffffffffffffffffffffffffffffffffffff1681526020016006820160009054906101000a900473ffffffffffffffffffffffffffffffffffffffff1673ffffffffffffffffffffffffffffffffffffffff1673ffffffffffffffffffffffffffffffffffffffff16815260200160078201548152602001600882018054806020026020016040519081016040528092919081815260200182805480156119bb57602002820191906000526020600020905b8160009054906101000a900473ffffffffffffffffffffffffffffffffffffffff1673ffffffffffffffffffffffffffffffffffffffff1681526020019060010190808311611971575b5050505050815260200160098201548152602001600a8201548152602001600b8201805480602002602001604051908101604052809291908181526020018280548015611a5d57602002820191906000526020600020905b8160009054906101000a900473ffffffffffffffffffffffffffffffffffffffff1673ffffffffffffffffffffffffffffffffffffffff1681526020019060010190808311611a13575b50505050508152602001600c820154815250508152602001906001019061171a565b5050505090508281839550955095505050509193909250565b611aa06137aa565b600082511415611ae5576040517f08c379a0000000000000000000000000000000000000000000000000000000008152600401611adc9061533c565b60405180910390fd5b60006040518060e0016040528060045481526020013373ffffffffffffffffffffffffffffffffffffffff168152602001848152602001600067ffffffffffffffff811115611b3757611b36613e5d565b5b604051908082528060200260200182016040528015611b655781602001602082028036833780820191505090505b508152602001600067ffffffffffffffff811115611b8657611b85613e5d565b5b604051908082528060200260200182016040528015611bb45781602001602082028036833780820191505090505b508152602001600067ffffffffffffffff811115611bd557611bd4613e5d565b5b604051908082528060200260200182016040528015611c035781602001602082028036833780820191505090505b50815260200142815250905080600660003373ffffffffffffffffffffffffffffffffffffffff1673ffffffffffffffffffffffffffffffffffffffff1681526020019081526020016000206000820151816000015560208201518160010160006101000a81548173ffffffffffffffffffffffffffffffffffffffff021916908373ffffffffffffffffffffffffffffffffffffffff1602179055506040820151816002019080519060200190611cbc92919061360d565b506060820151816003019080519060200190611cd99291906137fd565b506080820151816004019080519060200190611cf69291906137fd565b5060a0820151816005019080519060200190611d139291906137fd565b5060c0820151816006015590505060046000815480929190611d34906151f0565b91905055507f35ce3ccc4e4d8114f3dcd288e157c011f700e316ff61ce9a81c2926eba963a0e81604051611d689190614ca8565b60405180910390a180915050919050565b6000611d84846110c6565b5050905060005b8160a00151811015611f715783600760008781526020019081526020016000208281548110611dbd57611dbc6151c1565b5b90600052602060002090600d0201600001541415611f5e5782600760008781526020019081526020016000208281548110611dfb57611dfa6151c1565b5b90600052602060002090600d02016000820151816000015560208201518160010155604082015181600201556060820151816003019080519060200190611e4392919061360d565b506080820151816004019080519060200190611e6092919061360d565b5060a08201518160050160006101000a81548173ffffffffffffffffffffffffffffffffffffffff021916908373ffffffffffffffffffffffffffffffffffffffff16021790555060c08201518160060160006101000a81548173ffffffffffffffffffffffffffffffffffffffff021916908373ffffffffffffffffffffffffffffffffffffffff16021790555060e08201518160070155610100820151816008019080519060200190611f16929190613693565b50610120820151816009015561014082015181600a015561016082015181600b019080519060200190611f4a929190613693565b5061018082015181600c0155905050611f71565b8080611f69906151f0565b915050611d8b565b5050505050565b60006001600083815260200190815260200160002060009054906101000a900473ffffffffffffffffffffffffffffffffffffffff169050919050565b6000611fc0836110c6565b505090506000611fd0848461320a565b905060008160c0015190508073ffffffffffffffffffffffffffffffffffffffff166108fc349081150290604051600060405180830381858888f19350505050158015612021573d6000803e3d6000fd5b503482610140018181516120359190615239565b9150818152505062278d0083610160018181516120529190615239565b9150818152505062278d00826101800181815161206f9190615239565b91508181525050612081858584611d79565b61208b8386610804565b7ffaeed9db3bf38f90b2323fc6d8e9ef9f327d6ec2b45f51d01f2282559f723918826040516120ba919061513c565b60405180910390a15050505050565b6120d161371d565b600082511415612116576040517f08c379a000000000000000000000000000000000000000000000000000000000815260040161210d906153a8565b60405180910390fd5b60006040518061018001604052806005548152602001848152602001600660003373ffffffffffffffffffffffffffffffffffffffff1673ffffffffffffffffffffffffffffffffffffffff168152602001908152602001600020600201805461217f906152be565b80601f01602080910402602001604051908101604052809291908181526020018280546121ab906152be565b80156121f85780601f106121cd576101008083540402835291602001916121f8565b820191906000526020600020905b8154815290600101906020018083116121db57829003601f168201915b505050505081526020013373ffffffffffffffffffffffffffffffffffffffff1681526020013373ffffffffffffffffffffffffffffffffffffffff1681526020016000815260200160008152602001600067ffffffffffffffff81111561226357612262613e5d565b5b6040519080825280602002602001820160405280156122915781602001602082028036833780820191505090505b50815260200142815260200160008152602001600067ffffffffffffffff8111156122bf576122be613e5d565b5b6040519080825280602002602001820160405280156122ed5781602001602082028036833780820191505090505b50815260200162278d00426123029190615239565b815250905060088190806001815401808255809150506001900390600052602060002090600c020160009091909190915060008201518160000155602082015181600101908051906020019061235992919061360d565b50604082015181600201908051906020019061237692919061360d565b5060608201518160030160006101000a81548173ffffffffffffffffffffffffffffffffffffffff021916908373ffffffffffffffffffffffffffffffffffffffff16021790555060808201518160040160006101000a81548173ffffffffffffffffffffffffffffffffffffffff021916908373ffffffffffffffffffffffffffffffffffffffff16021790555060a0820151816005015560c0820151816006015560e0820151816007019080519060200190612435929190613693565b506101008201518160080155610120820151816009015561014082015181600a019080519060200190612469929190613693565b5061016082015181600b015550506005600081548092919061248a906151f0565b9190505550600960076000836000015181526020019081526020016000209080546124b692919061384a565b50600660003373ffffffffffffffffffffffffffffffffffffffff1673ffffffffffffffffffffffffffffffffffffffff168152602001908152602001600020600301816000015190806001815401808255809150506001900390600052602060002001600090919091909150557f5fded981c983dc58ebfd471713357642f524c529a0150aa917059c904905a9e1816040516125539190614efc565b60405180910390a180915050919050565b60008060008373ffffffffffffffffffffffffffffffffffffffff1673ffffffffffffffffffffffffffffffffffffffff168152602001908152602001600020549050919050565b60066020528060005260406000206000915090508060000154908060010160009054906101000a900473ffffffffffffffffffffffffffffffffffffffff16908060020180546125fb906152be565b80601f0160208091040260200160405190810160405280929190818152602001828054612627906152be565b80156126745780601f1061264957610100808354040283529160200191612674565b820191906000526020600020905b81548152906001019060200180831161265757829003601f168201915b5050505050908060060154905084565b61268d81611f78565b73ffffffffffffffffffffffffffffffffffffffff163373ffffffffffffffffffffffffffffffffffffffff16146126c457600080fd5b816001600083815260200190815260200160002060006101000a81548173ffffffffffffffffffffffffffffffffffffffff021916908373ffffffffffffffffffffffffffffffffffffffff160217905550600061277060026000848152602001908152602001600020600060028110612741576127406151c1565b5b015460026000858152602001908152602001600020600160028110612769576127686151c1565b5b015461320a565b9050828160c0019073ffffffffffffffffffffffffffffffffffffffff16908173ffffffffffffffffffffffffffffffffffffffff1681525050612803600260008481526020019081526020016000206000600281106127d3576127d26151c1565b5b0154600260008581526020019081526020016000206001600281106127fb576127fa6151c1565b5b015483611d79565b505050565b50565b60055481565b600061281c826110c6565b505090508060c0018051809190612832906151f0565b8152505062278d00816101600181815161284c9190615239565b9150818152505061285d8183610804565b7fe977d9a5135652c602b8ff0089b72f0673502977c342a2b56f4fc86ab6127a6d8160405161288c9190614efc565b60405180910390a15050565b6128a06137aa565b6000600660008473ffffffffffffffffffffffffffffffffffffffff1673ffffffffffffffffffffffffffffffffffffffff1681526020019081526020016000206040518060e0016040529081600082015481526020016001820160009054906101000a900473ffffffffffffffffffffffffffffffffffffffff1673ffffffffffffffffffffffffffffffffffffffff1673ffffffffffffffffffffffffffffffffffffffff16815260200160028201805461295c906152be565b80601f0160208091040260200160405190810160405280929190818152602001828054612988906152be565b80156129d55780601f106129aa576101008083540402835291602001916129d5565b820191906000526020600020905b8154815290600101906020018083116129b857829003601f168201915b5050505050815260200160038201805480602002602001604051908101604052809291908181526020018280548015612a2d57602002820191906000526020600020905b815481526020019060010190808311612a19575b5050505050815260200160048201805480602002602001604051908101604052809291908181526020018280548015612a8557602002820191906000526020600020905b815481526020019060010190808311612a71575b5050505050815260200160058201805480602002602001604051908101604052809291908181526020018280548015612add57602002820191906000526020600020905b815481526020019060010190808311612ac9575b50505050508152602001600682015481525050905080915050919050565b612b03613a24565b600082511415612b48576040517f08c379a0000000000000000000000000000000000000000000000000000000008152600401612b3f90615414565b60405180910390fd5b6000612b53846110c6565b505090506000604051806101a001604052808360a0015181526020018681526020016003548152602001858152602001600660003373ffffffffffffffffffffffffffffffffffffffff1673ffffffffffffffffffffffffffffffffffffffff1681526020019081526020016000206002018054612bd0906152be565b80601f0160208091040260200160405190810160405280929190818152602001828054612bfc906152be565b8015612c495780601f10612c1e57610100808354040283529160200191612c49565b820191906000526020600020905b815481529060010190602001808311612c2c57829003601f168201915b505050505081526020013373ffffffffffffffffffffffffffffffffffffffff1681526020013373ffffffffffffffffffffffffffffffffffffffff16815260200160008152602001600067ffffffffffffffff811115612cad57612cac613e5d565b5b604051908082528060200260200182016040528015612cdb5781602001602082028036833780820191505090505b50815260200142815260200160008152602001600067ffffffffffffffff811115612d0957612d08613e5d565b5b604051908082528060200260200182016040528015612d375781602001602082028036833780820191505090505b50815260200162278d0042612d4c9190615239565b8152509050600760008681526020019081526020016000208190806001815401808255809150506001900390600052602060002090600d02016000909190919091506000820151816000015560208201518160010155604082015181600201556060820151816003019080519060200190612dc892919061360d565b506080820151816004019080519060200190612de592919061360d565b5060a08201518160050160006101000a81548173ffffffffffffffffffffffffffffffffffffffff021916908373ffffffffffffffffffffffffffffffffffffffff16021790555060c08201518160060160006101000a81548173ffffffffffffffffffffffffffffffffffffffff021916908373ffffffffffffffffffffffffffffffffffffffff16021790555060e08201518160070155610100820151816008019080519060200190612e9b929190613693565b50610120820151816009015561014082015181600a015561016082015181600b019080519060200190612ecf929190613693565b5061018082015181600c015550508160a0018051809190612eef906151f0565b81525050600660003373ffffffffffffffffffffffffffffffffffffffff1673ffffffffffffffffffffffffffffffffffffffff168152602001908152602001600020600401859080600181540180825580915050600190039060005260206000200160009091909190915055600660003373ffffffffffffffffffffffffffffffffffffffff1673ffffffffffffffffffffffffffffffffffffffff16815260200190815260200160002060050181600001519080600181540180825580915050600190039060005260206000200160009091909190915055612fd38286610804565b6040518060400160405280868152602001826000015181525060026000600354815260200190815260200160002090600261300f929190613ab8565b503360016000600354815260200190815260200160002060006101000a81548173ffffffffffffffffffffffffffffffffffffffff021916908373ffffffffffffffffffffffffffffffffffffffff1602179055506000803373ffffffffffffffffffffffffffffffffffffffff1673ffffffffffffffffffffffffffffffffffffffff16815260200190815260200160002060008154809291906130b3906151f0565b9190505550600360008154809291906130cb906151f0565b9190505550809250505092915050565b60006130e6826110c6565b505090503481610120018181516130fd9190615239565b915081815250507fe2fcf83bcc8e103341bbc6fc68517eb3696b3dca03e6cc2cdf1c5dd50ce8f018816040516131339190614efc565b60405180910390a15050565b600061314a836110c6565b50509050600061315a848461320a565b90508060e001805180919061316e906151f0565b8152505062278d0082610160018181516131889190615239565b9150818152505062278d0081610180018181516131a59190615239565b915081815250506131b7848483611d79565b6131c18285610804565b7faece473cf907ba7399dc0e00cb038051581d8aba01b365c1935bafd99f2f4a16816040516131f0919061513c565b60405180910390a150505050565b60045481565b60035481565b613212613a24565b600061321d846110c6565b50509050613229613a24565b60005b8260a00151811015613601578460076000888152602001908152602001600020828154811061325e5761325d6151c1565b5b90600052602060002090600d02016000015414156135ee5760076000878152602001908152602001600020818154811061329b5761329a6151c1565b5b90600052602060002090600d0201604051806101a00160405290816000820154815260200160018201548152602001600282015481526020016003820180546132e3906152be565b80601f016020809104026020016040519081016040528092919081815260200182805461330f906152be565b801561335c5780601f106133315761010080835404028352916020019161335c565b820191906000526020600020905b81548152906001019060200180831161333f57829003601f168201915b50505050508152602001600482018054613375906152be565b80601f01602080910402602001604051908101604052809291908181526020018280546133a1906152be565b80156133ee5780601f106133c3576101008083540402835291602001916133ee565b820191906000526020600020905b8154815290600101906020018083116133d157829003601f168201915b505050505081526020016005820160009054906101000a900473ffffffffffffffffffffffffffffffffffffffff1673ffffffffffffffffffffffffffffffffffffffff1673ffffffffffffffffffffffffffffffffffffffff1681526020016006820160009054906101000a900473ffffffffffffffffffffffffffffffffffffffff1673ffffffffffffffffffffffffffffffffffffffff1673ffffffffffffffffffffffffffffffffffffffff168152602001600782015481526020016008820180548060200260200160405190810160405280929190818152602001828054801561353257602002820191906000526020600020905b8160009054906101000a900473ffffffffffffffffffffffffffffffffffffffff1673ffffffffffffffffffffffffffffffffffffffff16815260200190600101908083116134e8575b5050505050815260200160098201548152602001600a8201548152602001600b82018054806020026020016040519081016040528092919081815260200182805480156135d457602002820191906000526020600020905b8160009054906101000a900473ffffffffffffffffffffffffffffffffffffffff1673ffffffffffffffffffffffffffffffffffffffff168152602001906001019080831161358a575b50505050508152602001600c820154815250509150613601565b80806135f9906151f0565b91505061322c565b50809250505092915050565b828054613619906152be565b90600052602060002090601f01602090048101928261363b5760008555613682565b82601f1061365457805160ff1916838001178555613682565b82800160010185558215613682579182015b82811115613681578251825591602001919060010190613666565b5b50905061368f9190613af8565b5090565b82805482825590600052602060002090810192821561370c579160200282015b8281111561370b5782518260006101000a81548173ffffffffffffffffffffffffffffffffffffffff021916908373ffffffffffffffffffffffffffffffffffffffff160217905550916020019190600101906136b3565b5b5090506137199190613af8565b5090565b604051806101800160405280600081526020016060815260200160608152602001600073ffffffffffffffffffffffffffffffffffffffff168152602001600073ffffffffffffffffffffffffffffffffffffffff168152602001600081526020016000815260200160608152602001600081526020016000815260200160608152602001600081525090565b6040518060e0016040528060008152602001600073ffffffffffffffffffffffffffffffffffffffff16815260200160608152602001606081526020016060815260200160608152602001600081525090565b828054828255906000526020600020908101928215613839579160200282015b8281111561383857825182559160200191906001019061381d565b5b5090506138469190613af8565b5090565b82805482825590600052602060002090600d028101928215613a1357600052602060002091600d0282015b82811115613a1257828260008201548160000155600182015481600101556002820154816002015560038201816003019080546138b1906152be565b6138bc929190613b15565b5060048201816004019080546138d1906152be565b6138dc929190613b15565b506005820160009054906101000a900473ffffffffffffffffffffffffffffffffffffffff168160050160006101000a81548173ffffffffffffffffffffffffffffffffffffffff021916908373ffffffffffffffffffffffffffffffffffffffff1602179055506006820160009054906101000a900473ffffffffffffffffffffffffffffffffffffffff168160060160006101000a81548173ffffffffffffffffffffffffffffffffffffffff021916908373ffffffffffffffffffffffffffffffffffffffff1602179055506007820154816007015560088201816008019080546139cb929190613ba2565b5060098201548160090155600a82015481600a0155600b820181600b019080546139f6929190613ba2565b50600c82015481600c0155505091600d019190600d0190613875565b5b509050613a209190613bf4565b5090565b604051806101a001604052806000815260200160008152602001600081526020016060815260200160608152602001600073ffffffffffffffffffffffffffffffffffffffff168152602001600073ffffffffffffffffffffffffffffffffffffffff1681526020016000815260200160608152602001600081526020016000815260200160608152602001600081525090565b8260028101928215613ae7579160200282015b82811115613ae6578251825591602001919060010190613acb565b5b509050613af49190613af8565b5090565b5b80821115613b11576000816000905550600101613af9565b5090565b828054613b21906152be565b90600052602060002090601f016020900481019282613b435760008555613b91565b82601f10613b545780548555613b91565b82800160010185558215613b9157600052602060002091601f016020900482015b82811115613b90578254825591600101919060010190613b75565b5b509050613b9e9190613af8565b5090565b828054828255906000526020600020908101928215613be35760005260206000209182015b82811115613be2578254825591600101919060010190613bc7565b5b509050613bf09190613af8565b5090565b5b80821115613ccd5760008082016000905560018201600090556002820160009055600382016000613c269190613cd1565b600482016000613c369190613cd1565b6005820160006101000a81549073ffffffffffffffffffffffffffffffffffffffff02191690556006820160006101000a81549073ffffffffffffffffffffffffffffffffffffffff02191690556007820160009055600882016000613c9c9190613d11565b6009820160009055600a820160009055600b82016000613cbc9190613d11565b600c82016000905550600d01613bf5565b5090565b508054613cdd906152be565b6000825580601f10613cef5750613d0e565b601f016020900490600052602060002090810190613d0d9190613af8565b5b50565b5080546000825590600052602060002090810190613d2f9190613af8565b50565b6000604051905090565b600080fd5b600080fd5b600073ffffffffffffffffffffffffffffffffffffffff82169050919050565b6000613d7182613d46565b9050919050565b613d8181613d66565b8114613d8c57600080fd5b50565b600081359050613d9e81613d78565b92915050565b6000819050919050565b613db781613da4565b8114613dc257600080fd5b50565b600081359050613dd481613dae565b92915050565b60008060408385031215613df157613df0613d3c565b5b6000613dff85828601613d8f565b9250506020613e1085828601613dc5565b9150509250929050565b600060208284031215613e3057613e2f613d3c565b5b6000613e3e84828501613dc5565b91505092915050565b600080fd5b6000601f19601f8301169050919050565b7f4e487b7100000000000000000000000000000000000000000000000000000000600052604160045260246000fd5b613e9582613e4c565b810181811067ffffffffffffffff82111715613eb457613eb3613e5d565b5b80604052505050565b6000613ec7613d32565b9050613ed38282613e8c565b919050565b600080fd5b600080fd5b600080fd5b600067ffffffffffffffff821115613f0257613f01613e5d565b5b613f0b82613e4c565b9050602081019050919050565b82818337600083830152505050565b6000613f3a613f3584613ee7565b613ebd565b905082815260208101848484011115613f5657613f55613ee2565b5b613f61848285613f18565b509392505050565b600082601f830112613f7e57613f7d613edd565b5b8135613f8e848260208601613f27565b91505092915050565b600067ffffffffffffffff821115613fb257613fb1613e5d565b5b602082029050602081019050919050565b600080fd5b6000613fdb613fd684613f97565b613ebd565b90508083825260208201905060208402830185811115613ffe57613ffd613fc3565b5b835b8181101561402757806140138882613d8f565b845260208401935050602081019050614000565b5050509392505050565b600082601f83011261404657614045613edd565b5b8135614056848260208601613fc8565b91505092915050565b6000610180828403121561407657614075613e47565b5b614081610180613ebd565b9050600061409184828501613dc5565b600083015250602082013567ffffffffffffffff8111156140b5576140b4613ed8565b5b6140c184828501613f69565b602083015250604082013567ffffffffffffffff8111156140e5576140e4613ed8565b5b6140f184828501613f69565b604083015250606061410584828501613d8f565b606083015250608061411984828501613d8f565b60808301525060a061412d84828501613dc5565b60a08301525060c061414184828501613dc5565b60c08301525060e082013567ffffffffffffffff81111561416557614164613ed8565b5b61417184828501614031565b60e08301525061010061418684828501613dc5565b6101008301525061012061419c84828501613dc5565b6101208301525061014082013567ffffffffffffffff8111156141c2576141c1613ed8565b5b6141ce84828501614031565b610140830152506101606141e484828501613dc5565b6101608301525092915050565b6000806040838503121561420857614207613d3c565b5b600083013567ffffffffffffffff81111561422657614225613d41565b5b6142328582860161405f565b925050602061424385828601613dc5565b9150509250929050565b6000806040838503121561426457614263613d3c565b5b600061427285828601613dc5565b925050602061428385828601613dc5565b9150509250929050565b61429681613da4565b82525050565b600081519050919050565b600082825260208201905092915050565b60005b838110156142d65780820151818401526020810190506142bb565b838111156142e5576000848401525b50505050565b60006142f68261429c565b61430081856142a7565b93506143108185602086016142b8565b61431981613e4c565b840191505092915050565b61432d81613d66565b82525050565b600061016082019050614349600083018e61428d565b614356602083018d61428d565b614363604083018c61428d565b8181036060830152614375818b6142eb565b90508181036080830152614389818a6142eb565b905061439860a0830189614324565b6143a560c0830188614324565b6143b260e083018761428d565b6143c061010083018661428d565b6143ce61012083018561428d565b6143dc61014083018461428d565b9c9b505050505050505050505050565b600081519050919050565b600082825260208201905092915050565b6000819050602082019050919050565b61442181613da4565b82525050565b600082825260208201905092915050565b60006144438261429c565b61444d8185614427565b935061445d8185602086016142b8565b61446681613e4c565b840191505092915050565b61447a81613d66565b82525050565b600081519050919050565b600082825260208201905092915050565b6000819050602082019050919050565b60006144b88383614471565b60208301905092915050565b6000602082019050919050565b60006144dc82614480565b6144e6818561448b565b93506144f18361449c565b8060005b8381101561452257815161450988826144ac565b9750614514836144c4565b9250506001810190506144f5565b5085935050505092915050565b6000610180830160008301516145486000860182614418565b50602083015184820360208601526145608282614438565b9150506040830151848203604086015261457a8282614438565b915050606083015161458f6060860182614471565b5060808301516145a26080860182614471565b5060a08301516145b560a0860182614418565b5060c08301516145c860c0860182614418565b5060e083015184820360e08601526145e082826144d1565b9150506101008301516145f7610100860182614418565b5061012083015161460c610120860182614418565b5061014083015184820361014086015261462682826144d1565b91505061016083015161463d610160860182614418565b508091505092915050565b6000614654838361452f565b905092915050565b6000602082019050919050565b6000614674826143ec565b61467e81856143f7565b93508360208202850161469085614408565b8060005b858110156146cc57848403895281516146ad8582614648565b94506146b88361465c565b925060208a01995050600181019050614694565b50829750879550505050505092915050565b600060208201905081810360008301526146f88184614669565b905092915050565b600061014082019050614716600083018d61428d565b8181036020830152614728818c6142eb565b9050818103604083015261473c818b6142eb565b905061474b606083018a614324565b6147586080830189614324565b61476560a083018861428d565b61477260c083018761428d565b61477f60e083018661428d565b61478d61010083018561428d565b61479b61012083018461428d565b9b9a5050505050505050505050565b6000610180830160008301516147c36000860182614418565b50602083015184820360208601526147db8282614438565b915050604083015184820360408601526147f58282614438565b915050606083015161480a6060860182614471565b50608083015161481d6080860182614471565b5060a083015161483060a0860182614418565b5060c083015161484360c0860182614418565b5060e083015184820360e086015261485b82826144d1565b915050610100830151614872610100860182614418565b50610120830151614887610120860182614418565b506101408301518482036101408601526148a182826144d1565b9150506101608301516148b8610160860182614418565b508091505092915050565b600081519050919050565b600082825260208201905092915050565b6000819050602082019050919050565b60006101a0830160008301516149086000860182614418565b50602083015161491b6020860182614418565b50604083015161492e6040860182614418565b50606083015184820360608601526149468282614438565b915050608083015184820360808601526149608282614438565b91505060a083015161497560a0860182614471565b5060c083015161498860c0860182614471565b5060e083015161499b60e0860182614418565b506101008301518482036101008601526149b582826144d1565b9150506101208301516149cc610120860182614418565b506101408301516149e1610140860182614418565b506101608301518482036101608601526149fb82826144d1565b915050610180830151614a12610180860182614418565b508091505092915050565b6000614a2983836148ef565b905092915050565b6000602082019050919050565b6000614a49826148c3565b614a5381856148ce565b935083602082028501614a65856148df565b8060005b85811015614aa15784840389528151614a828582614a1d565b9450614a8d83614a31565b925060208a01995050600181019050614a69565b50829750879550505050505092915050565b600081519050919050565b600082825260208201905092915050565b6000819050602082019050919050565b6000614aeb8383614418565b60208301905092915050565b6000602082019050919050565b6000614b0f82614ab3565b614b198185614abe565b9350614b2483614acf565b8060005b83811015614b55578151614b3c8882614adf565b9750614b4783614af7565b925050600181019050614b28565b5085935050505092915050565b600060e083016000830151614b7a6000860182614418565b506020830151614b8d6020860182614471565b5060408301518482036040860152614ba58282614438565b91505060608301518482036060860152614bbf8282614b04565b91505060808301518482036080860152614bd98282614b04565b91505060a083015184820360a0860152614bf38282614b04565b91505060c0830151614c0860c0860182614418565b508091505092915050565b60006060820190508181036000830152614c2d81866147aa565b90508181036020830152614c418185614a3e565b90508181036040830152614c558184614b62565b9050949350505050565b600060208284031215614c7557614c74613d3c565b5b600082013567ffffffffffffffff811115614c9357614c92613d41565b5b614c9f84828501613f69565b91505092915050565b60006020820190508181036000830152614cc28184614b62565b905092915050565b60006101a08284031215614ce157614ce0613e47565b5b614cec6101a0613ebd565b90506000614cfc84828501613dc5565b6000830152506020614d1084828501613dc5565b6020830152506040614d2484828501613dc5565b604083015250606082013567ffffffffffffffff811115614d4857614d47613ed8565b5b614d5484828501613f69565b606083015250608082013567ffffffffffffffff811115614d7857614d77613ed8565b5b614d8484828501613f69565b60808301525060a0614d9884828501613d8f565b60a08301525060c0614dac84828501613d8f565b60c08301525060e0614dc084828501613dc5565b60e08301525061010082013567ffffffffffffffff811115614de557614de4613ed8565b5b614df184828501614031565b61010083015250610120614e0784828501613dc5565b61012083015250610140614e1d84828501613dc5565b6101408301525061016082013567ffffffffffffffff811115614e4357614e42613ed8565b5b614e4f84828501614031565b61016083015250610180614e6584828501613dc5565b6101808301525092915050565b600080600060608486031215614e8b57614e8a613d3c565b5b6000614e9986828701613dc5565b9350506020614eaa86828701613dc5565b925050604084013567ffffffffffffffff811115614ecb57614eca613d41565b5b614ed786828701614cca565b9150509250925092565b6000602082019050614ef66000830184614324565b92915050565b60006020820190508181036000830152614f1681846147aa565b905092915050565b600060208284031215614f3457614f33613d3c565b5b6000614f4284828501613d8f565b91505092915050565b6000602082019050614f60600083018461428d565b92915050565b6000608082019050614f7b600083018761428d565b614f886020830186614324565b8181036040830152614f9a81856142eb565b9050614fa9606083018461428d565b95945050505050565b60008060408385031215614fc957614fc8613d3c565b5b6000614fd785828601613dc5565b925050602083013567ffffffffffffffff811115614ff857614ff7613d41565b5b61500485828601613f69565b9150509250929050565b60006101a0830160008301516150276000860182614418565b50602083015161503a6020860182614418565b50604083015161504d6040860182614418565b50606083015184820360608601526150658282614438565b9150506080830151848203608086015261507f8282614438565b91505060a083015161509460a0860182614471565b5060c08301516150a760c0860182614471565b5060e08301516150ba60e0860182614418565b506101008301518482036101008601526150d482826144d1565b9150506101208301516150eb610120860182614418565b50610140830151615100610140860182614418565b5061016083015184820361016086015261511a82826144d1565b915050610180830151615131610180860182614418565b508091505092915050565b60006020820190508181036000830152615156818461500e565b905092915050565b7f4e487b7100000000000000000000000000000000000000000000000000000000600052601160045260246000fd5b600061519882613da4565b91506151a383613da4565b9250828210156151b6576151b561515e565b5b828203905092915050565b7f4e487b7100000000000000000000000000000000000000000000000000000000600052603260045260246000fd5b60006151fb82613da4565b91507fffffffffffffffffffffffffffffffffffffffffffffffffffffffffffffffff82141561522e5761522d61515e565b5b600182019050919050565b600061524482613da4565b915061524f83613da4565b9250827fffffffffffffffffffffffffffffffffffffffffffffffffffffffffffffffff038211156152845761528361515e565b5b828201905092915050565b7f4e487b7100000000000000000000000000000000000000000000000000000000600052602260045260246000fd5b600060028204905060018216806152d657607f821691505b602082108114156152ea576152e961528f565b5b50919050565b7f557365726e616d65206973207265717569726564000000000000000000000000600082015250565b60006153266014836142a7565b9150615331826152f0565b602082019050919050565b6000602082019050818103600083015261535581615319565b9050919050565b7f5175657374696f6e2063616e6e6f7420626520656d7074790000000000000000600082015250565b60006153926018836142a7565b915061539d8261535c565b602082019050919050565b600060208201905081810360008301526153c181615385565b9050919050565b7f416e737765722063616e6e6f7420626520656d70747900000000000000000000600082015250565b60006153fe6016836142a7565b9150615409826153c8565b602082019050919050565b6000602082019050818103600083015261542d816153f1565b905091905056fea264697066735822122040f20d184d4ef1ac48dc3ff2b182719eff247b48b740b6b7006393c6608db69264736f6c634300080b0033",
  "immutableReferences": {},
  "source": "// SPDX-License-Identifier: MIT\npragma solidity >=0.4.22 <0.9.0;\nimport \"./erc721.sol\";\n\ncontract DeQuora is ERC721 {\n    /**\n     * @notice NFT\n     */\n\n    //NFT\n    mapping(address => uint256) private _balances;\n    mapping(uint256 => address) private _owners;\n    mapping(uint256 => uint[2]) private _NFT_answers; // NFT_id to question id and answerId\n    \n    uint256 public NFT_id_generator = 0; // global unique answer id\n\n\n    function balanceOf(\n        address _owner\n    ) public view override returns (uint256 _balance) {\n        // 1.  `_owner` NFT\n        return _balances[_owner];\n    }\n\n    function ownerOf(\n        uint256 _tokenId\n    ) public view override returns (address _owner) {\n        // 2.  `_tokenId` \n        return _owners[_tokenId];\n    }\n\n    function transfer(address _to, uint256 _tokenId) public override {\n        require(msg.sender == ownerOf(_tokenId));\n        _owners[_tokenId] = _to;\n        Answer memory NFT_answer= get_answer(_NFT_answers[_tokenId][0],_NFT_answers[_tokenId][1]);\n        NFT_answer.owner_address = _to;\n        set_answer(_NFT_answers[_tokenId][0], _NFT_answers[_tokenId][1],NFT_answer);\n    }\n\n    function approve(address _to, uint256 _tokenId) public override {}\n\n    function takeOwnership(uint256 _tokenId) public override {}\n\n    /**\n     * @notice for code refactoring and upgrading by Joshua\n     */\n    // enum ItemKind {\n    //     Question,\n    //     Answer\n    // }\n    // struct Item {\n    //     /// @notice what kind of item (post or comment)\n    //     ItemKind kind;\n    //     /// @notice Unique item id, assigned at creation time.\n    //     uint256 id;\n    //     /// @notice address of author.\n    //     address author;\n    //     /// @notice Id of parent item. Questions have parentId == 0.\n    //     uint256 parentId;\n    //     /// @notice block number when item was submitted\n    //     uint256 createdAtBlock;\n    //     /// @notice ids of all child items, with oldest items at front.\n    //     uint256[] childIds;\n    //     /// @notice IPFS CID o  f item content.\n    //     string contentCID;\n    // }\n\n    /**\n     * @notice \n     */\n\n    struct User {\n        uint256 id;\n        address account;\n        string name;\n        uint256[] questions;\n        uint256[] answered_questions;\n        uint256[] answers;\n        uint256 joined_on;\n    }\n\n    struct Question {\n        uint256 id;\n        string question;\n        string author_name;\n        address author_address;\n        address owner_address;\n        uint256 total_answers;\n        uint256 likes;\n        address[] liked_by;\n        uint256 created_on;\n        uint256 bonus_pool;\n        address[] support_by;\n        uint expire;\n    }\n\n    struct Answer {\n        uint256 id;\n        uint256 question_id;\n        uint256 NFT_id;\n        string answer;\n        string author_name;\n        address author_address;\n        address owner_address;\n        uint256 likes;\n        address[] liked_by;\n        uint256 created_on;\n        uint256 bonus;\n        address[] support_by;\n        uint256 expire;\n    }\n    // useless code\n    // struct QuestionAnswer {\n    //     Question question;\n    //     Answer[] answers;\n    // }\n\n    uint256 public total_users; //user count\n    uint256 public total_questions; // question count\n    \n\n    mapping(address => User) public users;\n    mapping(uint256 => Answer[]) public answers; //question_id to answers\n    Question[] public questions; // all questions\n    Answer[] answers_array;\n    event new_user_added(User);\n    event main_deployed(string);\n    event question_added(Question);\n    event answer_tipped(Answer);\n    event question_tipped(Question);\n    event answer_liked(Answer);\n    event question_liked(Question);\n    event question_bonus_divided(Question);\n    constructor() {\n        total_users = 0;\n        total_questions = 0;\n        emit main_deployed(\"Main is deployed\");\n    }\n\n    function create_user(\n        string memory _name\n    ) public payable returns (User memory) {\n        require(bytes(_name).length != 0, \"Username is required\");\n        User memory newUser = User(\n            total_users,\n            msg.sender,\n            _name,\n            new uint256[](0),\n            new uint256[](0),\n            new uint256[](0),\n            block.timestamp\n        );\n        users[msg.sender] = newUser;\n        total_users++;\n        emit new_user_added(newUser);\n        return newUser;\n    }\n\n    function get_user_details(\n        address _user_address\n    ) public view returns (User memory) {\n        User memory user = users[_user_address];\n        return user;\n    }\n\n    function add_question(\n        string memory _question\n    ) public payable returns (Question memory) {\n        require(bytes(_question).length != 0, \"Question cannot be empty\");\n        //Question\n        Question memory newQuestion = Question(\n            total_questions,\n            _question,\n            users[msg.sender].name,\n            msg.sender,\n            msg.sender,\n            0,\n            0,\n            new address[](0),\n            block.timestamp,\n            0,\n            new address[](0),\n            block.timestamp + 30 days\n        );\n        //questions\n        questions.push(newQuestion);\n        total_questions++;\n        //Answer\n        answers[newQuestion.id] = answers_array;\n        //\n        users[msg.sender].questions.push(newQuestion.id);\n\n        emit question_added(newQuestion);\n\n        return newQuestion;\n    }\n\n    function get_all_questions() public view returns (Question[] memory) {\n        return questions;\n    }\n\n    function get_question(\n        uint256 _question_id\n    ) public view returns (Question memory, Answer[] memory, User memory) {\n        Question memory question;\n\n        //iterate over all the questions\n        for (uint256 i = 0; i < total_questions; i++) {\n            // check for the question with the given id\n            if (questions[i].id == _question_id) {\n                //return the question with the given id, and corresponding author\n                question = questions[i];\n                break;\n            }\n        }\n        User memory _author = users[question.author_address];\n        Answer[] memory _answers = answers[question.id];\n        return (question, _answers, _author);\n    }\n\n    function set_question(\n        Question memory _question,\n        uint256 _question_id\n    ) public {\n        for (uint256 i = 0; i < total_questions; i++) {\n            if (questions[i].id == _question_id) {\n                questions[i] = _question;\n                break;\n            }\n        }\n    }\n\n    function add_answer(\n        uint256 _question_id,\n        string memory _answer\n    ) public payable returns (Answer memory) {\n        require(bytes(_answer).length != 0, \"Answer cannot be empty\");\n        (Question memory question, , ) = get_question(_question_id);\n        // require(\n        //     question.author_address != msg.sender,\n        //     \"Author cannot answer his/her own question\"\n        // );\n\n        Answer memory answer = Answer(\n            question.total_answers,\n            _question_id,\n            NFT_id_generator, // NFT token\n            _answer,\n            users[msg.sender].name,\n            msg.sender,\n            msg.sender,\n            0,\n            new address[](0),\n            block.timestamp,\n            0,\n            new address[](0),\n            block.timestamp + 30 days\n        );\n\n        answers[_question_id].push(answer);\n        question.total_answers++;\n\n        users[msg.sender].answered_questions.push(_question_id);\n        users[msg.sender].answers.push(answer.id);\n\n        set_question(question, _question_id);\n\n        //NFT\n        _NFT_answers[NFT_id_generator] = [_question_id, answer.id]; // NFT\n        _owners[NFT_id_generator] = msg.sender; // \n        _balances[msg.sender]++;\n        NFT_id_generator++; //NFT token++\n\n        return answer;\n    }\n\n    function get_answer(\n        uint256 _question_id,\n        uint256 _answer_id\n    ) public view returns (Answer memory) {\n        //Get the question\n        (Question memory question, , ) = get_question(_question_id);\n\n        Answer memory answer;\n\n        for (uint256 i = 0; i < question.total_answers; i++) {\n            if (answers[_question_id][i].id == _answer_id) {\n                answer = answers[_question_id][i];\n                break;\n            }\n        }\n\n        return answer;\n    }\n\n    function set_answer(\n        uint256 _question_id,\n        uint256 _answer_id,\n        Answer memory _answer\n    ) public {\n        //Get the question\n        (Question memory question, , ) = get_question(_question_id);\n\n        for (uint256 i = 0; i < question.total_answers; i++) {\n            if (answers[_question_id][i].id == _answer_id) {\n                answers[_question_id][i] = _answer;\n                break;\n            }\n        }\n\n    }\n\n    function like_answer(\n        uint256 _question_id,\n        uint256 _answer_id\n    ) public payable {\n        //Question\n        (Question memory question, , ) = get_question(_question_id);\n        //Answer\n        Answer memory answer = get_answer(_question_id, _answer_id);\n        //gas\n        // for (uint256 i = 0; i < answer.liked_by.length; i++) {\n        //     require(\n        //         answer.liked_by[i] != msg.sender,\n        //         \"You have already liked this answer\"\n        //     );\n        // }\n        // \n        // answer.liked_by[answer.likes] = msg.sender;\n        answer.likes++;\n        question.expire += 30 days;\n        answer.expire += 30 days;\n        //\n        set_answer(_question_id, _answer_id, answer);\n        set_question(question,_question_id);\n        emit answer_liked(answer);\n    }\n\n    function like_question(\n        uint256 _question_id\n    ) public payable{\n        (Question memory question, , ) = get_question(_question_id);\n\n        // for (uint256 i = 0; i < question.liked_by.length; i++) {\n        //     require(\n        //         question.liked_by[i] != msg.sender,\n        //         \"You have already liked this question\"\n        //     );\n        // }\n\n        // question.liked_by[question.likes] = msg.sender;\n        question.likes++;\n        question.expire += 30 days;\n\n        set_question(question, _question_id);\n\n        emit question_liked(question);\n    }\n\n    /**\n     * @notice \n     */\n\n    // \n    function tip_answer(\n        uint256 _question_id,\n        uint256 _answer_id\n    ) public payable {\n        // \n        //Question\n        (Question memory question, , ) = get_question(_question_id);\n        //Answer\n        Answer memory answer = get_answer(_question_id, _answer_id);\n        // \n        address payable _author = payable(answer.owner_address);\n        // \n        _author.transfer(msg.value);\n        answer.bonus += msg.value; \n        question.expire += 30 days;\n        answer.expire += 30 days;\n        //\n        set_answer(_question_id, _answer_id, answer);\n        set_question(question, _question_id);\n        // \n        emit answer_tipped(answer);\n    }\n\n\n    // \n    function tip_question(uint256 _question_id) public payable {\n        (Question memory question, , ) = get_question(_question_id);\n        question.bonus_pool += msg.value;\n        emit question_tipped(question);\n    }\n\n    function dividing_question_bonus_pool(uint _question_id) public {\n        (Question memory question, , ) = get_question(_question_id);\n        // \n        require(question.expire - 30 days <= block.timestamp); \n        uint highest_liked_answer_id = 0;\n        uint highest_likes = 0;\n        for(uint i=0;i<answers[_question_id].length;i++){\n            if(answers[_question_id][i].likes >= highest_likes){\n                highest_liked_answer_id = answers[_question_id][i].id;\n                highest_likes = answers[_question_id][i].likes;\n            }\n        }\n        Answer memory answer = get_answer(_question_id,highest_liked_answer_id);\n        answer.bonus += question.bonus_pool;\n        payable(answer.owner_address).transfer(question.bonus_pool);\n        question.bonus_pool = 0;\n        \n        set_answer(_question_id,highest_liked_answer_id,answer);\n        set_question(question, _question_id);\n        emit question_bonus_divided(question);\n    }\n\n\n    function clean() private {\n        for (uint256 i = 0; i < total_questions; i++) {\n            Question memory q = questions[i];\n            if (q.expire < block.timestamp) {\n                dividing_question_bonus_pool(q.id);\n                //\n                questions[i] = questions[total_questions - 1];\n                total_questions--;\n            }\n        }\n    }\n}\n",
  "sourcePath": "D:\\Homework\\BlockChain\\QA-DApp\\contracts\\contracts\\DeQuora.sol",
  "compiler": {
    "name": "solc",
    "version": "0.8.11+commit.d7f03943.Emscripten.clang"
  },
  "schemaVersion": "3.4.11",
  "updatedAt": "2023-05-25T03:28:05.108Z",
  "devdoc": {
    "kind": "dev",
    "methods": {},
    "version": 1
  },
  "userdoc": {
    "kind": "user",
    "methods": {
      "tip_answer(uint256,uint256)": {
        "notice": ""
      }
    },
    "version": 1
  }
}