{
  "contractName": "DeQuora",
  "abi": [
    {
      "inputs": [],
      "stateMutability": "nonpayable",
      "type": "constructor"
    },
    {
      "anonymous": false,
      "inputs": [
        {
          "indexed": true,
          "internalType": "address",
          "name": "_owner",
          "type": "address"
        },
        {
          "indexed": true,
          "internalType": "address",
          "name": "_approved",
          "type": "address"
        },
        {
          "indexed": false,
          "internalType": "uint256",
          "name": "_tokenId",
          "type": "uint256"
        }
      ],
      "name": "Approval",
      "type": "event"
    },
    {
      "anonymous": false,
      "inputs": [
        {
          "indexed": true,
          "internalType": "address",
          "name": "_from",
          "type": "address"
        },
        {
          "indexed": true,
          "internalType": "address",
          "name": "_to",
          "type": "address"
        },
        {
          "indexed": false,
          "internalType": "uint256",
          "name": "_tokenId",
          "type": "uint256"
        }
      ],
      "name": "Transfer",
      "type": "event"
    },
    {
      "anonymous": false,
      "inputs": [
        {
          "components": [
            {
              "internalType": "uint256",
              "name": "id",
              "type": "uint256"
            },
            {
              "internalType": "uint256",
              "name": "question_id",
              "type": "uint256"
            },
            {
              "internalType": "uint256",
              "name": "NFT_id",
              "type": "uint256"
            },
            {
              "internalType": "string",
              "name": "answer",
              "type": "string"
            },
            {
              "internalType": "string",
              "name": "author_name",
              "type": "string"
            },
            {
              "internalType": "address",
              "name": "author_address",
              "type": "address"
            },
            {
              "internalType": "address",
              "name": "owner_address",
              "type": "address"
            },
            {
              "internalType": "uint256",
              "name": "likes",
              "type": "uint256"
            },
            {
              "internalType": "address[]",
              "name": "liked_by",
              "type": "address[]"
            },
            {
              "internalType": "uint256",
              "name": "created_on",
              "type": "uint256"
            },
            {
              "internalType": "uint256",
              "name": "bonus",
              "type": "uint256"
            },
            {
              "internalType": "address[]",
              "name": "support_by",
              "type": "address[]"
            },
            {
              "internalType": "uint256",
              "name": "expire",
              "type": "uint256"
            }
          ],
          "indexed": false,
          "internalType": "struct DeQuora.Answer",
          "name": "",
          "type": "tuple"
        }
      ],
      "name": "answer_tipped",
      "type": "event"
    },
    {
      "anonymous": false,
      "inputs": [
        {
          "indexed": false,
          "internalType": "string",
          "name": "",
          "type": "string"
        }
      ],
      "name": "main_deployed",
      "type": "event"
    },
    {
      "anonymous": false,
      "inputs": [
        {
          "components": [
            {
              "internalType": "uint256",
              "name": "id",
              "type": "uint256"
            },
            {
              "internalType": "address",
              "name": "account",
              "type": "address"
            },
            {
              "internalType": "string",
              "name": "name",
              "type": "string"
            },
            {
              "internalType": "uint256[]",
              "name": "questions",
              "type": "uint256[]"
            },
            {
              "internalType": "uint256[]",
              "name": "answered_questions",
              "type": "uint256[]"
            },
            {
              "internalType": "uint256[]",
              "name": "answers",
              "type": "uint256[]"
            },
            {
              "internalType": "uint256",
              "name": "joined_on",
              "type": "uint256"
            }
          ],
          "indexed": false,
          "internalType": "struct DeQuora.User",
          "name": "",
          "type": "tuple"
        }
      ],
      "name": "new_user_added",
      "type": "event"
    },
    {
      "anonymous": false,
      "inputs": [
        {
          "components": [
            {
              "internalType": "uint256",
              "name": "id",
              "type": "uint256"
            },
            {
              "internalType": "string",
              "name": "question",
              "type": "string"
            },
            {
              "internalType": "string",
              "name": "author_name",
              "type": "string"
            },
            {
              "internalType": "address",
              "name": "author_address",
              "type": "address"
            },
            {
              "internalType": "address",
              "name": "owner_address",
              "type": "address"
            },
            {
              "internalType": "uint256",
              "name": "total_answers",
              "type": "uint256"
            },
            {
              "internalType": "uint256",
              "name": "likes",
              "type": "uint256"
            },
            {
              "internalType": "address[]",
              "name": "liked_by",
              "type": "address[]"
            },
            {
              "internalType": "uint256",
              "name": "created_on",
              "type": "uint256"
            },
            {
              "internalType": "uint256",
              "name": "bonus_pool",
              "type": "uint256"
            },
            {
              "internalType": "address[]",
              "name": "support_by",
              "type": "address[]"
            },
            {
              "internalType": "uint256",
              "name": "expire",
              "type": "uint256"
            }
          ],
          "indexed": false,
          "internalType": "struct DeQuora.Question",
          "name": "",
          "type": "tuple"
        }
      ],
      "name": "question_added",
      "type": "event"
    },
    {
      "anonymous": false,
      "inputs": [
        {
          "components": [
            {
              "internalType": "uint256",
              "name": "id",
              "type": "uint256"
            },
            {
              "internalType": "string",
              "name": "question",
              "type": "string"
            },
            {
              "internalType": "string",
              "name": "author_name",
              "type": "string"
            },
            {
              "internalType": "address",
              "name": "author_address",
              "type": "address"
            },
            {
              "internalType": "address",
              "name": "owner_address",
              "type": "address"
            },
            {
              "internalType": "uint256",
              "name": "total_answers",
              "type": "uint256"
            },
            {
              "internalType": "uint256",
              "name": "likes",
              "type": "uint256"
            },
            {
              "internalType": "address[]",
              "name": "liked_by",
              "type": "address[]"
            },
            {
              "internalType": "uint256",
              "name": "created_on",
              "type": "uint256"
            },
            {
              "internalType": "uint256",
              "name": "bonus_pool",
              "type": "uint256"
            },
            {
              "internalType": "address[]",
              "name": "support_by",
              "type": "address[]"
            },
            {
              "internalType": "uint256",
              "name": "expire",
              "type": "uint256"
            }
          ],
          "indexed": false,
          "internalType": "struct DeQuora.Question",
          "name": "",
          "type": "tuple"
        }
      ],
      "name": "question_tipped",
      "type": "event"
    },
    {
      "inputs": [],
      "name": "NFT_id_generator",
      "outputs": [
        {
          "internalType": "uint256",
          "name": "",
          "type": "uint256"
        }
      ],
      "stateMutability": "view",
      "type": "function",
      "constant": true
    },
    {
      "inputs": [
        {
          "internalType": "uint256",
          "name": "",
          "type": "uint256"
        },
        {
          "internalType": "uint256",
          "name": "",
          "type": "uint256"
        }
      ],
      "name": "answers",
      "outputs": [
        {
          "internalType": "uint256",
          "name": "id",
          "type": "uint256"
        },
        {
          "internalType": "uint256",
          "name": "question_id",
          "type": "uint256"
        },
        {
          "internalType": "uint256",
          "name": "NFT_id",
          "type": "uint256"
        },
        {
          "internalType": "string",
          "name": "answer",
          "type": "string"
        },
        {
          "internalType": "string",
          "name": "author_name",
          "type": "string"
        },
        {
          "internalType": "address",
          "name": "author_address",
          "type": "address"
        },
        {
          "internalType": "address",
          "name": "owner_address",
          "type": "address"
        },
        {
          "internalType": "uint256",
          "name": "likes",
          "type": "uint256"
        },
        {
          "internalType": "uint256",
          "name": "created_on",
          "type": "uint256"
        },
        {
          "internalType": "uint256",
          "name": "bonus",
          "type": "uint256"
        },
        {
          "internalType": "uint256",
          "name": "expire",
          "type": "uint256"
        }
      ],
      "stateMutability": "view",
      "type": "function",
      "constant": true
    },
    {
      "inputs": [
        {
          "internalType": "uint256",
          "name": "",
          "type": "uint256"
        }
      ],
      "name": "questions",
      "outputs": [
        {
          "internalType": "uint256",
          "name": "id",
          "type": "uint256"
        },
        {
          "internalType": "string",
          "name": "question",
          "type": "string"
        },
        {
          "internalType": "string",
          "name": "author_name",
          "type": "string"
        },
        {
          "internalType": "address",
          "name": "author_address",
          "type": "address"
        },
        {
          "internalType": "address",
          "name": "owner_address",
          "type": "address"
        },
        {
          "internalType": "uint256",
          "name": "total_answers",
          "type": "uint256"
        },
        {
          "internalType": "uint256",
          "name": "likes",
          "type": "uint256"
        },
        {
          "internalType": "uint256",
          "name": "created_on",
          "type": "uint256"
        },
        {
          "internalType": "uint256",
          "name": "bonus_pool",
          "type": "uint256"
        },
        {
          "internalType": "uint256",
          "name": "expire",
          "type": "uint256"
        }
      ],
      "stateMutability": "view",
      "type": "function",
      "constant": true
    },
    {
      "inputs": [],
      "name": "total_questions",
      "outputs": [
        {
          "internalType": "uint256",
          "name": "",
          "type": "uint256"
        }
      ],
      "stateMutability": "view",
      "type": "function",
      "constant": true
    },
    {
      "inputs": [],
      "name": "total_users",
      "outputs": [
        {
          "internalType": "uint256",
          "name": "",
          "type": "uint256"
        }
      ],
      "stateMutability": "view",
      "type": "function",
      "constant": true
    },
    {
      "inputs": [
        {
          "internalType": "address",
          "name": "",
          "type": "address"
        }
      ],
      "name": "users",
      "outputs": [
        {
          "internalType": "uint256",
          "name": "id",
          "type": "uint256"
        },
        {
          "internalType": "address",
          "name": "account",
          "type": "address"
        },
        {
          "internalType": "string",
          "name": "name",
          "type": "string"
        },
        {
          "internalType": "uint256",
          "name": "joined_on",
          "type": "uint256"
        }
      ],
      "stateMutability": "view",
      "type": "function",
      "constant": true
    },
    {
      "inputs": [
        {
          "internalType": "address",
          "name": "_owner",
          "type": "address"
        }
      ],
      "name": "balanceOf",
      "outputs": [
        {
          "internalType": "uint256",
          "name": "_balance",
          "type": "uint256"
        }
      ],
      "stateMutability": "view",
      "type": "function",
      "constant": true
    },
    {
      "inputs": [
        {
          "internalType": "uint256",
          "name": "_tokenId",
          "type": "uint256"
        }
      ],
      "name": "ownerOf",
      "outputs": [
        {
          "internalType": "address",
          "name": "_owner",
          "type": "address"
        }
      ],
      "stateMutability": "view",
      "type": "function",
      "constant": true
    },
    {
      "inputs": [
        {
          "internalType": "address",
          "name": "_to",
          "type": "address"
        },
        {
          "internalType": "uint256",
          "name": "_tokenId",
          "type": "uint256"
        }
      ],
      "name": "transfer",
      "outputs": [],
      "stateMutability": "nonpayable",
      "type": "function"
    },
    {
      "inputs": [
        {
          "internalType": "address",
          "name": "_to",
          "type": "address"
        },
        {
          "internalType": "uint256",
          "name": "_tokenId",
          "type": "uint256"
        }
      ],
      "name": "approve",
      "outputs": [],
      "stateMutability": "nonpayable",
      "type": "function"
    },
    {
      "inputs": [
        {
          "internalType": "uint256",
          "name": "_tokenId",
          "type": "uint256"
        }
      ],
      "name": "takeOwnership",
      "outputs": [],
      "stateMutability": "nonpayable",
      "type": "function"
    },
    {
      "inputs": [
        {
          "internalType": "string",
          "name": "_name",
          "type": "string"
        }
      ],
      "name": "create_user",
      "outputs": [
        {
          "components": [
            {
              "internalType": "uint256",
              "name": "id",
              "type": "uint256"
            },
            {
              "internalType": "address",
              "name": "account",
              "type": "address"
            },
            {
              "internalType": "string",
              "name": "name",
              "type": "string"
            },
            {
              "internalType": "uint256[]",
              "name": "questions",
              "type": "uint256[]"
            },
            {
              "internalType": "uint256[]",
              "name": "answered_questions",
              "type": "uint256[]"
            },
            {
              "internalType": "uint256[]",
              "name": "answers",
              "type": "uint256[]"
            },
            {
              "internalType": "uint256",
              "name": "joined_on",
              "type": "uint256"
            }
          ],
          "internalType": "struct DeQuora.User",
          "name": "",
          "type": "tuple"
        }
      ],
      "stateMutability": "payable",
      "type": "function",
      "payable": true
    },
    {
      "inputs": [
        {
          "internalType": "address",
          "name": "_user_address",
          "type": "address"
        }
      ],
      "name": "get_user_details",
      "outputs": [
        {
          "components": [
            {
              "internalType": "uint256",
              "name": "id",
              "type": "uint256"
            },
            {
              "internalType": "address",
              "name": "account",
              "type": "address"
            },
            {
              "internalType": "string",
              "name": "name",
              "type": "string"
            },
            {
              "internalType": "uint256[]",
              "name": "questions",
              "type": "uint256[]"
            },
            {
              "internalType": "uint256[]",
              "name": "answered_questions",
              "type": "uint256[]"
            },
            {
              "internalType": "uint256[]",
              "name": "answers",
              "type": "uint256[]"
            },
            {
              "internalType": "uint256",
              "name": "joined_on",
              "type": "uint256"
            }
          ],
          "internalType": "struct DeQuora.User",
          "name": "",
          "type": "tuple"
        }
      ],
      "stateMutability": "view",
      "type": "function",
      "constant": true
    },
    {
      "inputs": [
        {
          "internalType": "string",
          "name": "_question",
          "type": "string"
        }
      ],
      "name": "add_question",
      "outputs": [
        {
          "components": [
            {
              "internalType": "uint256",
              "name": "id",
              "type": "uint256"
            },
            {
              "internalType": "string",
              "name": "question",
              "type": "string"
            },
            {
              "internalType": "string",
              "name": "author_name",
              "type": "string"
            },
            {
              "internalType": "address",
              "name": "author_address",
              "type": "address"
            },
            {
              "internalType": "address",
              "name": "owner_address",
              "type": "address"
            },
            {
              "internalType": "uint256",
              "name": "total_answers",
              "type": "uint256"
            },
            {
              "internalType": "uint256",
              "name": "likes",
              "type": "uint256"
            },
            {
              "internalType": "address[]",
              "name": "liked_by",
              "type": "address[]"
            },
            {
              "internalType": "uint256",
              "name": "created_on",
              "type": "uint256"
            },
            {
              "internalType": "uint256",
              "name": "bonus_pool",
              "type": "uint256"
            },
            {
              "internalType": "address[]",
              "name": "support_by",
              "type": "address[]"
            },
            {
              "internalType": "uint256",
              "name": "expire",
              "type": "uint256"
            }
          ],
          "internalType": "struct DeQuora.Question",
          "name": "",
          "type": "tuple"
        }
      ],
      "stateMutability": "payable",
      "type": "function",
      "payable": true
    },
    {
      "inputs": [],
      "name": "get_all_questions",
      "outputs": [
        {
          "components": [
            {
              "internalType": "uint256",
              "name": "id",
              "type": "uint256"
            },
            {
              "internalType": "string",
              "name": "question",
              "type": "string"
            },
            {
              "internalType": "string",
              "name": "author_name",
              "type": "string"
            },
            {
              "internalType": "address",
              "name": "author_address",
              "type": "address"
            },
            {
              "internalType": "address",
              "name": "owner_address",
              "type": "address"
            },
            {
              "internalType": "uint256",
              "name": "total_answers",
              "type": "uint256"
            },
            {
              "internalType": "uint256",
              "name": "likes",
              "type": "uint256"
            },
            {
              "internalType": "address[]",
              "name": "liked_by",
              "type": "address[]"
            },
            {
              "internalType": "uint256",
              "name": "created_on",
              "type": "uint256"
            },
            {
              "internalType": "uint256",
              "name": "bonus_pool",
              "type": "uint256"
            },
            {
              "internalType": "address[]",
              "name": "support_by",
              "type": "address[]"
            },
            {
              "internalType": "uint256",
              "name": "expire",
              "type": "uint256"
            }
          ],
          "internalType": "struct DeQuora.Question[]",
          "name": "",
          "type": "tuple[]"
        }
      ],
      "stateMutability": "view",
      "type": "function",
      "constant": true
    },
    {
      "inputs": [
        {
          "internalType": "uint256",
          "name": "_question_id",
          "type": "uint256"
        }
      ],
      "name": "get_question",
      "outputs": [
        {
          "components": [
            {
              "internalType": "uint256",
              "name": "id",
              "type": "uint256"
            },
            {
              "internalType": "string",
              "name": "question",
              "type": "string"
            },
            {
              "internalType": "string",
              "name": "author_name",
              "type": "string"
            },
            {
              "internalType": "address",
              "name": "author_address",
              "type": "address"
            },
            {
              "internalType": "address",
              "name": "owner_address",
              "type": "address"
            },
            {
              "internalType": "uint256",
              "name": "total_answers",
              "type": "uint256"
            },
            {
              "internalType": "uint256",
              "name": "likes",
              "type": "uint256"
            },
            {
              "internalType": "address[]",
              "name": "liked_by",
              "type": "address[]"
            },
            {
              "internalType": "uint256",
              "name": "created_on",
              "type": "uint256"
            },
            {
              "internalType": "uint256",
              "name": "bonus_pool",
              "type": "uint256"
            },
            {
              "internalType": "address[]",
              "name": "support_by",
              "type": "address[]"
            },
            {
              "internalType": "uint256",
              "name": "expire",
              "type": "uint256"
            }
          ],
          "internalType": "struct DeQuora.Question",
          "name": "",
          "type": "tuple"
        },
        {
          "components": [
            {
              "internalType": "uint256",
              "name": "id",
              "type": "uint256"
            },
            {
              "internalType": "uint256",
              "name": "question_id",
              "type": "uint256"
            },
            {
              "internalType": "uint256",
              "name": "NFT_id",
              "type": "uint256"
            },
            {
              "internalType": "string",
              "name": "answer",
              "type": "string"
            },
            {
              "internalType": "string",
              "name": "author_name",
              "type": "string"
            },
            {
              "internalType": "address",
              "name": "author_address",
              "type": "address"
            },
            {
              "internalType": "address",
              "name": "owner_address",
              "type": "address"
            },
            {
              "internalType": "uint256",
              "name": "likes",
              "type": "uint256"
            },
            {
              "internalType": "address[]",
              "name": "liked_by",
              "type": "address[]"
            },
            {
              "internalType": "uint256",
              "name": "created_on",
              "type": "uint256"
            },
            {
              "internalType": "uint256",
              "name": "bonus",
              "type": "uint256"
            },
            {
              "internalType": "address[]",
              "name": "support_by",
              "type": "address[]"
            },
            {
              "internalType": "uint256",
              "name": "expire",
              "type": "uint256"
            }
          ],
          "internalType": "struct DeQuora.Answer[]",
          "name": "",
          "type": "tuple[]"
        },
        {
          "components": [
            {
              "internalType": "uint256",
              "name": "id",
              "type": "uint256"
            },
            {
              "internalType": "address",
              "name": "account",
              "type": "address"
            },
            {
              "internalType": "string",
              "name": "name",
              "type": "string"
            },
            {
              "internalType": "uint256[]",
              "name": "questions",
              "type": "uint256[]"
            },
            {
              "internalType": "uint256[]",
              "name": "answered_questions",
              "type": "uint256[]"
            },
            {
              "internalType": "uint256[]",
              "name": "answers",
              "type": "uint256[]"
            },
            {
              "internalType": "uint256",
              "name": "joined_on",
              "type": "uint256"
            }
          ],
          "internalType": "struct DeQuora.User",
          "name": "",
          "type": "tuple"
        }
      ],
      "stateMutability": "view",
      "type": "function",
      "constant": true
    },
    {
      "inputs": [
        {
          "components": [
            {
              "internalType": "uint256",
              "name": "id",
              "type": "uint256"
            },
            {
              "internalType": "string",
              "name": "question",
              "type": "string"
            },
            {
              "internalType": "string",
              "name": "author_name",
              "type": "string"
            },
            {
              "internalType": "address",
              "name": "author_address",
              "type": "address"
            },
            {
              "internalType": "address",
              "name": "owner_address",
              "type": "address"
            },
            {
              "internalType": "uint256",
              "name": "total_answers",
              "type": "uint256"
            },
            {
              "internalType": "uint256",
              "name": "likes",
              "type": "uint256"
            },
            {
              "internalType": "address[]",
              "name": "liked_by",
              "type": "address[]"
            },
            {
              "internalType": "uint256",
              "name": "created_on",
              "type": "uint256"
            },
            {
              "internalType": "uint256",
              "name": "bonus_pool",
              "type": "uint256"
            },
            {
              "internalType": "address[]",
              "name": "support_by",
              "type": "address[]"
            },
            {
              "internalType": "uint256",
              "name": "expire",
              "type": "uint256"
            }
          ],
          "internalType": "struct DeQuora.Question",
          "name": "_question",
          "type": "tuple"
        },
        {
          "internalType": "uint256",
          "name": "_question_id",
          "type": "uint256"
        }
      ],
      "name": "set_question",
      "outputs": [],
      "stateMutability": "nonpayable",
      "type": "function"
    },
    {
      "inputs": [
        {
          "internalType": "uint256",
          "name": "_question_id",
          "type": "uint256"
        },
        {
          "internalType": "string",
          "name": "_answer",
          "type": "string"
        }
      ],
      "name": "add_answer",
      "outputs": [
        {
          "components": [
            {
              "internalType": "uint256",
              "name": "id",
              "type": "uint256"
            },
            {
              "internalType": "uint256",
              "name": "question_id",
              "type": "uint256"
            },
            {
              "internalType": "uint256",
              "name": "NFT_id",
              "type": "uint256"
            },
            {
              "internalType": "string",
              "name": "answer",
              "type": "string"
            },
            {
              "internalType": "string",
              "name": "author_name",
              "type": "string"
            },
            {
              "internalType": "address",
              "name": "author_address",
              "type": "address"
            },
            {
              "internalType": "address",
              "name": "owner_address",
              "type": "address"
            },
            {
              "internalType": "uint256",
              "name": "likes",
              "type": "uint256"
            },
            {
              "internalType": "address[]",
              "name": "liked_by",
              "type": "address[]"
            },
            {
              "internalType": "uint256",
              "name": "created_on",
              "type": "uint256"
            },
            {
              "internalType": "uint256",
              "name": "bonus",
              "type": "uint256"
            },
            {
              "internalType": "address[]",
              "name": "support_by",
              "type": "address[]"
            },
            {
              "internalType": "uint256",
              "name": "expire",
              "type": "uint256"
            }
          ],
          "internalType": "struct DeQuora.Answer",
          "name": "",
          "type": "tuple"
        }
      ],
      "stateMutability": "payable",
      "type": "function",
      "payable": true
    },
    {
      "inputs": [
        {
          "internalType": "uint256",
          "name": "_question_id",
          "type": "uint256"
        },
        {
          "internalType": "uint256",
          "name": "_answer_id",
          "type": "uint256"
        }
      ],
      "name": "get_answer",
      "outputs": [
        {
          "components": [
            {
              "internalType": "uint256",
              "name": "id",
              "type": "uint256"
            },
            {
              "internalType": "uint256",
              "name": "question_id",
              "type": "uint256"
            },
            {
              "internalType": "uint256",
              "name": "NFT_id",
              "type": "uint256"
            },
            {
              "internalType": "string",
              "name": "answer",
              "type": "string"
            },
            {
              "internalType": "string",
              "name": "author_name",
              "type": "string"
            },
            {
              "internalType": "address",
              "name": "author_address",
              "type": "address"
            },
            {
              "internalType": "address",
              "name": "owner_address",
              "type": "address"
            },
            {
              "internalType": "uint256",
              "name": "likes",
              "type": "uint256"
            },
            {
              "internalType": "address[]",
              "name": "liked_by",
              "type": "address[]"
            },
            {
              "internalType": "uint256",
              "name": "created_on",
              "type": "uint256"
            },
            {
              "internalType": "uint256",
              "name": "bonus",
              "type": "uint256"
            },
            {
              "internalType": "address[]",
              "name": "support_by",
              "type": "address[]"
            },
            {
              "internalType": "uint256",
              "name": "expire",
              "type": "uint256"
            }
          ],
          "internalType": "struct DeQuora.Answer",
          "name": "",
          "type": "tuple"
        }
      ],
      "stateMutability": "view",
      "type": "function",
      "constant": true
    },
    {
      "inputs": [
        {
          "internalType": "uint256",
          "name": "_question_id",
          "type": "uint256"
        },
        {
          "internalType": "uint256",
          "name": "_answer_id",
          "type": "uint256"
        },
        {
          "components": [
            {
              "internalType": "uint256",
              "name": "id",
              "type": "uint256"
            },
            {
              "internalType": "uint256",
              "name": "question_id",
              "type": "uint256"
            },
            {
              "internalType": "uint256",
              "name": "NFT_id",
              "type": "uint256"
            },
            {
              "internalType": "string",
              "name": "answer",
              "type": "string"
            },
            {
              "internalType": "string",
              "name": "author_name",
              "type": "string"
            },
            {
              "internalType": "address",
              "name": "author_address",
              "type": "address"
            },
            {
              "internalType": "address",
              "name": "owner_address",
              "type": "address"
            },
            {
              "internalType": "uint256",
              "name": "likes",
              "type": "uint256"
            },
            {
              "internalType": "address[]",
              "name": "liked_by",
              "type": "address[]"
            },
            {
              "internalType": "uint256",
              "name": "created_on",
              "type": "uint256"
            },
            {
              "internalType": "uint256",
              "name": "bonus",
              "type": "uint256"
            },
            {
              "internalType": "address[]",
              "name": "support_by",
              "type": "address[]"
            },
            {
              "internalType": "uint256",
              "name": "expire",
              "type": "uint256"
            }
          ],
          "internalType": "struct DeQuora.Answer",
          "name": "_answer",
          "type": "tuple"
        }
      ],
      "name": "set_answer",
      "outputs": [
        {
          "components": [
            {
              "internalType": "uint256",
              "name": "id",
              "type": "uint256"
            },
            {
              "internalType": "string",
              "name": "question",
              "type": "string"
            },
            {
              "internalType": "string",
              "name": "author_name",
              "type": "string"
            },
            {
              "internalType": "address",
              "name": "author_address",
              "type": "address"
            },
            {
              "internalType": "address",
              "name": "owner_address",
              "type": "address"
            },
            {
              "internalType": "uint256",
              "name": "total_answers",
              "type": "uint256"
            },
            {
              "internalType": "uint256",
              "name": "likes",
              "type": "uint256"
            },
            {
              "internalType": "address[]",
              "name": "liked_by",
              "type": "address[]"
            },
            {
              "internalType": "uint256",
              "name": "created_on",
              "type": "uint256"
            },
            {
              "internalType": "uint256",
              "name": "bonus_pool",
              "type": "uint256"
            },
            {
              "internalType": "address[]",
              "name": "support_by",
              "type": "address[]"
            },
            {
              "internalType": "uint256",
              "name": "expire",
              "type": "uint256"
            }
          ],
          "internalType": "struct DeQuora.Question",
          "name": "",
          "type": "tuple"
        }
      ],
      "stateMutability": "nonpayable",
      "type": "function"
    },
    {
      "inputs": [
        {
          "internalType": "uint256",
          "name": "_question_id",
          "type": "uint256"
        },
        {
          "internalType": "uint256",
          "name": "_answer_id",
          "type": "uint256"
        },
        {
          "internalType": "address",
          "name": "_user_address",
          "type": "address"
        }
      ],
      "name": "like_answer",
      "outputs": [
        {
          "components": [
            {
              "internalType": "uint256",
              "name": "id",
              "type": "uint256"
            },
            {
              "internalType": "uint256",
              "name": "question_id",
              "type": "uint256"
            },
            {
              "internalType": "uint256",
              "name": "NFT_id",
              "type": "uint256"
            },
            {
              "internalType": "string",
              "name": "answer",
              "type": "string"
            },
            {
              "internalType": "string",
              "name": "author_name",
              "type": "string"
            },
            {
              "internalType": "address",
              "name": "author_address",
              "type": "address"
            },
            {
              "internalType": "address",
              "name": "owner_address",
              "type": "address"
            },
            {
              "internalType": "uint256",
              "name": "likes",
              "type": "uint256"
            },
            {
              "internalType": "address[]",
              "name": "liked_by",
              "type": "address[]"
            },
            {
              "internalType": "uint256",
              "name": "created_on",
              "type": "uint256"
            },
            {
              "internalType": "uint256",
              "name": "bonus",
              "type": "uint256"
            },
            {
              "internalType": "address[]",
              "name": "support_by",
              "type": "address[]"
            },
            {
              "internalType": "uint256",
              "name": "expire",
              "type": "uint256"
            }
          ],
          "internalType": "struct DeQuora.Answer",
          "name": "",
          "type": "tuple"
        }
      ],
      "stateMutability": "nonpayable",
      "type": "function"
    },
    {
      "inputs": [
        {
          "internalType": "uint256",
          "name": "_question_id",
          "type": "uint256"
        },
        {
          "internalType": "address",
          "name": "_user_address",
          "type": "address"
        }
      ],
      "name": "like_question",
      "outputs": [
        {
          "components": [
            {
              "internalType": "uint256",
              "name": "id",
              "type": "uint256"
            },
            {
              "internalType": "string",
              "name": "question",
              "type": "string"
            },
            {
              "internalType": "string",
              "name": "author_name",
              "type": "string"
            },
            {
              "internalType": "address",
              "name": "author_address",
              "type": "address"
            },
            {
              "internalType": "address",
              "name": "owner_address",
              "type": "address"
            },
            {
              "internalType": "uint256",
              "name": "total_answers",
              "type": "uint256"
            },
            {
              "internalType": "uint256",
              "name": "likes",
              "type": "uint256"
            },
            {
              "internalType": "address[]",
              "name": "liked_by",
              "type": "address[]"
            },
            {
              "internalType": "uint256",
              "name": "created_on",
              "type": "uint256"
            },
            {
              "internalType": "uint256",
              "name": "bonus_pool",
              "type": "uint256"
            },
            {
              "internalType": "address[]",
              "name": "support_by",
              "type": "address[]"
            },
            {
              "internalType": "uint256",
              "name": "expire",
              "type": "uint256"
            }
          ],
          "internalType": "struct DeQuora.Question",
          "name": "",
          "type": "tuple"
        }
      ],
      "stateMutability": "nonpayable",
      "type": "function"
    },
    {
      "inputs": [
        {
          "internalType": "uint256",
          "name": "_question_id",
          "type": "uint256"
        },
        {
          "internalType": "uint256",
          "name": "_answer_id",
          "type": "uint256"
        }
      ],
      "name": "tip_answer",
      "outputs": [],
      "stateMutability": "payable",
      "type": "function",
      "payable": true
    },
    {
      "inputs": [
        {
          "internalType": "uint256",
          "name": "_question_id",
          "type": "uint256"
        }
      ],
      "name": "tip_question",
      "outputs": [],
      "stateMutability": "payable",
      "type": "function",
      "payable": true
    }
  ],
  "bytecode": "0x608060405260006003553480156200001657600080fd5b50600060048190555060006005819055507f316a024183dffe386f9e64eeb7d2108a2f170f4c8708641f33f165f6dda8b9736040516200005690620000c5565b60405180910390a1620000e7565b600082825260208201905092915050565b7f4d61696e206973206465706c6f79656400000000000000000000000000000000600082015250565b6000620000ad60108362000064565b9150620000ba8262000075565b602082019050919050565b60006020820190508181036000830152620000e0816200009e565b9050919050565b6155f680620000f76000396000f3fe60806040526004361061014b5760003560e01c806370a08231116100b6578063df16b7ab1161006f578063df16b7ab14610503578063e68ca4a414610533578063e7cc62bd1461054f578063edc91ed91461057a578063fd93d2e3146105b7578063ff30ae0c146105e25761014b565b806370a08231146103cc578063a87430ba14610409578063a9059cbb14610449578063b2e6ceeb14610472578063c84ccaef1461049b578063d2965f04146104c65761014b565b806348e8158a1161010857806348e8158a146102995780634ee1d752146102c95780635fe1fc0c146103065780636352211e146103435780636411ad3814610380578063676c98811461039c5761014b565b8063095ea7b3146101505780631f8ae1f5146101795780632401519c146101a257806330de4984146101e957806331b1b97814610214578063403aa93b1461025a575b600080fd5b34801561015c57600080fd5b5061017760048036038101906101729190613d51565b61061f565b005b34801561018557600080fd5b506101a0600480360381019061019b919061413b565b610623565b005b3480156101ae57600080fd5b506101c960048036038101906101c49190614197565b6107e2565b6040516101e09b9a9998979695949392919061427d565b60405180910390f35b3480156101f557600080fd5b506101fe6109a9565b60405161020b9190614628565b60405180910390f35b34801561022057600080fd5b5061023b6004803603810190610236919061464a565b610d31565b6040516102519a99989796959493929190614677565b60405180910390f35b34801561026657600080fd5b50610281600480360381019061027c919061464a565b610ee5565b60405161029093929190614b8a565b60405180910390f35b6102b360048036038101906102ae9190614bd6565b6118b7565b6040516102c09190614c1f565b60405180910390f35b3480156102d557600080fd5b506102f060048036038101906102eb9190614c41565b611b98565b6040516102fd9190614dc2565b60405180910390f35b34801561031257600080fd5b5061032d60048036038101906103289190614f8c565b611d3a565b60405161033a9190614ffb565b60405180910390f35b34801561034f57600080fd5b5061036a6004803603810190610365919061464a565b611f46565b604051610377919061501d565b60405180910390f35b61039a60048036038101906103959190614197565b611f4d565b005b6103b660048036038101906103b19190614bd6565b612063565b6040516103c39190614ffb565b60405180910390f35b3480156103d857600080fd5b506103f360048036038101906103ee9190615038565b6124fe565b6040516104009190615065565b60405180910390f35b34801561041557600080fd5b50610430600480360381019061042b9190615038565b612546565b6040516104409493929190615080565b60405180910390f35b34801561045557600080fd5b50610470600480360381019061046b9190613d51565b61261e565b005b34801561047e57600080fd5b506104996004803603810190610494919061464a565b612622565b005b3480156104a757600080fd5b506104b0612625565b6040516104bd9190615065565b60405180910390f35b3480156104d257600080fd5b506104ed60048036038101906104e89190615038565b61262b565b6040516104fa9190614c1f565b60405180910390f35b61051d600480360381019061051891906150cc565b61288e565b60405161052a9190614dc2565b60405180910390f35b61054d6004803603810190610548919061464a565b61300a565b005b34801561055b57600080fd5b50610564613054565b6040516105719190615065565b60405180910390f35b34801561058657600080fd5b506105a1600480360381019061059c9190615128565b61305a565b6040516105ae9190614ffb565b60405180910390f35b3480156105c357600080fd5b506105cc6131bf565b6040516105d99190615065565b60405180910390f35b3480156105ee57600080fd5b5061060960048036038101906106049190614197565b6131c5565b6040516106169190614dc2565b60405180910390f35b5050565b60005b6005548110156107dd57816008828154811061064557610644615168565b5b90600052602060002090600c02016000015414156107ca57826008828154811061067257610671615168565b5b90600052602060002090600c02016000820151816000015560208201518160010190805190602001906106a69291906135c4565b5060408201518160020190805190602001906106c39291906135c4565b5060608201518160030160006101000a81548173ffffffffffffffffffffffffffffffffffffffff021916908373ffffffffffffffffffffffffffffffffffffffff16021790555060808201518160040160006101000a81548173ffffffffffffffffffffffffffffffffffffffff021916908373ffffffffffffffffffffffffffffffffffffffff16021790555060a0820151816005015560c0820151816006015560e082015181600701908051906020019061078292919061364a565b506101008201518160080155610120820151816009015561014082015181600a0190805190602001906107b692919061364a565b5061016082015181600b01559050506107dd565b80806107d5906151c6565b915050610626565b505050565b600760205281600052604060002081815481106107fe57600080fd5b90600052602060002090600d0201600091509150508060000154908060010154908060020154908060030180546108349061523e565b80601f01602080910402602001604051908101604052809291908181526020018280546108609061523e565b80156108ad5780601f10610882576101008083540402835291602001916108ad565b820191906000526020600020905b81548152906001019060200180831161089057829003601f168201915b5050505050908060040180546108c29061523e565b80601f01602080910402602001604051908101604052809291908181526020018280546108ee9061523e565b801561093b5780601f106109105761010080835404028352916020019161093b565b820191906000526020600020905b81548152906001019060200180831161091e57829003601f168201915b5050505050908060050160009054906101000a900473ffffffffffffffffffffffffffffffffffffffff16908060060160009054906101000a900473ffffffffffffffffffffffffffffffffffffffff169080600701549080600901549080600a01549080600c015490508b565b60606008805480602002602001604051908101604052809291908181526020016000905b82821015610d2857838290600052602060002090600c02016040518061018001604052908160008201548152602001600182018054610a0b9061523e565b80601f0160208091040260200160405190810160405280929190818152602001828054610a379061523e565b8015610a845780601f10610a5957610100808354040283529160200191610a84565b820191906000526020600020905b815481529060010190602001808311610a6757829003601f168201915b50505050508152602001600282018054610a9d9061523e565b80601f0160208091040260200160405190810160405280929190818152602001828054610ac99061523e565b8015610b165780601f10610aeb57610100808354040283529160200191610b16565b820191906000526020600020905b815481529060010190602001808311610af957829003601f168201915b505050505081526020016003820160009054906101000a900473ffffffffffffffffffffffffffffffffffffffff1673ffffffffffffffffffffffffffffffffffffffff1673ffffffffffffffffffffffffffffffffffffffff1681526020016004820160009054906101000a900473ffffffffffffffffffffffffffffffffffffffff1673ffffffffffffffffffffffffffffffffffffffff1673ffffffffffffffffffffffffffffffffffffffff168152602001600582015481526020016006820154815260200160078201805480602002602001604051908101604052809291908181526020018280548015610c6457602002820191906000526020600020905b8160009054906101000a900473ffffffffffffffffffffffffffffffffffffffff1673ffffffffffffffffffffffffffffffffffffffff1681526020019060010190808311610c1a575b505050505081526020016008820154815260200160098201548152602001600a8201805480602002602001604051908101604052809291908181526020018280548015610d0657602002820191906000526020600020905b8160009054906101000a900473ffffffffffffffffffffffffffffffffffffffff1673ffffffffffffffffffffffffffffffffffffffff1681526020019060010190808311610cbc575b50505050508152602001600b82015481525050815260200190600101906109cd565b50505050905090565b60088181548110610d4157600080fd5b90600052602060002090600c0201600091509050806000015490806001018054610d6a9061523e565b80601f0160208091040260200160405190810160405280929190818152602001828054610d969061523e565b8015610de35780601f10610db857610100808354040283529160200191610de3565b820191906000526020600020905b815481529060010190602001808311610dc657829003601f168201915b505050505090806002018054610df89061523e565b80601f0160208091040260200160405190810160405280929190818152602001828054610e249061523e565b8015610e715780601f10610e4657610100808354040283529160200191610e71565b820191906000526020600020905b815481529060010190602001808311610e5457829003601f168201915b5050505050908060030160009054906101000a900473ffffffffffffffffffffffffffffffffffffffff16908060040160009054906101000a900473ffffffffffffffffffffffffffffffffffffffff169080600501549080600601549080600801549080600901549080600b015490508a565b610eed6136d4565b6060610ef7613761565b610eff6136d4565b60005b6005548110156112a9578560088281548110610f2157610f20615168565b5b90600052602060002090600c02016000015414156112965760088181548110610f4d57610f4c615168565b5b90600052602060002090600c02016040518061018001604052908160008201548152602001600182018054610f819061523e565b80601f0160208091040260200160405190810160405280929190818152602001828054610fad9061523e565b8015610ffa5780601f10610fcf57610100808354040283529160200191610ffa565b820191906000526020600020905b815481529060010190602001808311610fdd57829003601f168201915b505050505081526020016002820180546110139061523e565b80601f016020809104026020016040519081016040528092919081815260200182805461103f9061523e565b801561108c5780601f106110615761010080835404028352916020019161108c565b820191906000526020600020905b81548152906001019060200180831161106f57829003601f168201915b505050505081526020016003820160009054906101000a900473ffffffffffffffffffffffffffffffffffffffff1673ffffffffffffffffffffffffffffffffffffffff1673ffffffffffffffffffffffffffffffffffffffff1681526020016004820160009054906101000a900473ffffffffffffffffffffffffffffffffffffffff1673ffffffffffffffffffffffffffffffffffffffff1673ffffffffffffffffffffffffffffffffffffffff1681526020016005820154815260200160068201548152602001600782018054806020026020016040519081016040528092919081815260200182805480156111da57602002820191906000526020600020905b8160009054906101000a900473ffffffffffffffffffffffffffffffffffffffff1673ffffffffffffffffffffffffffffffffffffffff1681526020019060010190808311611190575b505050505081526020016008820154815260200160098201548152602001600a820180548060200260200160405190810160405280929190818152602001828054801561127c57602002820191906000526020600020905b8160009054906101000a900473ffffffffffffffffffffffffffffffffffffffff1673ffffffffffffffffffffffffffffffffffffffff1681526020019060010190808311611232575b50505050508152602001600b8201548152505091506112a9565b80806112a1906151c6565b915050610f02565b50600060066000836060015173ffffffffffffffffffffffffffffffffffffffff1673ffffffffffffffffffffffffffffffffffffffff1681526020019081526020016000206040518060e0016040529081600082015481526020016001820160009054906101000a900473ffffffffffffffffffffffffffffffffffffffff1673ffffffffffffffffffffffffffffffffffffffff1673ffffffffffffffffffffffffffffffffffffffff16815260200160028201805461136a9061523e565b80601f01602080910402602001604051908101604052809291908181526020018280546113969061523e565b80156113e35780601f106113b8576101008083540402835291602001916113e3565b820191906000526020600020905b8154815290600101906020018083116113c657829003601f168201915b505050505081526020016003820180548060200260200160405190810160405280929190818152602001828054801561143b57602002820191906000526020600020905b815481526020019060010190808311611427575b505050505081526020016004820180548060200260200160405190810160405280929190818152602001828054801561149357602002820191906000526020600020905b81548152602001906001019080831161147f575b50505050508152602001600582018054806020026020016040519081016040528092919081815260200182805480156114eb57602002820191906000526020600020905b8154815260200190600101908083116114d7575b50505050508152602001600682015481525050905060006007600084600001518152602001908152602001600020805480602002602001604051908101604052809291908181526020016000905b8282101561189e57838290600052602060002090600d0201604051806101a001604052908160008201548152602001600182015481526020016002820154815260200160038201805461158b9061523e565b80601f01602080910402602001604051908101604052809291908181526020018280546115b79061523e565b80156116045780601f106115d957610100808354040283529160200191611604565b820191906000526020600020905b8154815290600101906020018083116115e757829003601f168201915b5050505050815260200160048201805461161d9061523e565b80601f01602080910402602001604051908101604052809291908181526020018280546116499061523e565b80156116965780601f1061166b57610100808354040283529160200191611696565b820191906000526020600020905b81548152906001019060200180831161167957829003601f168201915b505050505081526020016005820160009054906101000a900473ffffffffffffffffffffffffffffffffffffffff1673ffffffffffffffffffffffffffffffffffffffff1673ffffffffffffffffffffffffffffffffffffffff1681526020016006820160009054906101000a900473ffffffffffffffffffffffffffffffffffffffff1673ffffffffffffffffffffffffffffffffffffffff1673ffffffffffffffffffffffffffffffffffffffff16815260200160078201548152602001600882018054806020026020016040519081016040528092919081815260200182805480156117da57602002820191906000526020600020905b8160009054906101000a900473ffffffffffffffffffffffffffffffffffffffff1673ffffffffffffffffffffffffffffffffffffffff1681526020019060010190808311611790575b5050505050815260200160098201548152602001600a8201548152602001600b820180548060200260200160405190810160405280929190818152602001828054801561187c57602002820191906000526020600020905b8160009054906101000a900473ffffffffffffffffffffffffffffffffffffffff1673ffffffffffffffffffffffffffffffffffffffff1681526020019060010190808311611832575b50505050508152602001600c8201548152505081526020019060010190611539565b5050505090508281839550955095505050509193909250565b6118bf613761565b600082511415611904576040517f08c379a00000000000000000000000000000000000000000000000000000000081526004016118fb906152bc565b60405180910390fd5b60006040518060e0016040528060045481526020013373ffffffffffffffffffffffffffffffffffffffff168152602001848152602001600067ffffffffffffffff81111561195657611955613da7565b5b6040519080825280602002602001820160405280156119845781602001602082028036833780820191505090505b508152602001600067ffffffffffffffff8111156119a5576119a4613da7565b5b6040519080825280602002602001820160405280156119d35781602001602082028036833780820191505090505b508152602001600067ffffffffffffffff8111156119f4576119f3613da7565b5b604051908082528060200260200182016040528015611a225781602001602082028036833780820191505090505b50815260200142815250905080600660003373ffffffffffffffffffffffffffffffffffffffff1673ffffffffffffffffffffffffffffffffffffffff1681526020019081526020016000206000820151816000015560208201518160010160006101000a81548173ffffffffffffffffffffffffffffffffffffffff021916908373ffffffffffffffffffffffffffffffffffffffff1602179055506040820151816002019080519060200190611adb9291906135c4565b506060820151816003019080519060200190611af89291906137b4565b506080820151816004019080519060200190611b159291906137b4565b5060a0820151816005019080519060200190611b329291906137b4565b5060c0820151816006015590505060046000815480929190611b53906151c6565b91905055507f35ce3ccc4e4d8114f3dcd288e157c011f700e316ff61ce9a81c2926eba963a0e81604051611b879190614c1f565b60405180910390a180915050919050565b611ba0613801565b6000611bab85610ee5565b505090506000611bbb86866131c5565b905060005b81610100015151811015611c6f578473ffffffffffffffffffffffffffffffffffffffff168261010001518281518110611bfd57611bfc615168565b5b602002602001015173ffffffffffffffffffffffffffffffffffffffff161415611c5c576040517f08c379a0000000000000000000000000000000000000000000000000000000008152600401611c539061534e565b60405180910390fd5b8080611c67906151c6565b915050611bc0565b50838161010001518260e0015181518110611c8d57611c8c615168565b5b602002602001019073ffffffffffffffffffffffffffffffffffffffff16908173ffffffffffffffffffffffffffffffffffffffff16815250508060e0018051809190611cd9906151c6565b8152505062278d008261016001818151611cf3919061536e565b9150818152505062278d008161018001818151611d10919061536e565b91508181525050611d22868683611d3a565b9150611d2e8287610623565b80925050509392505050565b611d426136d4565b6000611d4d85610ee5565b5050905060005b8160a00151811015611f3a5784600760008881526020019081526020016000208281548110611d8657611d85615168565b5b90600052602060002090600d0201600001541415611f275783600760008881526020019081526020016000208281548110611dc457611dc3615168565b5b90600052602060002090600d02016000820151816000015560208201518160010155604082015181600201556060820151816003019080519060200190611e0c9291906135c4565b506080820151816004019080519060200190611e299291906135c4565b5060a08201518160050160006101000a81548173ffffffffffffffffffffffffffffffffffffffff021916908373ffffffffffffffffffffffffffffffffffffffff16021790555060c08201518160060160006101000a81548173ffffffffffffffffffffffffffffffffffffffff021916908373ffffffffffffffffffffffffffffffffffffffff16021790555060e08201518160070155610100820151816008019080519060200190611edf92919061364a565b50610120820151816009015561014082015181600a015561016082015181600b019080519060200190611f1392919061364a565b5061018082015181600c0155905050611f3a565b8080611f32906151c6565b915050611d54565b50809150509392505050565b6000919050565b6000611f5883610ee5565b505090506000611f6884846131c5565b905060008160a0015190508073ffffffffffffffffffffffffffffffffffffffff166108fc349081150290604051600060405180830381858888f19350505050158015611fb9573d6000803e3d6000fd5b50348261014001818151611fcd919061536e565b9150818152505062278d008361016001818151611fea919061536e565b9150818152505062278d008261018001818151612007919061536e565b91508181525050612019858584611d3a565b92506120258386610623565b7ffaeed9db3bf38f90b2323fc6d8e9ef9f327d6ec2b45f51d01f2282559f723918826040516120549190614dc2565b60405180910390a15050505050565b61206b6136d4565b6000825114156120b0576040517f08c379a00000000000000000000000000000000000000000000000000000000081526004016120a790615410565b60405180910390fd5b60006040518061018001604052806005548152602001848152602001600660003373ffffffffffffffffffffffffffffffffffffffff1673ffffffffffffffffffffffffffffffffffffffff16815260200190815260200160002060020180546121199061523e565b80601f01602080910402602001604051908101604052809291908181526020018280546121459061523e565b80156121925780601f1061216757610100808354040283529160200191612192565b820191906000526020600020905b81548152906001019060200180831161217557829003601f168201915b505050505081526020013373ffffffffffffffffffffffffffffffffffffffff1681526020013373ffffffffffffffffffffffffffffffffffffffff1681526020016000815260200160008152602001600067ffffffffffffffff8111156121fd576121fc613da7565b5b60405190808252806020026020018201604052801561222b5781602001602082028036833780820191505090505b50815260200142815260200160008152602001600067ffffffffffffffff81111561225957612258613da7565b5b6040519080825280602002602001820160405280156122875781602001602082028036833780820191505090505b50815260200162278d004261229c919061536e565b815250905060088190806001815401808255809150506001900390600052602060002090600c02016000909190919091506000820151816000015560208201518160010190805190602001906122f39291906135c4565b5060408201518160020190805190602001906123109291906135c4565b5060608201518160030160006101000a81548173ffffffffffffffffffffffffffffffffffffffff021916908373ffffffffffffffffffffffffffffffffffffffff16021790555060808201518160040160006101000a81548173ffffffffffffffffffffffffffffffffffffffff021916908373ffffffffffffffffffffffffffffffffffffffff16021790555060a0820151816005015560c0820151816006015560e08201518160070190805190602001906123cf92919061364a565b506101008201518160080155610120820151816009015561014082015181600a01908051906020019061240392919061364a565b5061016082015181600b0155505060056000815480929190612424906151c6565b919050555060096007600083600001518152602001908152602001600020908054612450929190613895565b50600660003373ffffffffffffffffffffffffffffffffffffffff1673ffffffffffffffffffffffffffffffffffffffff168152602001908152602001600020600301816000015190806001815401808255809150506001900390600052602060002001600090919091909150557f5fded981c983dc58ebfd471713357642f524c529a0150aa917059c904905a9e1816040516124ed9190614ffb565b60405180910390a180915050919050565b60008060008373ffffffffffffffffffffffffffffffffffffffff1673ffffffffffffffffffffffffffffffffffffffff168152602001908152602001600020549050919050565b60066020528060005260406000206000915090508060000154908060010160009054906101000a900473ffffffffffffffffffffffffffffffffffffffff16908060020180546125959061523e565b80601f01602080910402602001604051908101604052809291908181526020018280546125c19061523e565b801561260e5780601f106125e35761010080835404028352916020019161260e565b820191906000526020600020905b8154815290600101906020018083116125f157829003601f168201915b5050505050908060060154905084565b5050565b50565b60055481565b612633613761565b6000600660008473ffffffffffffffffffffffffffffffffffffffff1673ffffffffffffffffffffffffffffffffffffffff1681526020019081526020016000206040518060e0016040529081600082015481526020016001820160009054906101000a900473ffffffffffffffffffffffffffffffffffffffff1673ffffffffffffffffffffffffffffffffffffffff1673ffffffffffffffffffffffffffffffffffffffff1681526020016002820180546126ef9061523e565b80601f016020809104026020016040519081016040528092919081815260200182805461271b9061523e565b80156127685780601f1061273d57610100808354040283529160200191612768565b820191906000526020600020905b81548152906001019060200180831161274b57829003601f168201915b50505050508152602001600382018054806020026020016040519081016040528092919081815260200182805480156127c057602002820191906000526020600020905b8154815260200190600101908083116127ac575b505050505081526020016004820180548060200260200160405190810160405280929190818152602001828054801561281857602002820191906000526020600020905b815481526020019060010190808311612804575b505050505081526020016005820180548060200260200160405190810160405280929190818152602001828054801561287057602002820191906000526020600020905b81548152602001906001019080831161285c575b50505050508152602001600682015481525050905080915050919050565b612896613801565b6000825114156128db576040517f08c379a00000000000000000000000000000000000000000000000000000000081526004016128d29061547c565b60405180910390fd5b60006128e684610ee5565b505090503373ffffffffffffffffffffffffffffffffffffffff16816060015173ffffffffffffffffffffffffffffffffffffffff16141561295d576040517f08c379a00000000000000000000000000000000000000000000000000000000081526004016129549061550e565b60405180910390fd5b6000604051806101a001604052808360a0015181526020018681526020016003548152602001858152602001600660003373ffffffffffffffffffffffffffffffffffffffff1673ffffffffffffffffffffffffffffffffffffffff16815260200190815260200160002060020180546129d69061523e565b80601f0160208091040260200160405190810160405280929190818152602001828054612a029061523e565b8015612a4f5780601f10612a2457610100808354040283529160200191612a4f565b820191906000526020600020905b815481529060010190602001808311612a3257829003601f168201915b505050505081526020013373ffffffffffffffffffffffffffffffffffffffff1681526020013373ffffffffffffffffffffffffffffffffffffffff16815260200160008152602001600067ffffffffffffffff811115612ab357612ab2613da7565b5b604051908082528060200260200182016040528015612ae15781602001602082028036833780820191505090505b50815260200142815260200160008152602001600067ffffffffffffffff811115612b0f57612b0e613da7565b5b604051908082528060200260200182016040528015612b3d5781602001602082028036833780820191505090505b50815260200162278d0042612b52919061536e565b8152509050600760008681526020019081526020016000208190806001815401808255809150506001900390600052602060002090600d02016000909190919091506000820151816000015560208201518160010155604082015181600201556060820151816003019080519060200190612bce9291906135c4565b506080820151816004019080519060200190612beb9291906135c4565b5060a08201518160050160006101000a81548173ffffffffffffffffffffffffffffffffffffffff021916908373ffffffffffffffffffffffffffffffffffffffff16021790555060c08201518160060160006101000a81548173ffffffffffffffffffffffffffffffffffffffff021916908373ffffffffffffffffffffffffffffffffffffffff16021790555060e08201518160070155610100820151816008019080519060200190612ca192919061364a565b50610120820151816009015561014082015181600a015561016082015181600b019080519060200190612cd592919061364a565b5061018082015181600c015550508160a0018051809190612cf5906151c6565b81525050600660003373ffffffffffffffffffffffffffffffffffffffff1673ffffffffffffffffffffffffffffffffffffffff168152602001908152602001600020600401859080600181540180825580915050600190039060005260206000200160009091909190915055600660003373ffffffffffffffffffffffffffffffffffffffff1673ffffffffffffffffffffffffffffffffffffffff16815260200190815260200160002060050181600001519080600181540180825580915050600190039060005260206000200160009091909190915055612dd98286610623565b806002600060035481526020019081526020016000206000820151816000015560208201518160010155604082015181600201556060820151816003019080519060200190612e299291906135c4565b506080820151816004019080519060200190612e469291906135c4565b5060a08201518160050160006101000a81548173ffffffffffffffffffffffffffffffffffffffff021916908373ffffffffffffffffffffffffffffffffffffffff16021790555060c08201518160060160006101000a81548173ffffffffffffffffffffffffffffffffffffffff021916908373ffffffffffffffffffffffffffffffffffffffff16021790555060e08201518160070155610100820151816008019080519060200190612efc92919061364a565b50610120820151816009015561014082015181600a015561016082015181600b019080519060200190612f3092919061364a565b5061018082015181600c01559050503360016000600354815260200190815260200160002060006101000a81548173ffffffffffffffffffffffffffffffffffffffff021916908373ffffffffffffffffffffffffffffffffffffffff1602179055506000803373ffffffffffffffffffffffffffffffffffffffff1673ffffffffffffffffffffffffffffffffffffffff1681526020019081526020016000206000815480929190612fe2906151c6565b919050555060036000815480929190612ffa906151c6565b9190505550809250505092915050565b600061301582610ee5565b505090507fe2fcf83bcc8e103341bbc6fc68517eb3696b3dca03e6cc2cdf1c5dd50ce8f018816040516130489190614ffb565b60405180910390a15050565b60045481565b6130626136d4565b600061306d84610ee5565b5050905060005b8160e0015151811015613121578373ffffffffffffffffffffffffffffffffffffffff168260e0015182815181106130af576130ae615168565b5b602002602001015173ffffffffffffffffffffffffffffffffffffffff16141561310e576040517f08c379a0000000000000000000000000000000000000000000000000000000008152600401613105906155a0565b60405180910390fd5b8080613119906151c6565b915050613074565b50828160e001518260c001518151811061313e5761313d615168565b5b602002602001019073ffffffffffffffffffffffffffffffffffffffff16908173ffffffffffffffffffffffffffffffffffffffff16815250508060c001805180919061318a906151c6565b8152505062278d0081610160018181516131a4919061536e565b915081815250506131b58185610623565b8091505092915050565b60035481565b6131cd613801565b60006131d884610ee5565b505090506131e4613801565b60005b8260a001518110156135b8578460076000888152602001908152602001600020828154811061321957613218615168565b5b90600052602060002090600d02016000015414156135a55760076000878152602001908152602001600020818154811061325657613255615168565b5b90600052602060002090600d0201604051806101a001604052908160008201548152602001600182015481526020016002820154815260200160038201805461329e9061523e565b80601f01602080910402602001604051908101604052809291908181526020018280546132ca9061523e565b80156133175780601f106132ec57610100808354040283529160200191613317565b820191906000526020600020905b8154815290600101906020018083116132fa57829003601f168201915b505050505081526020016004820180546133309061523e565b80601f016020809104026020016040519081016040528092919081815260200182805461335c9061523e565b80156133a95780601f1061337e576101008083540402835291602001916133a9565b820191906000526020600020905b81548152906001019060200180831161338c57829003601f168201915b505050505081526020016005820160009054906101000a900473ffffffffffffffffffffffffffffffffffffffff1673ffffffffffffffffffffffffffffffffffffffff1673ffffffffffffffffffffffffffffffffffffffff1681526020016006820160009054906101000a900473ffffffffffffffffffffffffffffffffffffffff1673ffffffffffffffffffffffffffffffffffffffff1673ffffffffffffffffffffffffffffffffffffffff16815260200160078201548152602001600882018054806020026020016040519081016040528092919081815260200182805480156134ed57602002820191906000526020600020905b8160009054906101000a900473ffffffffffffffffffffffffffffffffffffffff1673ffffffffffffffffffffffffffffffffffffffff16815260200190600101908083116134a3575b5050505050815260200160098201548152602001600a8201548152602001600b820180548060200260200160405190810160405280929190818152602001828054801561358f57602002820191906000526020600020905b8160009054906101000a900473ffffffffffffffffffffffffffffffffffffffff1673ffffffffffffffffffffffffffffffffffffffff1681526020019060010190808311613545575b50505050508152602001600c8201548152505091505b80806135b0906151c6565b9150506131e7565b50809250505092915050565b8280546135d09061523e565b90600052602060002090601f0160209004810192826135f25760008555613639565b82601f1061360b57805160ff1916838001178555613639565b82800160010185558215613639579182015b8281111561363857825182559160200191906001019061361d565b5b5090506136469190613a6f565b5090565b8280548282559060005260206000209081019282156136c3579160200282015b828111156136c25782518260006101000a81548173ffffffffffffffffffffffffffffffffffffffff021916908373ffffffffffffffffffffffffffffffffffffffff1602179055509160200191906001019061366a565b5b5090506136d09190613a6f565b5090565b604051806101800160405280600081526020016060815260200160608152602001600073ffffffffffffffffffffffffffffffffffffffff168152602001600073ffffffffffffffffffffffffffffffffffffffff168152602001600081526020016000815260200160608152602001600081526020016000815260200160608152602001600081525090565b6040518060e0016040528060008152602001600073ffffffffffffffffffffffffffffffffffffffff16815260200160608152602001606081526020016060815260200160608152602001600081525090565b8280548282559060005260206000209081019282156137f0579160200282015b828111156137ef5782518255916020019190600101906137d4565b5b5090506137fd9190613a6f565b5090565b604051806101a001604052806000815260200160008152602001600081526020016060815260200160608152602001600073ffffffffffffffffffffffffffffffffffffffff168152602001600073ffffffffffffffffffffffffffffffffffffffff1681526020016000815260200160608152602001600081526020016000815260200160608152602001600081525090565b82805482825590600052602060002090600d028101928215613a5e57600052602060002091600d0282015b82811115613a5d57828260008201548160000155600182015481600101556002820154816002015560038201816003019080546138fc9061523e565b613907929190613a8c565b50600482018160040190805461391c9061523e565b613927929190613a8c565b506005820160009054906101000a900473ffffffffffffffffffffffffffffffffffffffff168160050160006101000a81548173ffffffffffffffffffffffffffffffffffffffff021916908373ffffffffffffffffffffffffffffffffffffffff1602179055506006820160009054906101000a900473ffffffffffffffffffffffffffffffffffffffff168160060160006101000a81548173ffffffffffffffffffffffffffffffffffffffff021916908373ffffffffffffffffffffffffffffffffffffffff160217905550600782015481600701556008820181600801908054613a16929190613b19565b5060098201548160090155600a82015481600a0155600b820181600b01908054613a41929190613b19565b50600c82015481600c0155505091600d019190600d01906138c0565b5b509050613a6b9190613b6b565b5090565b5b80821115613a88576000816000905550600101613a70565b5090565b828054613a989061523e565b90600052602060002090601f016020900481019282613aba5760008555613b08565b82601f10613acb5780548555613b08565b82800160010185558215613b0857600052602060002091601f016020900482015b82811115613b07578254825591600101919060010190613aec565b5b509050613b159190613a6f565b5090565b828054828255906000526020600020908101928215613b5a5760005260206000209182015b82811115613b59578254825591600101919060010190613b3e565b5b509050613b679190613a6f565b5090565b5b80821115613c445760008082016000905560018201600090556002820160009055600382016000613b9d9190613c48565b600482016000613bad9190613c48565b6005820160006101000a81549073ffffffffffffffffffffffffffffffffffffffff02191690556006820160006101000a81549073ffffffffffffffffffffffffffffffffffffffff02191690556007820160009055600882016000613c139190613c88565b6009820160009055600a820160009055600b82016000613c339190613c88565b600c82016000905550600d01613b6c565b5090565b508054613c549061523e565b6000825580601f10613c665750613c85565b601f016020900490600052602060002090810190613c849190613a6f565b5b50565b5080546000825590600052602060002090810190613ca69190613a6f565b50565b6000604051905090565b600080fd5b600080fd5b600073ffffffffffffffffffffffffffffffffffffffff82169050919050565b6000613ce882613cbd565b9050919050565b613cf881613cdd565b8114613d0357600080fd5b50565b600081359050613d1581613cef565b92915050565b6000819050919050565b613d2e81613d1b565b8114613d3957600080fd5b50565b600081359050613d4b81613d25565b92915050565b60008060408385031215613d6857613d67613cb3565b5b6000613d7685828601613d06565b9250506020613d8785828601613d3c565b9150509250929050565b600080fd5b6000601f19601f8301169050919050565b7f4e487b7100000000000000000000000000000000000000000000000000000000600052604160045260246000fd5b613ddf82613d96565b810181811067ffffffffffffffff82111715613dfe57613dfd613da7565b5b80604052505050565b6000613e11613ca9565b9050613e1d8282613dd6565b919050565b600080fd5b600080fd5b600080fd5b600067ffffffffffffffff821115613e4c57613e4b613da7565b5b613e5582613d96565b9050602081019050919050565b82818337600083830152505050565b6000613e84613e7f84613e31565b613e07565b905082815260208101848484011115613ea057613e9f613e2c565b5b613eab848285613e62565b509392505050565b600082601f830112613ec857613ec7613e27565b5b8135613ed8848260208601613e71565b91505092915050565b600067ffffffffffffffff821115613efc57613efb613da7565b5b602082029050602081019050919050565b600080fd5b6000613f25613f2084613ee1565b613e07565b90508083825260208201905060208402830185811115613f4857613f47613f0d565b5b835b81811015613f715780613f5d8882613d06565b845260208401935050602081019050613f4a565b5050509392505050565b600082601f830112613f9057613f8f613e27565b5b8135613fa0848260208601613f12565b91505092915050565b60006101808284031215613fc057613fbf613d91565b5b613fcb610180613e07565b90506000613fdb84828501613d3c565b600083015250602082013567ffffffffffffffff811115613fff57613ffe613e22565b5b61400b84828501613eb3565b602083015250604082013567ffffffffffffffff81111561402f5761402e613e22565b5b61403b84828501613eb3565b604083015250606061404f84828501613d06565b606083015250608061406384828501613d06565b60808301525060a061407784828501613d3c565b60a08301525060c061408b84828501613d3c565b60c08301525060e082013567ffffffffffffffff8111156140af576140ae613e22565b5b6140bb84828501613f7b565b60e0830152506101006140d084828501613d3c565b610100830152506101206140e684828501613d3c565b6101208301525061014082013567ffffffffffffffff81111561410c5761410b613e22565b5b61411884828501613f7b565b6101408301525061016061412e84828501613d3c565b6101608301525092915050565b6000806040838503121561415257614151613cb3565b5b600083013567ffffffffffffffff8111156141705761416f613cb8565b5b61417c85828601613fa9565b925050602061418d85828601613d3c565b9150509250929050565b600080604083850312156141ae576141ad613cb3565b5b60006141bc85828601613d3c565b92505060206141cd85828601613d3c565b9150509250929050565b6141e081613d1b565b82525050565b600081519050919050565b600082825260208201905092915050565b60005b83811015614220578082015181840152602081019050614205565b8381111561422f576000848401525b50505050565b6000614240826141e6565b61424a81856141f1565b935061425a818560208601614202565b61426381613d96565b840191505092915050565b61427781613cdd565b82525050565b600061016082019050614293600083018e6141d7565b6142a0602083018d6141d7565b6142ad604083018c6141d7565b81810360608301526142bf818b614235565b905081810360808301526142d3818a614235565b90506142e260a083018961426e565b6142ef60c083018861426e565b6142fc60e08301876141d7565b61430a6101008301866141d7565b6143186101208301856141d7565b6143266101408301846141d7565b9c9b505050505050505050505050565b600081519050919050565b600082825260208201905092915050565b6000819050602082019050919050565b61436b81613d1b565b82525050565b600082825260208201905092915050565b600061438d826141e6565b6143978185614371565b93506143a7818560208601614202565b6143b081613d96565b840191505092915050565b6143c481613cdd565b82525050565b600081519050919050565b600082825260208201905092915050565b6000819050602082019050919050565b600061440283836143bb565b60208301905092915050565b6000602082019050919050565b6000614426826143ca565b61443081856143d5565b935061443b836143e6565b8060005b8381101561446c57815161445388826143f6565b975061445e8361440e565b92505060018101905061443f565b5085935050505092915050565b6000610180830160008301516144926000860182614362565b50602083015184820360208601526144aa8282614382565b915050604083015184820360408601526144c48282614382565b91505060608301516144d960608601826143bb565b5060808301516144ec60808601826143bb565b5060a08301516144ff60a0860182614362565b5060c083015161451260c0860182614362565b5060e083015184820360e086015261452a828261441b565b915050610100830151614541610100860182614362565b50610120830151614556610120860182614362565b50610140830151848203610140860152614570828261441b565b915050610160830151614587610160860182614362565b508091505092915050565b600061459e8383614479565b905092915050565b6000602082019050919050565b60006145be82614336565b6145c88185614341565b9350836020820285016145da85614352565b8060005b8581101561461657848403895281516145f78582614592565b9450614602836145a6565b925060208a019950506001810190506145de565b50829750879550505050505092915050565b6000602082019050818103600083015261464281846145b3565b905092915050565b6000602082840312156146605761465f613cb3565b5b600061466e84828501613d3c565b91505092915050565b60006101408201905061468d600083018d6141d7565b818103602083015261469f818c614235565b905081810360408301526146b3818b614235565b90506146c2606083018a61426e565b6146cf608083018961426e565b6146dc60a08301886141d7565b6146e960c08301876141d7565b6146f660e08301866141d7565b6147046101008301856141d7565b6147126101208301846141d7565b9b9a5050505050505050505050565b60006101808301600083015161473a6000860182614362565b50602083015184820360208601526147528282614382565b9150506040830151848203604086015261476c8282614382565b915050606083015161478160608601826143bb565b50608083015161479460808601826143bb565b5060a08301516147a760a0860182614362565b5060c08301516147ba60c0860182614362565b5060e083015184820360e08601526147d2828261441b565b9150506101008301516147e9610100860182614362565b506101208301516147fe610120860182614362565b50610140830151848203610140860152614818828261441b565b91505061016083015161482f610160860182614362565b508091505092915050565b600081519050919050565b600082825260208201905092915050565b6000819050602082019050919050565b60006101a08301600083015161487f6000860182614362565b5060208301516148926020860182614362565b5060408301516148a56040860182614362565b50606083015184820360608601526148bd8282614382565b915050608083015184820360808601526148d78282614382565b91505060a08301516148ec60a08601826143bb565b5060c08301516148ff60c08601826143bb565b5060e083015161491260e0860182614362565b5061010083015184820361010086015261492c828261441b565b915050610120830151614943610120860182614362565b50610140830151614958610140860182614362565b50610160830151848203610160860152614972828261441b565b915050610180830151614989610180860182614362565b508091505092915050565b60006149a08383614866565b905092915050565b6000602082019050919050565b60006149c08261483a565b6149ca8185614845565b9350836020820285016149dc85614856565b8060005b85811015614a1857848403895281516149f98582614994565b9450614a04836149a8565b925060208a019950506001810190506149e0565b50829750879550505050505092915050565b600081519050919050565b600082825260208201905092915050565b6000819050602082019050919050565b6000614a628383614362565b60208301905092915050565b6000602082019050919050565b6000614a8682614a2a565b614a908185614a35565b9350614a9b83614a46565b8060005b83811015614acc578151614ab38882614a56565b9750614abe83614a6e565b925050600181019050614a9f565b5085935050505092915050565b600060e083016000830151614af16000860182614362565b506020830151614b0460208601826143bb565b5060408301518482036040860152614b1c8282614382565b91505060608301518482036060860152614b368282614a7b565b91505060808301518482036080860152614b508282614a7b565b91505060a083015184820360a0860152614b6a8282614a7b565b91505060c0830151614b7f60c0860182614362565b508091505092915050565b60006060820190508181036000830152614ba48186614721565b90508181036020830152614bb881856149b5565b90508181036040830152614bcc8184614ad9565b9050949350505050565b600060208284031215614bec57614beb613cb3565b5b600082013567ffffffffffffffff811115614c0a57614c09613cb8565b5b614c1684828501613eb3565b91505092915050565b60006020820190508181036000830152614c398184614ad9565b905092915050565b600080600060608486031215614c5a57614c59613cb3565b5b6000614c6886828701613d3c565b9350506020614c7986828701613d3c565b9250506040614c8a86828701613d06565b9150509250925092565b60006101a083016000830151614cad6000860182614362565b506020830151614cc06020860182614362565b506040830151614cd36040860182614362565b5060608301518482036060860152614ceb8282614382565b91505060808301518482036080860152614d058282614382565b91505060a0830151614d1a60a08601826143bb565b5060c0830151614d2d60c08601826143bb565b5060e0830151614d4060e0860182614362565b50610100830151848203610100860152614d5a828261441b565b915050610120830151614d71610120860182614362565b50610140830151614d86610140860182614362565b50610160830151848203610160860152614da0828261441b565b915050610180830151614db7610180860182614362565b508091505092915050565b60006020820190508181036000830152614ddc8184614c94565b905092915050565b60006101a08284031215614dfb57614dfa613d91565b5b614e066101a0613e07565b90506000614e1684828501613d3c565b6000830152506020614e2a84828501613d3c565b6020830152506040614e3e84828501613d3c565b604083015250606082013567ffffffffffffffff811115614e6257614e61613e22565b5b614e6e84828501613eb3565b606083015250608082013567ffffffffffffffff811115614e9257614e91613e22565b5b614e9e84828501613eb3565b60808301525060a0614eb284828501613d06565b60a08301525060c0614ec684828501613d06565b60c08301525060e0614eda84828501613d3c565b60e08301525061010082013567ffffffffffffffff811115614eff57614efe613e22565b5b614f0b84828501613f7b565b61010083015250610120614f2184828501613d3c565b61012083015250610140614f3784828501613d3c565b6101408301525061016082013567ffffffffffffffff811115614f5d57614f5c613e22565b5b614f6984828501613f7b565b61016083015250610180614f7f84828501613d3c565b6101808301525092915050565b600080600060608486031215614fa557614fa4613cb3565b5b6000614fb386828701613d3c565b9350506020614fc486828701613d3c565b925050604084013567ffffffffffffffff811115614fe557614fe4613cb8565b5b614ff186828701614de4565b9150509250925092565b600060208201905081810360008301526150158184614721565b905092915050565b6000602082019050615032600083018461426e565b92915050565b60006020828403121561504e5761504d613cb3565b5b600061505c84828501613d06565b91505092915050565b600060208201905061507a60008301846141d7565b92915050565b600060808201905061509560008301876141d7565b6150a2602083018661426e565b81810360408301526150b48185614235565b90506150c360608301846141d7565b95945050505050565b600080604083850312156150e3576150e2613cb3565b5b60006150f185828601613d3c565b925050602083013567ffffffffffffffff81111561511257615111613cb8565b5b61511e85828601613eb3565b9150509250929050565b6000806040838503121561513f5761513e613cb3565b5b600061514d85828601613d3c565b925050602061515e85828601613d06565b9150509250929050565b7f4e487b7100000000000000000000000000000000000000000000000000000000600052603260045260246000fd5b7f4e487b7100000000000000000000000000000000000000000000000000000000600052601160045260246000fd5b60006151d182613d1b565b91507fffffffffffffffffffffffffffffffffffffffffffffffffffffffffffffffff82141561520457615203615197565b5b600182019050919050565b7f4e487b7100000000000000000000000000000000000000000000000000000000600052602260045260246000fd5b6000600282049050600182168061525657607f821691505b6020821081141561526a5761526961520f565b5b50919050565b7f557365726e616d65206973207265717569726564000000000000000000000000600082015250565b60006152a66014836141f1565b91506152b182615270565b602082019050919050565b600060208201905081810360008301526152d581615299565b9050919050565b7f596f75206861766520616c7265616479206c696b6564207468697320616e737760008201527f6572000000000000000000000000000000000000000000000000000000000000602082015250565b60006153386022836141f1565b9150615343826152dc565b604082019050919050565b600060208201905081810360008301526153678161532b565b9050919050565b600061537982613d1b565b915061538483613d1b565b9250827fffffffffffffffffffffffffffffffffffffffffffffffffffffffffffffffff038211156153b9576153b8615197565b5b828201905092915050565b7f5175657374696f6e2063616e6e6f7420626520656d7074790000000000000000600082015250565b60006153fa6018836141f1565b9150615405826153c4565b602082019050919050565b60006020820190508181036000830152615429816153ed565b9050919050565b7f416e737765722063616e6e6f7420626520656d70747900000000000000000000600082015250565b60006154666016836141f1565b915061547182615430565b602082019050919050565b6000602082019050818103600083015261549581615459565b9050919050565b7f417574686f722063616e6e6f7420616e73776572206869732f686572206f776e60008201527f207175657374696f6e0000000000000000000000000000000000000000000000602082015250565b60006154f86029836141f1565b91506155038261549c565b604082019050919050565b60006020820190508181036000830152615527816154eb565b9050919050565b7f596f75206861766520616c7265616479206c696b65642074686973207175657360008201527f74696f6e00000000000000000000000000000000000000000000000000000000602082015250565b600061558a6024836141f1565b91506155958261552e565b604082019050919050565b600060208201905081810360008301526155b98161557d565b905091905056fea264697066735822122076bc9dfaf9600fe0d4d55baf1f13a577d1594efbd3a0ab23cfc96409b63a480464736f6c634300080b0033",
  "immutableReferences": {},
  "source": "// SPDX-License-Identifier: MIT\npragma solidity >=0.4.22 <0.9.0;\nimport \"./erc721.sol\";\n\ncontract DeQuora is ERC721 {\n    /**\n     * @notice NFT\n     */\n\n    //NFT\n    mapping(address => uint256) private _balances;\n    mapping(uint256 => address) private _owners;\n    mapping(uint256 => Answer) private NFT_answers;\n    \n    uint256 public NFT_id_generator = 0; // global unique answer id\n\n\n    function balanceOf(\n        address _owner\n    ) public view override returns (uint256 _balance) {\n        // 1.  `_owner` NFT\n        return _balances[_owner];\n    }\n\n    function ownerOf(\n        uint256 _tokenId\n    ) public view override returns (address _owner) {\n        // 2.  `_tokenId` \n        \n    }\n\n    function transfer(address _to, uint256 _tokenId) public override {}\n\n    function approve(address _to, uint256 _tokenId) public override {}\n\n    function takeOwnership(uint256 _tokenId) public override {}\n\n    /**\n     * @notice for code refactoring and upgrading by Joshua\n     */\n    // enum ItemKind {\n    //     Question,\n    //     Answer\n    // }\n    // struct Item {\n    //     /// @notice what kind of item (post or comment)\n    //     ItemKind kind;\n    //     /// @notice Unique item id, assigned at creation time.\n    //     uint256 id;\n    //     /// @notice address of author.\n    //     address author;\n    //     /// @notice Id of parent item. Questions have parentId == 0.\n    //     uint256 parentId;\n    //     /// @notice block number when item was submitted\n    //     uint256 createdAtBlock;\n    //     /// @notice ids of all child items, with oldest items at front.\n    //     uint256[] childIds;\n    //     /// @notice IPFS CID o  f item content.\n    //     string contentCID;\n    // }\n\n    /**\n     * @notice \n     */\n\n    struct User {\n        uint256 id;\n        address account;\n        string name;\n        uint256[] questions;\n        uint256[] answered_questions;\n        uint256[] answers;\n        uint256 joined_on;\n    }\n\n    struct Question {\n        uint256 id;\n        string question;\n        string author_name;\n        address author_address;\n        address owner_address;\n        uint256 total_answers;\n        uint256 likes;\n        address[] liked_by;\n        uint256 created_on;\n        uint256 bonus_pool;\n        address[] support_by;\n        uint expire;\n    }\n\n    struct Answer {\n        uint256 id;\n        uint256 question_id;\n        uint256 NFT_id;\n        string answer;\n        string author_name;\n        address author_address;\n        address owner_address;\n        uint256 likes;\n        address[] liked_by;\n        uint256 created_on;\n        uint256 bonus;\n        address[] support_by;\n        uint256 expire;\n    }\n    // useless code\n    // struct QuestionAnswer {\n    //     Question question;\n    //     Answer[] answers;\n    // }\n\n    uint256 public total_users;\n    uint256 public total_questions; // question count\n    \n\n    mapping(address => User) public users;\n    mapping(uint256 => Answer[]) public answers; //question id to answers\n    Question[] public questions; // all questions\n    Answer[] answers_array;\n    event new_user_added(User);\n    event main_deployed(string);\n    event question_added(Question);\n    event answer_tipped(Answer);\n    event question_tipped(Question);\n\n    constructor() {\n        total_users = 0;\n        total_questions = 0;\n        emit main_deployed(\"Main is deployed\");\n    }\n\n    function create_user(\n        string memory _name\n    ) public payable returns (User memory) {\n        require(bytes(_name).length != 0, \"Username is required\");\n        User memory newUser = User(\n            total_users,\n            msg.sender,\n            _name,\n            new uint256[](0),\n            new uint256[](0),\n            new uint256[](0),\n            block.timestamp\n        );\n        users[msg.sender] = newUser;\n        total_users++;\n        emit new_user_added(newUser);\n        return newUser;\n    }\n\n    function get_user_details(\n        address _user_address\n    ) public view returns (User memory) {\n        User memory user = users[_user_address];\n        return user;\n    }\n\n    function add_question(\n        string memory _question\n    ) public payable returns (Question memory) {\n        require(bytes(_question).length != 0, \"Question cannot be empty\");\n        //Question\n        Question memory newQuestion = Question(\n            total_questions,\n            _question,\n            users[msg.sender].name,\n            msg.sender,\n            msg.sender,\n            0,\n            0,\n            new address[](0),\n            block.timestamp,\n            0,\n            new address[](0),\n            block.timestamp + 30 days\n        );\n        //questions\n        questions.push(newQuestion);\n        total_questions++;\n        //Answer\n        answers[newQuestion.id] = answers_array;\n        //\n        users[msg.sender].questions.push(newQuestion.id);\n\n        emit question_added(newQuestion);\n\n        return newQuestion;\n    }\n\n    function get_all_questions() public view returns (Question[] memory) {\n        return questions;\n    }\n\n    function get_question(\n        uint256 _question_id\n    ) public view returns (Question memory, Answer[] memory, User memory) {\n        Question memory question;\n\n        //iterate over all the questions\n        for (uint256 i = 0; i < total_questions; i++) {\n            // check for the question with the given id\n            if (questions[i].id == _question_id) {\n                //return the question with the given id, and corresponding author\n                question = questions[i];\n                break;\n            }\n        }\n        User memory _author = users[question.author_address];\n        Answer[] memory _answers = answers[question.id];\n        return (question, _answers, _author);\n    }\n\n    function set_question(\n        Question memory _question,\n        uint256 _question_id\n    ) public {\n        for (uint256 i = 0; i < total_questions; i++) {\n            if (questions[i].id == _question_id) {\n                questions[i] = _question;\n                break;\n            }\n        }\n    }\n\n    function add_answer(\n        uint256 _question_id,\n        string memory _answer\n    ) public payable returns (Answer memory) {\n        require(bytes(_answer).length != 0, \"Answer cannot be empty\");\n        (Question memory question, , ) = get_question(_question_id);\n        require(\n            question.author_address != msg.sender,\n            \"Author cannot answer his/her own question\"\n        );\n\n        Answer memory answer = Answer(\n            question.total_answers,\n            _question_id,\n            NFT_id_generator, // NFT token\n            _answer,\n            users[msg.sender].name,\n            msg.sender,\n            msg.sender,\n            0,\n            new address[](0),\n            block.timestamp,\n            0,\n            new address[](0),\n            block.timestamp + 30 days\n        );\n\n        answers[_question_id].push(answer);\n        question.total_answers++;\n\n        users[msg.sender].answered_questions.push(_question_id);\n        users[msg.sender].answers.push(answer.id);\n\n        set_question(question, _question_id);\n\n        //NFT\n        NFT_answers[NFT_id_generator] = answer; // NFT\n        _owners[NFT_id_generator] = msg.sender; // \n        _balances[msg.sender]++;\n        NFT_id_generator++; //NFT token++\n\n        return answer;\n    }\n\n    function get_answer(\n        uint256 _question_id,\n        uint256 _answer_id\n    ) public view returns (Answer memory) {\n        //Get the question\n        (Question memory question, , ) = get_question(_question_id);\n\n        Answer memory answer;\n\n        for (uint256 i = 0; i < question.total_answers; i++) {\n            if (answers[_question_id][i].id == _answer_id) {\n                answer = answers[_question_id][i];\n            }\n        }\n\n        return answer;\n    }\n\n    function set_answer(\n        uint256 _question_id,\n        uint256 _answer_id,\n        Answer memory _answer\n    ) public returns (Question memory) {\n        //Get the question\n        (Question memory question, , ) = get_question(_question_id);\n\n        for (uint256 i = 0; i < question.total_answers; i++) {\n            if (answers[_question_id][i].id == _answer_id) {\n                answers[_question_id][i] = _answer;\n                break;\n            }\n        }\n        return question;\n    }\n\n    function like_answer(\n        uint256 _question_id,\n        uint256 _answer_id,\n        address _user_address\n    ) public returns (Answer memory) {\n        //Question\n        (Question memory question, , ) = get_question(_question_id);\n        //Answer\n        Answer memory answer = get_answer(_question_id, _answer_id);\n        //\n        for (uint256 i = 0; i < answer.liked_by.length; i++) {\n            require(\n                answer.liked_by[i] != _user_address,\n                \"You have already liked this answer\"\n            );\n        }\n        //\n        answer.liked_by[answer.likes] = _user_address;\n        answer.likes++;\n        question.expire += 30 days;\n        answer.expire += 30 days;\n        //\n        question = set_answer(_question_id, _answer_id, answer);\n        set_question(question, _question_id);\n\n        return answer;\n    }\n\n    function like_question(\n        uint256 _question_id,\n        address _user_address\n    ) public returns (Question memory) {\n        (Question memory question, , ) = get_question(_question_id);\n\n        for (uint256 i = 0; i < question.liked_by.length; i++) {\n            require(\n                question.liked_by[i] != _user_address,\n                \"You have already liked this question\"\n            );\n        }\n\n        question.liked_by[question.likes] = _user_address;\n        question.likes++;\n        question.expire += 30 days;\n\n        set_question(question, _question_id);\n\n        return question;\n    }\n\n    /**\n     * @notice \n     */\n\n    // \n    function tip_answer(\n        uint256 _question_id,\n        uint256 _answer_id\n    ) public payable {\n        // \n        //Question\n        (Question memory question, , ) = get_question(_question_id);\n        //Answer\n        Answer memory answer = get_answer(_question_id, _answer_id);\n        // \n        address payable _author = payable(answer.author_address);\n        // \n        _author.transfer(msg.value);\n        answer.bonus += msg.value; \n        question.expire += 30 days;\n        answer.expire += 30 days;\n        //\n        question = set_answer(_question_id, _answer_id, answer);\n        set_question(question, _question_id);\n        // \n        emit answer_tipped(answer);\n    }\n\n    // \n    function tip_question(uint256 _question_id) public payable {\n        (Question memory question, , ) = get_question(_question_id);\n\n        emit question_tipped(question);\n    }\n\n    function clean() private {\n        for (uint256 i = 0; i < total_questions; i++) {\n            Question memory q = questions[i];\n            if (q.expire < block.timestamp) {\n                //\n                questions[i] = questions[total_questions - 1];\n                total_questions--;\n            }\n        }\n    }\n}\n",
  "sourcePath": "D:\\Homework\\BlockChain\\QA-DApp\\contracts\\contracts\\DeQuora.sol",
  "compiler": {
    "name": "solc",
    "version": "0.8.11+commit.d7f03943.Emscripten.clang"
  },
  "schemaVersion": "3.4.11",
  "updatedAt": "2023-05-24T09:00:23.449Z",
  "networkType": "ethereum",
  "devdoc": {
    "kind": "dev",
    "methods": {},
    "version": 1
  },
  "userdoc": {
    "kind": "user",
    "methods": {
      "tip_answer(uint256,uint256)": {
        "notice": ""
      }
    },
    "version": 1
  }
}