{
  "contractName": "DeQuora",
  "abi": [
    {
      "inputs": [],
      "stateMutability": "nonpayable",
      "type": "constructor"
    },
    {
      "anonymous": false,
      "inputs": [
        {
          "indexed": true,
          "internalType": "address",
          "name": "_owner",
          "type": "address"
        },
        {
          "indexed": true,
          "internalType": "address",
          "name": "_approved",
          "type": "address"
        },
        {
          "indexed": false,
          "internalType": "uint256",
          "name": "_tokenId",
          "type": "uint256"
        }
      ],
      "name": "Approval",
      "type": "event"
    },
    {
      "anonymous": false,
      "inputs": [
        {
          "indexed": true,
          "internalType": "address",
          "name": "_from",
          "type": "address"
        },
        {
          "indexed": true,
          "internalType": "address",
          "name": "_to",
          "type": "address"
        },
        {
          "indexed": false,
          "internalType": "uint256",
          "name": "_tokenId",
          "type": "uint256"
        }
      ],
      "name": "Transfer",
      "type": "event"
    },
    {
      "anonymous": false,
      "inputs": [
        {
          "components": [
            {
              "internalType": "uint256",
              "name": "id",
              "type": "uint256"
            },
            {
              "internalType": "uint256",
              "name": "question_id",
              "type": "uint256"
            },
            {
              "internalType": "uint256",
              "name": "NFT_id",
              "type": "uint256"
            },
            {
              "internalType": "string",
              "name": "answer",
              "type": "string"
            },
            {
              "internalType": "string",
              "name": "author_name",
              "type": "string"
            },
            {
              "internalType": "address",
              "name": "author_address",
              "type": "address"
            },
            {
              "internalType": "address",
              "name": "owner_address",
              "type": "address"
            },
            {
              "internalType": "uint256",
              "name": "likes",
              "type": "uint256"
            },
            {
              "internalType": "address[]",
              "name": "liked_by",
              "type": "address[]"
            },
            {
              "internalType": "uint256",
              "name": "created_on",
              "type": "uint256"
            },
            {
              "internalType": "uint256",
              "name": "bonus",
              "type": "uint256"
            },
            {
              "internalType": "address[]",
              "name": "support_by",
              "type": "address[]"
            },
            {
              "internalType": "uint256",
              "name": "expire",
              "type": "uint256"
            }
          ],
          "indexed": false,
          "internalType": "struct DeQuora.Answer",
          "name": "",
          "type": "tuple"
        }
      ],
      "name": "answer_liked",
      "type": "event"
    },
    {
      "anonymous": false,
      "inputs": [
        {
          "components": [
            {
              "internalType": "uint256",
              "name": "id",
              "type": "uint256"
            },
            {
              "internalType": "uint256",
              "name": "question_id",
              "type": "uint256"
            },
            {
              "internalType": "uint256",
              "name": "NFT_id",
              "type": "uint256"
            },
            {
              "internalType": "string",
              "name": "answer",
              "type": "string"
            },
            {
              "internalType": "string",
              "name": "author_name",
              "type": "string"
            },
            {
              "internalType": "address",
              "name": "author_address",
              "type": "address"
            },
            {
              "internalType": "address",
              "name": "owner_address",
              "type": "address"
            },
            {
              "internalType": "uint256",
              "name": "likes",
              "type": "uint256"
            },
            {
              "internalType": "address[]",
              "name": "liked_by",
              "type": "address[]"
            },
            {
              "internalType": "uint256",
              "name": "created_on",
              "type": "uint256"
            },
            {
              "internalType": "uint256",
              "name": "bonus",
              "type": "uint256"
            },
            {
              "internalType": "address[]",
              "name": "support_by",
              "type": "address[]"
            },
            {
              "internalType": "uint256",
              "name": "expire",
              "type": "uint256"
            }
          ],
          "indexed": false,
          "internalType": "struct DeQuora.Answer",
          "name": "",
          "type": "tuple"
        }
      ],
      "name": "answer_tipped",
      "type": "event"
    },
    {
      "anonymous": false,
      "inputs": [
        {
          "indexed": false,
          "internalType": "string",
          "name": "",
          "type": "string"
        }
      ],
      "name": "main_deployed",
      "type": "event"
    },
    {
      "anonymous": false,
      "inputs": [
        {
          "components": [
            {
              "internalType": "uint256",
              "name": "id",
              "type": "uint256"
            },
            {
              "internalType": "address",
              "name": "account",
              "type": "address"
            },
            {
              "internalType": "string",
              "name": "name",
              "type": "string"
            },
            {
              "internalType": "uint256[]",
              "name": "questions",
              "type": "uint256[]"
            },
            {
              "internalType": "uint256[]",
              "name": "answered_questions",
              "type": "uint256[]"
            },
            {
              "internalType": "uint256[]",
              "name": "answers",
              "type": "uint256[]"
            },
            {
              "internalType": "uint256",
              "name": "joined_on",
              "type": "uint256"
            }
          ],
          "indexed": false,
          "internalType": "struct DeQuora.User",
          "name": "",
          "type": "tuple"
        }
      ],
      "name": "new_user_added",
      "type": "event"
    },
    {
      "anonymous": false,
      "inputs": [
        {
          "components": [
            {
              "internalType": "uint256",
              "name": "id",
              "type": "uint256"
            },
            {
              "internalType": "string",
              "name": "question",
              "type": "string"
            },
            {
              "internalType": "string",
              "name": "author_name",
              "type": "string"
            },
            {
              "internalType": "address",
              "name": "author_address",
              "type": "address"
            },
            {
              "internalType": "address",
              "name": "owner_address",
              "type": "address"
            },
            {
              "internalType": "uint256",
              "name": "total_answers",
              "type": "uint256"
            },
            {
              "internalType": "uint256",
              "name": "likes",
              "type": "uint256"
            },
            {
              "internalType": "address[]",
              "name": "liked_by",
              "type": "address[]"
            },
            {
              "internalType": "uint256",
              "name": "created_on",
              "type": "uint256"
            },
            {
              "internalType": "uint256",
              "name": "bonus_pool",
              "type": "uint256"
            },
            {
              "internalType": "address[]",
              "name": "support_by",
              "type": "address[]"
            },
            {
              "internalType": "uint256",
              "name": "expire",
              "type": "uint256"
            }
          ],
          "indexed": false,
          "internalType": "struct DeQuora.Question",
          "name": "",
          "type": "tuple"
        }
      ],
      "name": "question_added",
      "type": "event"
    },
    {
      "anonymous": false,
      "inputs": [
        {
          "components": [
            {
              "internalType": "uint256",
              "name": "id",
              "type": "uint256"
            },
            {
              "internalType": "string",
              "name": "question",
              "type": "string"
            },
            {
              "internalType": "string",
              "name": "author_name",
              "type": "string"
            },
            {
              "internalType": "address",
              "name": "author_address",
              "type": "address"
            },
            {
              "internalType": "address",
              "name": "owner_address",
              "type": "address"
            },
            {
              "internalType": "uint256",
              "name": "total_answers",
              "type": "uint256"
            },
            {
              "internalType": "uint256",
              "name": "likes",
              "type": "uint256"
            },
            {
              "internalType": "address[]",
              "name": "liked_by",
              "type": "address[]"
            },
            {
              "internalType": "uint256",
              "name": "created_on",
              "type": "uint256"
            },
            {
              "internalType": "uint256",
              "name": "bonus_pool",
              "type": "uint256"
            },
            {
              "internalType": "address[]",
              "name": "support_by",
              "type": "address[]"
            },
            {
              "internalType": "uint256",
              "name": "expire",
              "type": "uint256"
            }
          ],
          "indexed": false,
          "internalType": "struct DeQuora.Question",
          "name": "",
          "type": "tuple"
        }
      ],
      "name": "question_bonus_divided",
      "type": "event"
    },
    {
      "anonymous": false,
      "inputs": [
        {
          "components": [
            {
              "internalType": "uint256",
              "name": "id",
              "type": "uint256"
            },
            {
              "internalType": "string",
              "name": "question",
              "type": "string"
            },
            {
              "internalType": "string",
              "name": "author_name",
              "type": "string"
            },
            {
              "internalType": "address",
              "name": "author_address",
              "type": "address"
            },
            {
              "internalType": "address",
              "name": "owner_address",
              "type": "address"
            },
            {
              "internalType": "uint256",
              "name": "total_answers",
              "type": "uint256"
            },
            {
              "internalType": "uint256",
              "name": "likes",
              "type": "uint256"
            },
            {
              "internalType": "address[]",
              "name": "liked_by",
              "type": "address[]"
            },
            {
              "internalType": "uint256",
              "name": "created_on",
              "type": "uint256"
            },
            {
              "internalType": "uint256",
              "name": "bonus_pool",
              "type": "uint256"
            },
            {
              "internalType": "address[]",
              "name": "support_by",
              "type": "address[]"
            },
            {
              "internalType": "uint256",
              "name": "expire",
              "type": "uint256"
            }
          ],
          "indexed": false,
          "internalType": "struct DeQuora.Question",
          "name": "",
          "type": "tuple"
        }
      ],
      "name": "question_liked",
      "type": "event"
    },
    {
      "anonymous": false,
      "inputs": [
        {
          "components": [
            {
              "internalType": "uint256",
              "name": "id",
              "type": "uint256"
            },
            {
              "internalType": "string",
              "name": "question",
              "type": "string"
            },
            {
              "internalType": "string",
              "name": "author_name",
              "type": "string"
            },
            {
              "internalType": "address",
              "name": "author_address",
              "type": "address"
            },
            {
              "internalType": "address",
              "name": "owner_address",
              "type": "address"
            },
            {
              "internalType": "uint256",
              "name": "total_answers",
              "type": "uint256"
            },
            {
              "internalType": "uint256",
              "name": "likes",
              "type": "uint256"
            },
            {
              "internalType": "address[]",
              "name": "liked_by",
              "type": "address[]"
            },
            {
              "internalType": "uint256",
              "name": "created_on",
              "type": "uint256"
            },
            {
              "internalType": "uint256",
              "name": "bonus_pool",
              "type": "uint256"
            },
            {
              "internalType": "address[]",
              "name": "support_by",
              "type": "address[]"
            },
            {
              "internalType": "uint256",
              "name": "expire",
              "type": "uint256"
            }
          ],
          "indexed": false,
          "internalType": "struct DeQuora.Question",
          "name": "",
          "type": "tuple"
        }
      ],
      "name": "question_tipped",
      "type": "event"
    },
    {
      "inputs": [],
      "name": "NFT_id_generator",
      "outputs": [
        {
          "internalType": "uint256",
          "name": "",
          "type": "uint256"
        }
      ],
      "stateMutability": "view",
      "type": "function",
      "constant": true
    },
    {
      "inputs": [
        {
          "internalType": "uint256",
          "name": "",
          "type": "uint256"
        },
        {
          "internalType": "uint256",
          "name": "",
          "type": "uint256"
        }
      ],
      "name": "answers",
      "outputs": [
        {
          "internalType": "uint256",
          "name": "id",
          "type": "uint256"
        },
        {
          "internalType": "uint256",
          "name": "question_id",
          "type": "uint256"
        },
        {
          "internalType": "uint256",
          "name": "NFT_id",
          "type": "uint256"
        },
        {
          "internalType": "string",
          "name": "answer",
          "type": "string"
        },
        {
          "internalType": "string",
          "name": "author_name",
          "type": "string"
        },
        {
          "internalType": "address",
          "name": "author_address",
          "type": "address"
        },
        {
          "internalType": "address",
          "name": "owner_address",
          "type": "address"
        },
        {
          "internalType": "uint256",
          "name": "likes",
          "type": "uint256"
        },
        {
          "internalType": "uint256",
          "name": "created_on",
          "type": "uint256"
        },
        {
          "internalType": "uint256",
          "name": "bonus",
          "type": "uint256"
        },
        {
          "internalType": "uint256",
          "name": "expire",
          "type": "uint256"
        }
      ],
      "stateMutability": "view",
      "type": "function",
      "constant": true
    },
    {
      "inputs": [
        {
          "internalType": "uint256",
          "name": "",
          "type": "uint256"
        }
      ],
      "name": "questions",
      "outputs": [
        {
          "internalType": "uint256",
          "name": "id",
          "type": "uint256"
        },
        {
          "internalType": "string",
          "name": "question",
          "type": "string"
        },
        {
          "internalType": "string",
          "name": "author_name",
          "type": "string"
        },
        {
          "internalType": "address",
          "name": "author_address",
          "type": "address"
        },
        {
          "internalType": "address",
          "name": "owner_address",
          "type": "address"
        },
        {
          "internalType": "uint256",
          "name": "total_answers",
          "type": "uint256"
        },
        {
          "internalType": "uint256",
          "name": "likes",
          "type": "uint256"
        },
        {
          "internalType": "uint256",
          "name": "created_on",
          "type": "uint256"
        },
        {
          "internalType": "uint256",
          "name": "bonus_pool",
          "type": "uint256"
        },
        {
          "internalType": "uint256",
          "name": "expire",
          "type": "uint256"
        }
      ],
      "stateMutability": "view",
      "type": "function",
      "constant": true
    },
    {
      "inputs": [],
      "name": "total_questions",
      "outputs": [
        {
          "internalType": "uint256",
          "name": "",
          "type": "uint256"
        }
      ],
      "stateMutability": "view",
      "type": "function",
      "constant": true
    },
    {
      "inputs": [],
      "name": "total_users",
      "outputs": [
        {
          "internalType": "uint256",
          "name": "",
          "type": "uint256"
        }
      ],
      "stateMutability": "view",
      "type": "function",
      "constant": true
    },
    {
      "inputs": [
        {
          "internalType": "address",
          "name": "",
          "type": "address"
        }
      ],
      "name": "users",
      "outputs": [
        {
          "internalType": "uint256",
          "name": "id",
          "type": "uint256"
        },
        {
          "internalType": "address",
          "name": "account",
          "type": "address"
        },
        {
          "internalType": "string",
          "name": "name",
          "type": "string"
        },
        {
          "internalType": "uint256",
          "name": "joined_on",
          "type": "uint256"
        }
      ],
      "stateMutability": "view",
      "type": "function",
      "constant": true
    },
    {
      "inputs": [
        {
          "internalType": "address",
          "name": "_owner",
          "type": "address"
        }
      ],
      "name": "balanceOf",
      "outputs": [
        {
          "internalType": "uint256",
          "name": "_balance",
          "type": "uint256"
        }
      ],
      "stateMutability": "view",
      "type": "function",
      "constant": true
    },
    {
      "inputs": [
        {
          "internalType": "uint256",
          "name": "_tokenId",
          "type": "uint256"
        }
      ],
      "name": "ownerOf",
      "outputs": [
        {
          "internalType": "address",
          "name": "_owner",
          "type": "address"
        }
      ],
      "stateMutability": "view",
      "type": "function",
      "constant": true
    },
    {
      "inputs": [
        {
          "internalType": "address",
          "name": "_to",
          "type": "address"
        },
        {
          "internalType": "uint256",
          "name": "_tokenId",
          "type": "uint256"
        }
      ],
      "name": "transfer",
      "outputs": [],
      "stateMutability": "nonpayable",
      "type": "function"
    },
    {
      "inputs": [
        {
          "internalType": "address",
          "name": "_to",
          "type": "address"
        },
        {
          "internalType": "uint256",
          "name": "_tokenId",
          "type": "uint256"
        }
      ],
      "name": "approve",
      "outputs": [],
      "stateMutability": "nonpayable",
      "type": "function"
    },
    {
      "inputs": [
        {
          "internalType": "uint256",
          "name": "_tokenId",
          "type": "uint256"
        }
      ],
      "name": "takeOwnership",
      "outputs": [],
      "stateMutability": "nonpayable",
      "type": "function"
    },
    {
      "inputs": [
        {
          "internalType": "string",
          "name": "_name",
          "type": "string"
        }
      ],
      "name": "create_user",
      "outputs": [
        {
          "components": [
            {
              "internalType": "uint256",
              "name": "id",
              "type": "uint256"
            },
            {
              "internalType": "address",
              "name": "account",
              "type": "address"
            },
            {
              "internalType": "string",
              "name": "name",
              "type": "string"
            },
            {
              "internalType": "uint256[]",
              "name": "questions",
              "type": "uint256[]"
            },
            {
              "internalType": "uint256[]",
              "name": "answered_questions",
              "type": "uint256[]"
            },
            {
              "internalType": "uint256[]",
              "name": "answers",
              "type": "uint256[]"
            },
            {
              "internalType": "uint256",
              "name": "joined_on",
              "type": "uint256"
            }
          ],
          "internalType": "struct DeQuora.User",
          "name": "",
          "type": "tuple"
        }
      ],
      "stateMutability": "payable",
      "type": "function",
      "payable": true
    },
    {
      "inputs": [
        {
          "internalType": "address",
          "name": "_user_address",
          "type": "address"
        }
      ],
      "name": "get_user_details",
      "outputs": [
        {
          "components": [
            {
              "internalType": "uint256",
              "name": "id",
              "type": "uint256"
            },
            {
              "internalType": "address",
              "name": "account",
              "type": "address"
            },
            {
              "internalType": "string",
              "name": "name",
              "type": "string"
            },
            {
              "internalType": "uint256[]",
              "name": "questions",
              "type": "uint256[]"
            },
            {
              "internalType": "uint256[]",
              "name": "answered_questions",
              "type": "uint256[]"
            },
            {
              "internalType": "uint256[]",
              "name": "answers",
              "type": "uint256[]"
            },
            {
              "internalType": "uint256",
              "name": "joined_on",
              "type": "uint256"
            }
          ],
          "internalType": "struct DeQuora.User",
          "name": "",
          "type": "tuple"
        }
      ],
      "stateMutability": "view",
      "type": "function",
      "constant": true
    },
    {
      "inputs": [
        {
          "internalType": "string",
          "name": "_question",
          "type": "string"
        }
      ],
      "name": "add_question",
      "outputs": [
        {
          "components": [
            {
              "internalType": "uint256",
              "name": "id",
              "type": "uint256"
            },
            {
              "internalType": "string",
              "name": "question",
              "type": "string"
            },
            {
              "internalType": "string",
              "name": "author_name",
              "type": "string"
            },
            {
              "internalType": "address",
              "name": "author_address",
              "type": "address"
            },
            {
              "internalType": "address",
              "name": "owner_address",
              "type": "address"
            },
            {
              "internalType": "uint256",
              "name": "total_answers",
              "type": "uint256"
            },
            {
              "internalType": "uint256",
              "name": "likes",
              "type": "uint256"
            },
            {
              "internalType": "address[]",
              "name": "liked_by",
              "type": "address[]"
            },
            {
              "internalType": "uint256",
              "name": "created_on",
              "type": "uint256"
            },
            {
              "internalType": "uint256",
              "name": "bonus_pool",
              "type": "uint256"
            },
            {
              "internalType": "address[]",
              "name": "support_by",
              "type": "address[]"
            },
            {
              "internalType": "uint256",
              "name": "expire",
              "type": "uint256"
            }
          ],
          "internalType": "struct DeQuora.Question",
          "name": "",
          "type": "tuple"
        }
      ],
      "stateMutability": "payable",
      "type": "function",
      "payable": true
    },
    {
      "inputs": [],
      "name": "get_all_questions",
      "outputs": [
        {
          "components": [
            {
              "internalType": "uint256",
              "name": "id",
              "type": "uint256"
            },
            {
              "internalType": "string",
              "name": "question",
              "type": "string"
            },
            {
              "internalType": "string",
              "name": "author_name",
              "type": "string"
            },
            {
              "internalType": "address",
              "name": "author_address",
              "type": "address"
            },
            {
              "internalType": "address",
              "name": "owner_address",
              "type": "address"
            },
            {
              "internalType": "uint256",
              "name": "total_answers",
              "type": "uint256"
            },
            {
              "internalType": "uint256",
              "name": "likes",
              "type": "uint256"
            },
            {
              "internalType": "address[]",
              "name": "liked_by",
              "type": "address[]"
            },
            {
              "internalType": "uint256",
              "name": "created_on",
              "type": "uint256"
            },
            {
              "internalType": "uint256",
              "name": "bonus_pool",
              "type": "uint256"
            },
            {
              "internalType": "address[]",
              "name": "support_by",
              "type": "address[]"
            },
            {
              "internalType": "uint256",
              "name": "expire",
              "type": "uint256"
            }
          ],
          "internalType": "struct DeQuora.Question[]",
          "name": "",
          "type": "tuple[]"
        }
      ],
      "stateMutability": "view",
      "type": "function",
      "constant": true
    },
    {
      "inputs": [
        {
          "internalType": "uint256",
          "name": "_question_id",
          "type": "uint256"
        }
      ],
      "name": "get_question",
      "outputs": [
        {
          "components": [
            {
              "internalType": "uint256",
              "name": "id",
              "type": "uint256"
            },
            {
              "internalType": "string",
              "name": "question",
              "type": "string"
            },
            {
              "internalType": "string",
              "name": "author_name",
              "type": "string"
            },
            {
              "internalType": "address",
              "name": "author_address",
              "type": "address"
            },
            {
              "internalType": "address",
              "name": "owner_address",
              "type": "address"
            },
            {
              "internalType": "uint256",
              "name": "total_answers",
              "type": "uint256"
            },
            {
              "internalType": "uint256",
              "name": "likes",
              "type": "uint256"
            },
            {
              "internalType": "address[]",
              "name": "liked_by",
              "type": "address[]"
            },
            {
              "internalType": "uint256",
              "name": "created_on",
              "type": "uint256"
            },
            {
              "internalType": "uint256",
              "name": "bonus_pool",
              "type": "uint256"
            },
            {
              "internalType": "address[]",
              "name": "support_by",
              "type": "address[]"
            },
            {
              "internalType": "uint256",
              "name": "expire",
              "type": "uint256"
            }
          ],
          "internalType": "struct DeQuora.Question",
          "name": "",
          "type": "tuple"
        },
        {
          "components": [
            {
              "internalType": "uint256",
              "name": "id",
              "type": "uint256"
            },
            {
              "internalType": "uint256",
              "name": "question_id",
              "type": "uint256"
            },
            {
              "internalType": "uint256",
              "name": "NFT_id",
              "type": "uint256"
            },
            {
              "internalType": "string",
              "name": "answer",
              "type": "string"
            },
            {
              "internalType": "string",
              "name": "author_name",
              "type": "string"
            },
            {
              "internalType": "address",
              "name": "author_address",
              "type": "address"
            },
            {
              "internalType": "address",
              "name": "owner_address",
              "type": "address"
            },
            {
              "internalType": "uint256",
              "name": "likes",
              "type": "uint256"
            },
            {
              "internalType": "address[]",
              "name": "liked_by",
              "type": "address[]"
            },
            {
              "internalType": "uint256",
              "name": "created_on",
              "type": "uint256"
            },
            {
              "internalType": "uint256",
              "name": "bonus",
              "type": "uint256"
            },
            {
              "internalType": "address[]",
              "name": "support_by",
              "type": "address[]"
            },
            {
              "internalType": "uint256",
              "name": "expire",
              "type": "uint256"
            }
          ],
          "internalType": "struct DeQuora.Answer[]",
          "name": "",
          "type": "tuple[]"
        },
        {
          "components": [
            {
              "internalType": "uint256",
              "name": "id",
              "type": "uint256"
            },
            {
              "internalType": "address",
              "name": "account",
              "type": "address"
            },
            {
              "internalType": "string",
              "name": "name",
              "type": "string"
            },
            {
              "internalType": "uint256[]",
              "name": "questions",
              "type": "uint256[]"
            },
            {
              "internalType": "uint256[]",
              "name": "answered_questions",
              "type": "uint256[]"
            },
            {
              "internalType": "uint256[]",
              "name": "answers",
              "type": "uint256[]"
            },
            {
              "internalType": "uint256",
              "name": "joined_on",
              "type": "uint256"
            }
          ],
          "internalType": "struct DeQuora.User",
          "name": "",
          "type": "tuple"
        }
      ],
      "stateMutability": "view",
      "type": "function",
      "constant": true
    },
    {
      "inputs": [
        {
          "components": [
            {
              "internalType": "uint256",
              "name": "id",
              "type": "uint256"
            },
            {
              "internalType": "string",
              "name": "question",
              "type": "string"
            },
            {
              "internalType": "string",
              "name": "author_name",
              "type": "string"
            },
            {
              "internalType": "address",
              "name": "author_address",
              "type": "address"
            },
            {
              "internalType": "address",
              "name": "owner_address",
              "type": "address"
            },
            {
              "internalType": "uint256",
              "name": "total_answers",
              "type": "uint256"
            },
            {
              "internalType": "uint256",
              "name": "likes",
              "type": "uint256"
            },
            {
              "internalType": "address[]",
              "name": "liked_by",
              "type": "address[]"
            },
            {
              "internalType": "uint256",
              "name": "created_on",
              "type": "uint256"
            },
            {
              "internalType": "uint256",
              "name": "bonus_pool",
              "type": "uint256"
            },
            {
              "internalType": "address[]",
              "name": "support_by",
              "type": "address[]"
            },
            {
              "internalType": "uint256",
              "name": "expire",
              "type": "uint256"
            }
          ],
          "internalType": "struct DeQuora.Question",
          "name": "_question",
          "type": "tuple"
        },
        {
          "internalType": "uint256",
          "name": "_question_id",
          "type": "uint256"
        }
      ],
      "name": "set_question",
      "outputs": [],
      "stateMutability": "nonpayable",
      "type": "function"
    },
    {
      "inputs": [
        {
          "internalType": "uint256",
          "name": "_question_id",
          "type": "uint256"
        },
        {
          "internalType": "string",
          "name": "_answer",
          "type": "string"
        }
      ],
      "name": "add_answer",
      "outputs": [
        {
          "components": [
            {
              "internalType": "uint256",
              "name": "id",
              "type": "uint256"
            },
            {
              "internalType": "uint256",
              "name": "question_id",
              "type": "uint256"
            },
            {
              "internalType": "uint256",
              "name": "NFT_id",
              "type": "uint256"
            },
            {
              "internalType": "string",
              "name": "answer",
              "type": "string"
            },
            {
              "internalType": "string",
              "name": "author_name",
              "type": "string"
            },
            {
              "internalType": "address",
              "name": "author_address",
              "type": "address"
            },
            {
              "internalType": "address",
              "name": "owner_address",
              "type": "address"
            },
            {
              "internalType": "uint256",
              "name": "likes",
              "type": "uint256"
            },
            {
              "internalType": "address[]",
              "name": "liked_by",
              "type": "address[]"
            },
            {
              "internalType": "uint256",
              "name": "created_on",
              "type": "uint256"
            },
            {
              "internalType": "uint256",
              "name": "bonus",
              "type": "uint256"
            },
            {
              "internalType": "address[]",
              "name": "support_by",
              "type": "address[]"
            },
            {
              "internalType": "uint256",
              "name": "expire",
              "type": "uint256"
            }
          ],
          "internalType": "struct DeQuora.Answer",
          "name": "",
          "type": "tuple"
        }
      ],
      "stateMutability": "payable",
      "type": "function",
      "payable": true
    },
    {
      "inputs": [
        {
          "internalType": "uint256",
          "name": "_question_id",
          "type": "uint256"
        },
        {
          "internalType": "uint256",
          "name": "_answer_id",
          "type": "uint256"
        }
      ],
      "name": "get_answer",
      "outputs": [
        {
          "components": [
            {
              "internalType": "uint256",
              "name": "id",
              "type": "uint256"
            },
            {
              "internalType": "uint256",
              "name": "question_id",
              "type": "uint256"
            },
            {
              "internalType": "uint256",
              "name": "NFT_id",
              "type": "uint256"
            },
            {
              "internalType": "string",
              "name": "answer",
              "type": "string"
            },
            {
              "internalType": "string",
              "name": "author_name",
              "type": "string"
            },
            {
              "internalType": "address",
              "name": "author_address",
              "type": "address"
            },
            {
              "internalType": "address",
              "name": "owner_address",
              "type": "address"
            },
            {
              "internalType": "uint256",
              "name": "likes",
              "type": "uint256"
            },
            {
              "internalType": "address[]",
              "name": "liked_by",
              "type": "address[]"
            },
            {
              "internalType": "uint256",
              "name": "created_on",
              "type": "uint256"
            },
            {
              "internalType": "uint256",
              "name": "bonus",
              "type": "uint256"
            },
            {
              "internalType": "address[]",
              "name": "support_by",
              "type": "address[]"
            },
            {
              "internalType": "uint256",
              "name": "expire",
              "type": "uint256"
            }
          ],
          "internalType": "struct DeQuora.Answer",
          "name": "",
          "type": "tuple"
        }
      ],
      "stateMutability": "view",
      "type": "function",
      "constant": true
    },
    {
      "inputs": [
        {
          "internalType": "uint256",
          "name": "_question_id",
          "type": "uint256"
        },
        {
          "internalType": "uint256",
          "name": "_answer_id",
          "type": "uint256"
        },
        {
          "components": [
            {
              "internalType": "uint256",
              "name": "id",
              "type": "uint256"
            },
            {
              "internalType": "uint256",
              "name": "question_id",
              "type": "uint256"
            },
            {
              "internalType": "uint256",
              "name": "NFT_id",
              "type": "uint256"
            },
            {
              "internalType": "string",
              "name": "answer",
              "type": "string"
            },
            {
              "internalType": "string",
              "name": "author_name",
              "type": "string"
            },
            {
              "internalType": "address",
              "name": "author_address",
              "type": "address"
            },
            {
              "internalType": "address",
              "name": "owner_address",
              "type": "address"
            },
            {
              "internalType": "uint256",
              "name": "likes",
              "type": "uint256"
            },
            {
              "internalType": "address[]",
              "name": "liked_by",
              "type": "address[]"
            },
            {
              "internalType": "uint256",
              "name": "created_on",
              "type": "uint256"
            },
            {
              "internalType": "uint256",
              "name": "bonus",
              "type": "uint256"
            },
            {
              "internalType": "address[]",
              "name": "support_by",
              "type": "address[]"
            },
            {
              "internalType": "uint256",
              "name": "expire",
              "type": "uint256"
            }
          ],
          "internalType": "struct DeQuora.Answer",
          "name": "_answer",
          "type": "tuple"
        }
      ],
      "name": "set_answer",
      "outputs": [],
      "stateMutability": "nonpayable",
      "type": "function"
    },
    {
      "inputs": [
        {
          "internalType": "uint256",
          "name": "_question_id",
          "type": "uint256"
        },
        {
          "internalType": "uint256",
          "name": "_answer_id",
          "type": "uint256"
        }
      ],
      "name": "like_answer",
      "outputs": [
        {
          "components": [
            {
              "internalType": "uint256",
              "name": "id",
              "type": "uint256"
            },
            {
              "internalType": "uint256",
              "name": "question_id",
              "type": "uint256"
            },
            {
              "internalType": "uint256",
              "name": "NFT_id",
              "type": "uint256"
            },
            {
              "internalType": "string",
              "name": "answer",
              "type": "string"
            },
            {
              "internalType": "string",
              "name": "author_name",
              "type": "string"
            },
            {
              "internalType": "address",
              "name": "author_address",
              "type": "address"
            },
            {
              "internalType": "address",
              "name": "owner_address",
              "type": "address"
            },
            {
              "internalType": "uint256",
              "name": "likes",
              "type": "uint256"
            },
            {
              "internalType": "address[]",
              "name": "liked_by",
              "type": "address[]"
            },
            {
              "internalType": "uint256",
              "name": "created_on",
              "type": "uint256"
            },
            {
              "internalType": "uint256",
              "name": "bonus",
              "type": "uint256"
            },
            {
              "internalType": "address[]",
              "name": "support_by",
              "type": "address[]"
            },
            {
              "internalType": "uint256",
              "name": "expire",
              "type": "uint256"
            }
          ],
          "internalType": "struct DeQuora.Answer",
          "name": "",
          "type": "tuple"
        }
      ],
      "stateMutability": "payable",
      "type": "function",
      "payable": true
    },
    {
      "inputs": [
        {
          "internalType": "uint256",
          "name": "_question_id",
          "type": "uint256"
        }
      ],
      "name": "like_question",
      "outputs": [
        {
          "components": [
            {
              "internalType": "uint256",
              "name": "id",
              "type": "uint256"
            },
            {
              "internalType": "string",
              "name": "question",
              "type": "string"
            },
            {
              "internalType": "string",
              "name": "author_name",
              "type": "string"
            },
            {
              "internalType": "address",
              "name": "author_address",
              "type": "address"
            },
            {
              "internalType": "address",
              "name": "owner_address",
              "type": "address"
            },
            {
              "internalType": "uint256",
              "name": "total_answers",
              "type": "uint256"
            },
            {
              "internalType": "uint256",
              "name": "likes",
              "type": "uint256"
            },
            {
              "internalType": "address[]",
              "name": "liked_by",
              "type": "address[]"
            },
            {
              "internalType": "uint256",
              "name": "created_on",
              "type": "uint256"
            },
            {
              "internalType": "uint256",
              "name": "bonus_pool",
              "type": "uint256"
            },
            {
              "internalType": "address[]",
              "name": "support_by",
              "type": "address[]"
            },
            {
              "internalType": "uint256",
              "name": "expire",
              "type": "uint256"
            }
          ],
          "internalType": "struct DeQuora.Question",
          "name": "",
          "type": "tuple"
        }
      ],
      "stateMutability": "payable",
      "type": "function",
      "payable": true
    },
    {
      "inputs": [
        {
          "internalType": "uint256",
          "name": "_question_id",
          "type": "uint256"
        },
        {
          "internalType": "uint256",
          "name": "_answer_id",
          "type": "uint256"
        }
      ],
      "name": "tip_answer",
      "outputs": [
        {
          "components": [
            {
              "internalType": "uint256",
              "name": "id",
              "type": "uint256"
            },
            {
              "internalType": "uint256",
              "name": "question_id",
              "type": "uint256"
            },
            {
              "internalType": "uint256",
              "name": "NFT_id",
              "type": "uint256"
            },
            {
              "internalType": "string",
              "name": "answer",
              "type": "string"
            },
            {
              "internalType": "string",
              "name": "author_name",
              "type": "string"
            },
            {
              "internalType": "address",
              "name": "author_address",
              "type": "address"
            },
            {
              "internalType": "address",
              "name": "owner_address",
              "type": "address"
            },
            {
              "internalType": "uint256",
              "name": "likes",
              "type": "uint256"
            },
            {
              "internalType": "address[]",
              "name": "liked_by",
              "type": "address[]"
            },
            {
              "internalType": "uint256",
              "name": "created_on",
              "type": "uint256"
            },
            {
              "internalType": "uint256",
              "name": "bonus",
              "type": "uint256"
            },
            {
              "internalType": "address[]",
              "name": "support_by",
              "type": "address[]"
            },
            {
              "internalType": "uint256",
              "name": "expire",
              "type": "uint256"
            }
          ],
          "internalType": "struct DeQuora.Answer",
          "name": "",
          "type": "tuple"
        }
      ],
      "stateMutability": "payable",
      "type": "function",
      "payable": true
    },
    {
      "inputs": [
        {
          "internalType": "uint256",
          "name": "_question_id",
          "type": "uint256"
        }
      ],
      "name": "tip_question",
      "outputs": [
        {
          "components": [
            {
              "internalType": "uint256",
              "name": "id",
              "type": "uint256"
            },
            {
              "internalType": "string",
              "name": "question",
              "type": "string"
            },
            {
              "internalType": "string",
              "name": "author_name",
              "type": "string"
            },
            {
              "internalType": "address",
              "name": "author_address",
              "type": "address"
            },
            {
              "internalType": "address",
              "name": "owner_address",
              "type": "address"
            },
            {
              "internalType": "uint256",
              "name": "total_answers",
              "type": "uint256"
            },
            {
              "internalType": "uint256",
              "name": "likes",
              "type": "uint256"
            },
            {
              "internalType": "address[]",
              "name": "liked_by",
              "type": "address[]"
            },
            {
              "internalType": "uint256",
              "name": "created_on",
              "type": "uint256"
            },
            {
              "internalType": "uint256",
              "name": "bonus_pool",
              "type": "uint256"
            },
            {
              "internalType": "address[]",
              "name": "support_by",
              "type": "address[]"
            },
            {
              "internalType": "uint256",
              "name": "expire",
              "type": "uint256"
            }
          ],
          "internalType": "struct DeQuora.Question",
          "name": "",
          "type": "tuple"
        }
      ],
      "stateMutability": "payable",
      "type": "function",
      "payable": true
    },
    {
      "inputs": [
        {
          "internalType": "uint256",
          "name": "_question_id",
          "type": "uint256"
        }
      ],
      "name": "dividing_question_bonus_pool",
      "outputs": [],
      "stateMutability": "nonpayable",
      "type": "function"
    },
    {
      "inputs": [],
      "name": "clean",
      "outputs": [],
      "stateMutability": "nonpayable",
      "type": "function"
    }
  ],
  "bytecode": "0x608060405260006003553480156200001657600080fd5b50600060048190555060006005819055507f316a024183dffe386f9e64eeb7d2108a2f170f4c8708641f33f165f6dda8b9736040516200005690620000c5565b60405180910390a1620000e7565b600082825260208201905092915050565b7f4d61696e206973206465706c6f79656400000000000000000000000000000000600082015250565b6000620000ad60108362000064565b9150620000ba8262000075565b602082019050919050565b60006020820190508181036000830152620000e0816200009e565b9050919050565b615ab280620000f76000396000f3fe6080604052600436106101815760003560e01c8063a87430ba116100d1578063df16b7ab1161008a578063e7cc62bd11610064578063e7cc62bd146105e5578063fc4333cd14610610578063fd93d2e314610627578063ff30ae0c1461065257610181565b8063df16b7ab14610555578063e68ca4a414610585578063e78c1453146105b557610181565b8063a87430ba1461042b578063a9059cbb1461046b578063b2e6ceeb14610494578063c84ccaef146104bd578063d1984a70146104e8578063d2965f041461051857610181565b8063403aa93b1161013e5780636352211e116101185780636352211e146103515780636411ad381461038e578063676c9881146103be57806370a08231146103ee57610181565b8063403aa93b146102b957806348e8158a146102f85780635fe1fc0c1461032857610181565b8063095ea7b3146101865780631da01cad146101af5780631f8ae1f5146101d85780632401519c1461020157806330de49841461024857806331b1b97814610273575b600080fd5b34801561019257600080fd5b506101ad60048036038101906101a891906143f8565b61068f565b005b3480156101bb57600080fd5b506101d660048036038101906101d19190614438565b610693565b005b3480156101e457600080fd5b506101ff60048036038101906101fa919061480f565b610866565b005b34801561020d57600080fd5b506102286004803603810190610223919061486b565b610a25565b60405161023f9b9a99989796959493929190614951565b60405180910390f35b34801561025457600080fd5b5061025d610bec565b60405161026a9190614cfc565b60405180910390f35b34801561027f57600080fd5b5061029a60048036038101906102959190614438565b610f74565b6040516102b09a99989796959493929190614d1e565b60405180910390f35b3480156102c557600080fd5b506102e060048036038101906102db9190614438565b611128565b6040516102ef93929190615231565b60405180910390f35b610312600480360381019061030d919061527d565b611afa565b60405161031f91906152c6565b60405180910390f35b34801561033457600080fd5b5061034f600480360381019061034a9190615490565b611ddb565b005b34801561035d57600080fd5b5061037860048036038101906103739190614438565b611fda565b60405161038591906154ff565b60405180910390f35b6103a860048036038101906103a3919061486b565b612017565b6040516103b59190615648565b60405180910390f35b6103d860048036038101906103d3919061527d565b612138565b6040516103e5919061566a565b60405180910390f35b3480156103fa57600080fd5b506104156004803603810190610410919061568c565b6125d3565b60405161042291906156b9565b60405180910390f35b34801561043757600080fd5b50610452600480360381019061044d919061568c565b61261b565b60405161046294939291906156d4565b60405180910390f35b34801561047757600080fd5b50610492600480360381019061048d91906143f8565b6126f3565b005b3480156104a057600080fd5b506104bb60048036038101906104b69190614438565b612877565b005b3480156104c957600080fd5b506104d261287a565b6040516104df91906156b9565b60405180910390f35b61050260048036038101906104fd9190614438565b612880565b60405161050f919061566a565b60405180910390f35b34801561052457600080fd5b5061053f600480360381019061053a919061568c565b612914565b60405161054c91906152c6565b60405180910390f35b61056f600480360381019061056a9190615720565b612b77565b60405161057c9190615648565b60405180910390f35b61059f600480360381019061059a9190614438565b613157565b6040516105ac919061566a565b60405180910390f35b6105cf60048036038101906105ca919061486b565b6131d2565b6040516105dc9190615648565b60405180910390f35b3480156105f157600080fd5b506105fa61329e565b60405161060791906156b9565b60405180910390f35b34801561061c57600080fd5b506106256132a4565b005b34801561063357600080fd5b5061063c613822565b60405161064991906156b9565b60405180910390f35b34801561065e57600080fd5b506106796004803603810190610674919061486b565b613828565b6040516106869190615648565b60405180910390f35b5050565b600061069e82611128565b5050905060008060005b600760008681526020019081526020016000208054905081101561078957816007600087815260200190815260200160002082815481106106ec576106eb61577c565b5b90600052602060002090600d02016007015410610776576007600086815260200190815260200160002081815481106107285761072761577c565b5b90600052602060002090600d02016000015492506007600086815260200190815260200160002081815481106107615761076061577c565b5b90600052602060002090600d02016007015491505b8080610781906157da565b9150506106a8565b5060006107968584613828565b905083610120015181610140018181516107b09190615823565b915081815250508060c0015173ffffffffffffffffffffffffffffffffffffffff166108fc8561012001519081150290604051600060405180830381858888f19350505050158015610806573d6000803e3d6000fd5b5060008461012001818152505061081e858483611ddb565b6108288486610866565b7f58c0dfae77f475405555022d92866578de3189260068e22bcb2a7b1baa1df00484604051610857919061566a565b60405180910390a15050505050565b60005b600554811015610a205781600882815481106108885761088761577c565b5b90600052602060002090600c0201600001541415610a0d5782600882815481106108b5576108b461577c565b5b90600052602060002090600c02016000820151816000015560208201518160010190805190602001906108e9929190613c2b565b506040820151816002019080519060200190610906929190613c2b565b5060608201518160030160006101000a81548173ffffffffffffffffffffffffffffffffffffffff021916908373ffffffffffffffffffffffffffffffffffffffff16021790555060808201518160040160006101000a81548173ffffffffffffffffffffffffffffffffffffffff021916908373ffffffffffffffffffffffffffffffffffffffff16021790555060a0820151816005015560c0820151816006015560e08201518160070190805190602001906109c5929190613cb1565b506101008201518160080155610120820151816009015561014082015181600a0190805190602001906109f9929190613cb1565b5061016082015181600b0155905050610a20565b8080610a18906157da565b915050610869565b505050565b60076020528160005260406000208181548110610a4157600080fd5b90600052602060002090600d020160009150915050806000015490806001015490806002015490806003018054610a77906158a8565b80601f0160208091040260200160405190810160405280929190818152602001828054610aa3906158a8565b8015610af05780601f10610ac557610100808354040283529160200191610af0565b820191906000526020600020905b815481529060010190602001808311610ad357829003601f168201915b505050505090806004018054610b05906158a8565b80601f0160208091040260200160405190810160405280929190818152602001828054610b31906158a8565b8015610b7e5780601f10610b5357610100808354040283529160200191610b7e565b820191906000526020600020905b815481529060010190602001808311610b6157829003601f168201915b5050505050908060050160009054906101000a900473ffffffffffffffffffffffffffffffffffffffff16908060060160009054906101000a900473ffffffffffffffffffffffffffffffffffffffff169080600701549080600901549080600a01549080600c015490508b565b60606008805480602002602001604051908101604052809291908181526020016000905b82821015610f6b57838290600052602060002090600c02016040518061018001604052908160008201548152602001600182018054610c4e906158a8565b80601f0160208091040260200160405190810160405280929190818152602001828054610c7a906158a8565b8015610cc75780601f10610c9c57610100808354040283529160200191610cc7565b820191906000526020600020905b815481529060010190602001808311610caa57829003601f168201915b50505050508152602001600282018054610ce0906158a8565b80601f0160208091040260200160405190810160405280929190818152602001828054610d0c906158a8565b8015610d595780601f10610d2e57610100808354040283529160200191610d59565b820191906000526020600020905b815481529060010190602001808311610d3c57829003601f168201915b505050505081526020016003820160009054906101000a900473ffffffffffffffffffffffffffffffffffffffff1673ffffffffffffffffffffffffffffffffffffffff1673ffffffffffffffffffffffffffffffffffffffff1681526020016004820160009054906101000a900473ffffffffffffffffffffffffffffffffffffffff1673ffffffffffffffffffffffffffffffffffffffff1673ffffffffffffffffffffffffffffffffffffffff168152602001600582015481526020016006820154815260200160078201805480602002602001604051908101604052809291908181526020018280548015610ea757602002820191906000526020600020905b8160009054906101000a900473ffffffffffffffffffffffffffffffffffffffff1673ffffffffffffffffffffffffffffffffffffffff1681526020019060010190808311610e5d575b505050505081526020016008820154815260200160098201548152602001600a8201805480602002602001604051908101604052809291908181526020018280548015610f4957602002820191906000526020600020905b8160009054906101000a900473ffffffffffffffffffffffffffffffffffffffff1673ffffffffffffffffffffffffffffffffffffffff1681526020019060010190808311610eff575b50505050508152602001600b8201548152505081526020019060010190610c10565b50505050905090565b60088181548110610f8457600080fd5b90600052602060002090600c0201600091509050806000015490806001018054610fad906158a8565b80601f0160208091040260200160405190810160405280929190818152602001828054610fd9906158a8565b80156110265780601f10610ffb57610100808354040283529160200191611026565b820191906000526020600020905b81548152906001019060200180831161100957829003601f168201915b50505050509080600201805461103b906158a8565b80601f0160208091040260200160405190810160405280929190818152602001828054611067906158a8565b80156110b45780601f10611089576101008083540402835291602001916110b4565b820191906000526020600020905b81548152906001019060200180831161109757829003601f168201915b5050505050908060030160009054906101000a900473ffffffffffffffffffffffffffffffffffffffff16908060040160009054906101000a900473ffffffffffffffffffffffffffffffffffffffff169080600501549080600601549080600801549080600901549080600b015490508a565b611130613d3b565b606061113a613dc8565b611142613d3b565b60005b6005548110156114ec5785600882815481106111645761116361577c565b5b90600052602060002090600c02016000015414156114d957600881815481106111905761118f61577c565b5b90600052602060002090600c020160405180610180016040529081600082015481526020016001820180546111c4906158a8565b80601f01602080910402602001604051908101604052809291908181526020018280546111f0906158a8565b801561123d5780601f106112125761010080835404028352916020019161123d565b820191906000526020600020905b81548152906001019060200180831161122057829003601f168201915b50505050508152602001600282018054611256906158a8565b80601f0160208091040260200160405190810160405280929190818152602001828054611282906158a8565b80156112cf5780601f106112a4576101008083540402835291602001916112cf565b820191906000526020600020905b8154815290600101906020018083116112b257829003601f168201915b505050505081526020016003820160009054906101000a900473ffffffffffffffffffffffffffffffffffffffff1673ffffffffffffffffffffffffffffffffffffffff1673ffffffffffffffffffffffffffffffffffffffff1681526020016004820160009054906101000a900473ffffffffffffffffffffffffffffffffffffffff1673ffffffffffffffffffffffffffffffffffffffff1673ffffffffffffffffffffffffffffffffffffffff16815260200160058201548152602001600682015481526020016007820180548060200260200160405190810160405280929190818152602001828054801561141d57602002820191906000526020600020905b8160009054906101000a900473ffffffffffffffffffffffffffffffffffffffff1673ffffffffffffffffffffffffffffffffffffffff16815260200190600101908083116113d3575b505050505081526020016008820154815260200160098201548152602001600a82018054806020026020016040519081016040528092919081815260200182805480156114bf57602002820191906000526020600020905b8160009054906101000a900473ffffffffffffffffffffffffffffffffffffffff1673ffffffffffffffffffffffffffffffffffffffff1681526020019060010190808311611475575b50505050508152602001600b8201548152505091506114ec565b80806114e4906157da565b915050611145565b50600060066000836060015173ffffffffffffffffffffffffffffffffffffffff1673ffffffffffffffffffffffffffffffffffffffff1681526020019081526020016000206040518060e0016040529081600082015481526020016001820160009054906101000a900473ffffffffffffffffffffffffffffffffffffffff1673ffffffffffffffffffffffffffffffffffffffff1673ffffffffffffffffffffffffffffffffffffffff1681526020016002820180546115ad906158a8565b80601f01602080910402602001604051908101604052809291908181526020018280546115d9906158a8565b80156116265780601f106115fb57610100808354040283529160200191611626565b820191906000526020600020905b81548152906001019060200180831161160957829003601f168201915b505050505081526020016003820180548060200260200160405190810160405280929190818152602001828054801561167e57602002820191906000526020600020905b81548152602001906001019080831161166a575b50505050508152602001600482018054806020026020016040519081016040528092919081815260200182805480156116d657602002820191906000526020600020905b8154815260200190600101908083116116c2575b505050505081526020016005820180548060200260200160405190810160405280929190818152602001828054801561172e57602002820191906000526020600020905b81548152602001906001019080831161171a575b50505050508152602001600682015481525050905060006007600084600001518152602001908152602001600020805480602002602001604051908101604052809291908181526020016000905b82821015611ae157838290600052602060002090600d0201604051806101a00160405290816000820154815260200160018201548152602001600282015481526020016003820180546117ce906158a8565b80601f01602080910402602001604051908101604052809291908181526020018280546117fa906158a8565b80156118475780601f1061181c57610100808354040283529160200191611847565b820191906000526020600020905b81548152906001019060200180831161182a57829003601f168201915b50505050508152602001600482018054611860906158a8565b80601f016020809104026020016040519081016040528092919081815260200182805461188c906158a8565b80156118d95780601f106118ae576101008083540402835291602001916118d9565b820191906000526020600020905b8154815290600101906020018083116118bc57829003601f168201915b505050505081526020016005820160009054906101000a900473ffffffffffffffffffffffffffffffffffffffff1673ffffffffffffffffffffffffffffffffffffffff1673ffffffffffffffffffffffffffffffffffffffff1681526020016006820160009054906101000a900473ffffffffffffffffffffffffffffffffffffffff1673ffffffffffffffffffffffffffffffffffffffff1673ffffffffffffffffffffffffffffffffffffffff1681526020016007820154815260200160088201805480602002602001604051908101604052809291908181526020018280548015611a1d57602002820191906000526020600020905b8160009054906101000a900473ffffffffffffffffffffffffffffffffffffffff1673ffffffffffffffffffffffffffffffffffffffff16815260200190600101908083116119d3575b5050505050815260200160098201548152602001600a8201548152602001600b8201805480602002602001604051908101604052809291908181526020018280548015611abf57602002820191906000526020600020905b8160009054906101000a900473ffffffffffffffffffffffffffffffffffffffff1673ffffffffffffffffffffffffffffffffffffffff1681526020019060010190808311611a75575b50505050508152602001600c820154815250508152602001906001019061177c565b5050505090508281839550955095505050509193909250565b611b02613dc8565b600082511415611b47576040517f08c379a0000000000000000000000000000000000000000000000000000000008152600401611b3e90615926565b60405180910390fd5b60006040518060e0016040528060045481526020013373ffffffffffffffffffffffffffffffffffffffff168152602001848152602001600067ffffffffffffffff811115611b9957611b9861447b565b5b604051908082528060200260200182016040528015611bc75781602001602082028036833780820191505090505b508152602001600067ffffffffffffffff811115611be857611be761447b565b5b604051908082528060200260200182016040528015611c165781602001602082028036833780820191505090505b508152602001600067ffffffffffffffff811115611c3757611c3661447b565b5b604051908082528060200260200182016040528015611c655781602001602082028036833780820191505090505b50815260200142815250905080600660003373ffffffffffffffffffffffffffffffffffffffff1673ffffffffffffffffffffffffffffffffffffffff1681526020019081526020016000206000820151816000015560208201518160010160006101000a81548173ffffffffffffffffffffffffffffffffffffffff021916908373ffffffffffffffffffffffffffffffffffffffff1602179055506040820151816002019080519060200190611d1e929190613c2b565b506060820151816003019080519060200190611d3b929190613e1b565b506080820151816004019080519060200190611d58929190613e1b565b5060a0820151816005019080519060200190611d75929190613e1b565b5060c0820151816006015590505060046000815480929190611d96906157da565b91905055507f35ce3ccc4e4d8114f3dcd288e157c011f700e316ff61ce9a81c2926eba963a0e81604051611dca91906152c6565b60405180910390a180915050919050565b6000611de684611128565b5050905060005b8160a00151811015611fd35783600760008781526020019081526020016000208281548110611e1f57611e1e61577c565b5b90600052602060002090600d0201600001541415611fc05782600760008781526020019081526020016000208281548110611e5d57611e5c61577c565b5b90600052602060002090600d02016000820151816000015560208201518160010155604082015181600201556060820151816003019080519060200190611ea5929190613c2b565b506080820151816004019080519060200190611ec2929190613c2b565b5060a08201518160050160006101000a81548173ffffffffffffffffffffffffffffffffffffffff021916908373ffffffffffffffffffffffffffffffffffffffff16021790555060c08201518160060160006101000a81548173ffffffffffffffffffffffffffffffffffffffff021916908373ffffffffffffffffffffffffffffffffffffffff16021790555060e08201518160070155610100820151816008019080519060200190611f78929190613cb1565b50610120820151816009015561014082015181600a015561016082015181600b019080519060200190611fac929190613cb1565b5061018082015181600c0155905050611fd3565b8080611fcb906157da565b915050611ded565b5050505050565b60006001600083815260200190815260200160002060009054906101000a900473ffffffffffffffffffffffffffffffffffffffff169050919050565b61201f613e68565b600061202a84611128565b50509050600061203a8585613828565b905060008160c0015190508073ffffffffffffffffffffffffffffffffffffffff166108fc349081150290604051600060405180830381858888f1935050505015801561208b573d6000803e3d6000fd5b5034826101400181815161209f9190615823565b9150818152505062278d0083610160018181516120bc9190615823565b9150818152505062278d0082610180018181516120d99190615823565b915081815250506120eb868684611ddb565b6120f58387610866565b7ffaeed9db3bf38f90b2323fc6d8e9ef9f327d6ec2b45f51d01f2282559f723918826040516121249190615648565b60405180910390a181935050505092915050565b612140613d3b565b600082511415612185576040517f08c379a000000000000000000000000000000000000000000000000000000000815260040161217c90615992565b60405180910390fd5b60006040518061018001604052806005548152602001848152602001600660003373ffffffffffffffffffffffffffffffffffffffff1673ffffffffffffffffffffffffffffffffffffffff16815260200190815260200160002060020180546121ee906158a8565b80601f016020809104026020016040519081016040528092919081815260200182805461221a906158a8565b80156122675780601f1061223c57610100808354040283529160200191612267565b820191906000526020600020905b81548152906001019060200180831161224a57829003601f168201915b505050505081526020013373ffffffffffffffffffffffffffffffffffffffff1681526020013373ffffffffffffffffffffffffffffffffffffffff1681526020016000815260200160008152602001600067ffffffffffffffff8111156122d2576122d161447b565b5b6040519080825280602002602001820160405280156123005781602001602082028036833780820191505090505b50815260200142815260200160008152602001600067ffffffffffffffff81111561232e5761232d61447b565b5b60405190808252806020026020018201604052801561235c5781602001602082028036833780820191505090505b50815260200162278d00426123719190615823565b815250905060088190806001815401808255809150506001900390600052602060002090600c02016000909190919091506000820151816000015560208201518160010190805190602001906123c8929190613c2b565b5060408201518160020190805190602001906123e5929190613c2b565b5060608201518160030160006101000a81548173ffffffffffffffffffffffffffffffffffffffff021916908373ffffffffffffffffffffffffffffffffffffffff16021790555060808201518160040160006101000a81548173ffffffffffffffffffffffffffffffffffffffff021916908373ffffffffffffffffffffffffffffffffffffffff16021790555060a0820151816005015560c0820151816006015560e08201518160070190805190602001906124a4929190613cb1565b506101008201518160080155610120820151816009015561014082015181600a0190805190602001906124d8929190613cb1565b5061016082015181600b01555050600560008154809291906124f9906157da565b919050555060096007600083600001518152602001908152602001600020908054612525929190613efc565b50600660003373ffffffffffffffffffffffffffffffffffffffff1673ffffffffffffffffffffffffffffffffffffffff168152602001908152602001600020600301816000015190806001815401808255809150506001900390600052602060002001600090919091909150557f5fded981c983dc58ebfd471713357642f524c529a0150aa917059c904905a9e1816040516125c2919061566a565b60405180910390a180915050919050565b60008060008373ffffffffffffffffffffffffffffffffffffffff1673ffffffffffffffffffffffffffffffffffffffff168152602001908152602001600020549050919050565b60066020528060005260406000206000915090508060000154908060010160009054906101000a900473ffffffffffffffffffffffffffffffffffffffff169080600201805461266a906158a8565b80601f0160208091040260200160405190810160405280929190818152602001828054612696906158a8565b80156126e35780601f106126b8576101008083540402835291602001916126e3565b820191906000526020600020905b8154815290600101906020018083116126c657829003601f168201915b5050505050908060060154905084565b6126fc81611fda565b73ffffffffffffffffffffffffffffffffffffffff163373ffffffffffffffffffffffffffffffffffffffff161461273357600080fd5b816001600083815260200190815260200160002060006101000a81548173ffffffffffffffffffffffffffffffffffffffff021916908373ffffffffffffffffffffffffffffffffffffffff16021790555060006127df600260008481526020019081526020016000206000600281106127b0576127af61577c565b5b0154600260008581526020019081526020016000206001600281106127d8576127d761577c565b5b0154613828565b9050828160c0019073ffffffffffffffffffffffffffffffffffffffff16908173ffffffffffffffffffffffffffffffffffffffff1681525050612872600260008481526020019081526020016000206000600281106128425761284161577c565b5b01546002600085815260200190815260200160002060016002811061286a5761286961577c565b5b015483611ddb565b505050565b50565b60055481565b612888613d3b565b600061289383611128565b505090508060c00180518091906128a9906157da565b8152505062278d0081610160018181516128c39190615823565b915081815250506128d48184610866565b7fe977d9a5135652c602b8ff0089b72f0673502977c342a2b56f4fc86ab6127a6d81604051612903919061566a565b60405180910390a180915050919050565b61291c613dc8565b6000600660008473ffffffffffffffffffffffffffffffffffffffff1673ffffffffffffffffffffffffffffffffffffffff1681526020019081526020016000206040518060e0016040529081600082015481526020016001820160009054906101000a900473ffffffffffffffffffffffffffffffffffffffff1673ffffffffffffffffffffffffffffffffffffffff1673ffffffffffffffffffffffffffffffffffffffff1681526020016002820180546129d8906158a8565b80601f0160208091040260200160405190810160405280929190818152602001828054612a04906158a8565b8015612a515780601f10612a2657610100808354040283529160200191612a51565b820191906000526020600020905b815481529060010190602001808311612a3457829003601f168201915b5050505050815260200160038201805480602002602001604051908101604052809291908181526020018280548015612aa957602002820191906000526020600020905b815481526020019060010190808311612a95575b5050505050815260200160048201805480602002602001604051908101604052809291908181526020018280548015612b0157602002820191906000526020600020905b815481526020019060010190808311612aed575b5050505050815260200160058201805480602002602001604051908101604052809291908181526020018280548015612b5957602002820191906000526020600020905b815481526020019060010190808311612b45575b50505050508152602001600682015481525050905080915050919050565b612b7f613e68565b600082511415612bc4576040517f08c379a0000000000000000000000000000000000000000000000000000000008152600401612bbb906159fe565b60405180910390fd5b6000612bcf84611128565b505090506000604051806101a001604052808360a0015181526020018681526020016003548152602001858152602001600660003373ffffffffffffffffffffffffffffffffffffffff1673ffffffffffffffffffffffffffffffffffffffff1681526020019081526020016000206002018054612c4c906158a8565b80601f0160208091040260200160405190810160405280929190818152602001828054612c78906158a8565b8015612cc55780601f10612c9a57610100808354040283529160200191612cc5565b820191906000526020600020905b815481529060010190602001808311612ca857829003601f168201915b505050505081526020013373ffffffffffffffffffffffffffffffffffffffff1681526020013373ffffffffffffffffffffffffffffffffffffffff16815260200160008152602001600067ffffffffffffffff811115612d2957612d2861447b565b5b604051908082528060200260200182016040528015612d575781602001602082028036833780820191505090505b50815260200142815260200160008152602001600067ffffffffffffffff811115612d8557612d8461447b565b5b604051908082528060200260200182016040528015612db35781602001602082028036833780820191505090505b50815260200162278d0042612dc89190615823565b8152509050600760008681526020019081526020016000208190806001815401808255809150506001900390600052602060002090600d02016000909190919091506000820151816000015560208201518160010155604082015181600201556060820151816003019080519060200190612e44929190613c2b565b506080820151816004019080519060200190612e61929190613c2b565b5060a08201518160050160006101000a81548173ffffffffffffffffffffffffffffffffffffffff021916908373ffffffffffffffffffffffffffffffffffffffff16021790555060c08201518160060160006101000a81548173ffffffffffffffffffffffffffffffffffffffff021916908373ffffffffffffffffffffffffffffffffffffffff16021790555060e08201518160070155610100820151816008019080519060200190612f17929190613cb1565b50610120820151816009015561014082015181600a015561016082015181600b019080519060200190612f4b929190613cb1565b5061018082015181600c015550508160a0018051809190612f6b906157da565b81525050600660003373ffffffffffffffffffffffffffffffffffffffff1673ffffffffffffffffffffffffffffffffffffffff168152602001908152602001600020600401859080600181540180825580915050600190039060005260206000200160009091909190915055600660003373ffffffffffffffffffffffffffffffffffffffff1673ffffffffffffffffffffffffffffffffffffffff1681526020019081526020016000206005018160000151908060018154018082558091505060019003906000526020600020016000909190919091505561304f8286610866565b6040518060400160405280868152602001826000015181525060026000600354815260200190815260200160002090600261308b9291906140d6565b503360016000600354815260200190815260200160002060006101000a81548173ffffffffffffffffffffffffffffffffffffffff021916908373ffffffffffffffffffffffffffffffffffffffff1602179055506000803373ffffffffffffffffffffffffffffffffffffffff1673ffffffffffffffffffffffffffffffffffffffff168152602001908152602001600020600081548092919061312f906157da565b919050555060036000815480929190613147906157da565b9190505550809250505092915050565b61315f613d3b565b600061316a83611128565b505090503481610120018181516131819190615823565b915081815250506131928184610866565b7fe2fcf83bcc8e103341bbc6fc68517eb3696b3dca03e6cc2cdf1c5dd50ce8f018816040516131c1919061566a565b60405180910390a180915050919050565b6131da613e68565b60006131e584611128565b5050905060006131f58585613828565b90508060e0018051809190613209906157da565b8152505062278d0082610160018181516132239190615823565b9150818152505062278d0081610180018181516132409190615823565b91508181525050613252858583611ddb565b61325c8286610866565b7faece473cf907ba7399dc0e00cb038051581d8aba01b365c1935bafd99f2f4a168160405161328b9190615648565b60405180910390a1809250505092915050565b60045481565b60005b60055481101561381f576000600882815481106132c7576132c661577c565b5b90600052602060002090600c020160405180610180016040529081600082015481526020016001820180546132fb906158a8565b80601f0160208091040260200160405190810160405280929190818152602001828054613327906158a8565b80156133745780601f1061334957610100808354040283529160200191613374565b820191906000526020600020905b81548152906001019060200180831161335757829003601f168201915b5050505050815260200160028201805461338d906158a8565b80601f01602080910402602001604051908101604052809291908181526020018280546133b9906158a8565b80156134065780601f106133db57610100808354040283529160200191613406565b820191906000526020600020905b8154815290600101906020018083116133e957829003601f168201915b505050505081526020016003820160009054906101000a900473ffffffffffffffffffffffffffffffffffffffff1673ffffffffffffffffffffffffffffffffffffffff1673ffffffffffffffffffffffffffffffffffffffff1681526020016004820160009054906101000a900473ffffffffffffffffffffffffffffffffffffffff1673ffffffffffffffffffffffffffffffffffffffff1673ffffffffffffffffffffffffffffffffffffffff16815260200160058201548152602001600682015481526020016007820180548060200260200160405190810160405280929190818152602001828054801561355457602002820191906000526020600020905b8160009054906101000a900473ffffffffffffffffffffffffffffffffffffffff1673ffffffffffffffffffffffffffffffffffffffff168152602001906001019080831161350a575b505050505081526020016008820154815260200160098201548152602001600a82018054806020026020016040519081016040528092919081815260200182805480156135f657602002820191906000526020600020905b8160009054906101000a900473ffffffffffffffffffffffffffffffffffffffff1673ffffffffffffffffffffffffffffffffffffffff16815260200190600101908083116135ac575b50505050508152602001600b82015481525050905042816101600151101561380b576136258160000151610693565b600860016005546136369190615a1e565b815481106136475761364661577c565b5b90600052602060002090600c0201600883815481106136695761366861577c565b5b90600052602060002090600c0201600082015481600001556001820181600101908054613695906158a8565b6136a0929190614116565b5060028201816002019080546136b5906158a8565b6136c0929190614116565b506003820160009054906101000a900473ffffffffffffffffffffffffffffffffffffffff168160030160006101000a81548173ffffffffffffffffffffffffffffffffffffffff021916908373ffffffffffffffffffffffffffffffffffffffff1602179055506004820160009054906101000a900473ffffffffffffffffffffffffffffffffffffffff168160040160006101000a81548173ffffffffffffffffffffffffffffffffffffffff021916908373ffffffffffffffffffffffffffffffffffffffff160217905550600582015481600501556006820154816006015560078201816007019080546137b99291906141a3565b506008820154816008015560098201548160090155600a820181600a019080546137e49291906141a3565b50600b82015481600b01559050506005600081548092919061380590615a52565b91905055505b508080613817906157da565b9150506132a7565b50565b60035481565b613830613e68565b600061383b84611128565b50509050613847613e68565b60005b8260a00151811015613c1f578460076000888152602001908152602001600020828154811061387c5761387b61577c565b5b90600052602060002090600d0201600001541415613c0c576007600087815260200190815260200160002081815481106138b9576138b861577c565b5b90600052602060002090600d0201604051806101a0016040529081600082015481526020016001820154815260200160028201548152602001600382018054613901906158a8565b80601f016020809104026020016040519081016040528092919081815260200182805461392d906158a8565b801561397a5780601f1061394f5761010080835404028352916020019161397a565b820191906000526020600020905b81548152906001019060200180831161395d57829003601f168201915b50505050508152602001600482018054613993906158a8565b80601f01602080910402602001604051908101604052809291908181526020018280546139bf906158a8565b8015613a0c5780601f106139e157610100808354040283529160200191613a0c565b820191906000526020600020905b8154815290600101906020018083116139ef57829003601f168201915b505050505081526020016005820160009054906101000a900473ffffffffffffffffffffffffffffffffffffffff1673ffffffffffffffffffffffffffffffffffffffff1673ffffffffffffffffffffffffffffffffffffffff1681526020016006820160009054906101000a900473ffffffffffffffffffffffffffffffffffffffff1673ffffffffffffffffffffffffffffffffffffffff1673ffffffffffffffffffffffffffffffffffffffff1681526020016007820154815260200160088201805480602002602001604051908101604052809291908181526020018280548015613b5057602002820191906000526020600020905b8160009054906101000a900473ffffffffffffffffffffffffffffffffffffffff1673ffffffffffffffffffffffffffffffffffffffff1681526020019060010190808311613b06575b5050505050815260200160098201548152602001600a8201548152602001600b8201805480602002602001604051908101604052809291908181526020018280548015613bf257602002820191906000526020600020905b8160009054906101000a900473ffffffffffffffffffffffffffffffffffffffff1673ffffffffffffffffffffffffffffffffffffffff1681526020019060010190808311613ba8575b50505050508152602001600c820154815250509150613c1f565b8080613c17906157da565b91505061384a565b50809250505092915050565b828054613c37906158a8565b90600052602060002090601f016020900481019282613c595760008555613ca0565b82601f10613c7257805160ff1916838001178555613ca0565b82800160010185558215613ca0579182015b82811115613c9f578251825591602001919060010190613c84565b5b509050613cad91906141f5565b5090565b828054828255906000526020600020908101928215613d2a579160200282015b82811115613d295782518260006101000a81548173ffffffffffffffffffffffffffffffffffffffff021916908373ffffffffffffffffffffffffffffffffffffffff16021790555091602001919060010190613cd1565b5b509050613d3791906141f5565b5090565b604051806101800160405280600081526020016060815260200160608152602001600073ffffffffffffffffffffffffffffffffffffffff168152602001600073ffffffffffffffffffffffffffffffffffffffff168152602001600081526020016000815260200160608152602001600081526020016000815260200160608152602001600081525090565b6040518060e0016040528060008152602001600073ffffffffffffffffffffffffffffffffffffffff16815260200160608152602001606081526020016060815260200160608152602001600081525090565b828054828255906000526020600020908101928215613e57579160200282015b82811115613e56578251825591602001919060010190613e3b565b5b509050613e6491906141f5565b5090565b604051806101a001604052806000815260200160008152602001600081526020016060815260200160608152602001600073ffffffffffffffffffffffffffffffffffffffff168152602001600073ffffffffffffffffffffffffffffffffffffffff1681526020016000815260200160608152602001600081526020016000815260200160608152602001600081525090565b82805482825590600052602060002090600d0281019282156140c557600052602060002091600d0282015b828111156140c45782826000820154816000015560018201548160010155600282015481600201556003820181600301908054613f63906158a8565b613f6e929190614116565b506004820181600401908054613f83906158a8565b613f8e929190614116565b506005820160009054906101000a900473ffffffffffffffffffffffffffffffffffffffff168160050160006101000a81548173ffffffffffffffffffffffffffffffffffffffff021916908373ffffffffffffffffffffffffffffffffffffffff1602179055506006820160009054906101000a900473ffffffffffffffffffffffffffffffffffffffff168160060160006101000a81548173ffffffffffffffffffffffffffffffffffffffff021916908373ffffffffffffffffffffffffffffffffffffffff16021790555060078201548160070155600882018160080190805461407d9291906141a3565b5060098201548160090155600a82015481600a0155600b820181600b019080546140a89291906141a3565b50600c82015481600c0155505091600d019190600d0190613f27565b5b5090506140d29190614212565b5090565b8260028101928215614105579160200282015b828111156141045782518255916020019190600101906140e9565b5b50905061411291906141f5565b5090565b828054614122906158a8565b90600052602060002090601f0160209004810192826141445760008555614192565b82601f106141555780548555614192565b8280016001018555821561419257600052602060002091601f016020900482015b82811115614191578254825591600101919060010190614176565b5b50905061419f91906141f5565b5090565b8280548282559060005260206000209081019282156141e45760005260206000209182015b828111156141e35782548255916001019190600101906141c8565b5b5090506141f191906141f5565b5090565b5b8082111561420e5760008160009055506001016141f6565b5090565b5b808211156142eb576000808201600090556001820160009055600282016000905560038201600061424491906142ef565b60048201600061425491906142ef565b6005820160006101000a81549073ffffffffffffffffffffffffffffffffffffffff02191690556006820160006101000a81549073ffffffffffffffffffffffffffffffffffffffff021916905560078201600090556008820160006142ba919061432f565b6009820160009055600a820160009055600b820160006142da919061432f565b600c82016000905550600d01614213565b5090565b5080546142fb906158a8565b6000825580601f1061430d575061432c565b601f01602090049060005260206000209081019061432b91906141f5565b5b50565b508054600082559060005260206000209081019061434d91906141f5565b50565b6000604051905090565b600080fd5b600080fd5b600073ffffffffffffffffffffffffffffffffffffffff82169050919050565b600061438f82614364565b9050919050565b61439f81614384565b81146143aa57600080fd5b50565b6000813590506143bc81614396565b92915050565b6000819050919050565b6143d5816143c2565b81146143e057600080fd5b50565b6000813590506143f2816143cc565b92915050565b6000806040838503121561440f5761440e61435a565b5b600061441d858286016143ad565b925050602061442e858286016143e3565b9150509250929050565b60006020828403121561444e5761444d61435a565b5b600061445c848285016143e3565b91505092915050565b600080fd5b6000601f19601f8301169050919050565b7f4e487b7100000000000000000000000000000000000000000000000000000000600052604160045260246000fd5b6144b38261446a565b810181811067ffffffffffffffff821117156144d2576144d161447b565b5b80604052505050565b60006144e5614350565b90506144f182826144aa565b919050565b600080fd5b600080fd5b600080fd5b600067ffffffffffffffff8211156145205761451f61447b565b5b6145298261446a565b9050602081019050919050565b82818337600083830152505050565b600061455861455384614505565b6144db565b90508281526020810184848401111561457457614573614500565b5b61457f848285614536565b509392505050565b600082601f83011261459c5761459b6144fb565b5b81356145ac848260208601614545565b91505092915050565b600067ffffffffffffffff8211156145d0576145cf61447b565b5b602082029050602081019050919050565b600080fd5b60006145f96145f4846145b5565b6144db565b9050808382526020820190506020840283018581111561461c5761461b6145e1565b5b835b81811015614645578061463188826143ad565b84526020840193505060208101905061461e565b5050509392505050565b600082601f830112614664576146636144fb565b5b81356146748482602086016145e6565b91505092915050565b6000610180828403121561469457614693614465565b5b61469f6101806144db565b905060006146af848285016143e3565b600083015250602082013567ffffffffffffffff8111156146d3576146d26144f6565b5b6146df84828501614587565b602083015250604082013567ffffffffffffffff811115614703576147026144f6565b5b61470f84828501614587565b6040830152506060614723848285016143ad565b6060830152506080614737848285016143ad565b60808301525060a061474b848285016143e3565b60a08301525060c061475f848285016143e3565b60c08301525060e082013567ffffffffffffffff811115614783576147826144f6565b5b61478f8482850161464f565b60e0830152506101006147a4848285016143e3565b610100830152506101206147ba848285016143e3565b6101208301525061014082013567ffffffffffffffff8111156147e0576147df6144f6565b5b6147ec8482850161464f565b61014083015250610160614802848285016143e3565b6101608301525092915050565b600080604083850312156148265761482561435a565b5b600083013567ffffffffffffffff8111156148445761484361435f565b5b6148508582860161467d565b9250506020614861858286016143e3565b9150509250929050565b600080604083850312156148825761488161435a565b5b6000614890858286016143e3565b92505060206148a1858286016143e3565b9150509250929050565b6148b4816143c2565b82525050565b600081519050919050565b600082825260208201905092915050565b60005b838110156148f45780820151818401526020810190506148d9565b83811115614903576000848401525b50505050565b6000614914826148ba565b61491e81856148c5565b935061492e8185602086016148d6565b6149378161446a565b840191505092915050565b61494b81614384565b82525050565b600061016082019050614967600083018e6148ab565b614974602083018d6148ab565b614981604083018c6148ab565b8181036060830152614993818b614909565b905081810360808301526149a7818a614909565b90506149b660a0830189614942565b6149c360c0830188614942565b6149d060e08301876148ab565b6149de6101008301866148ab565b6149ec6101208301856148ab565b6149fa6101408301846148ab565b9c9b505050505050505050505050565b600081519050919050565b600082825260208201905092915050565b6000819050602082019050919050565b614a3f816143c2565b82525050565b600082825260208201905092915050565b6000614a61826148ba565b614a6b8185614a45565b9350614a7b8185602086016148d6565b614a848161446a565b840191505092915050565b614a9881614384565b82525050565b600081519050919050565b600082825260208201905092915050565b6000819050602082019050919050565b6000614ad68383614a8f565b60208301905092915050565b6000602082019050919050565b6000614afa82614a9e565b614b048185614aa9565b9350614b0f83614aba565b8060005b83811015614b40578151614b278882614aca565b9750614b3283614ae2565b925050600181019050614b13565b5085935050505092915050565b600061018083016000830151614b666000860182614a36565b5060208301518482036020860152614b7e8282614a56565b91505060408301518482036040860152614b988282614a56565b9150506060830151614bad6060860182614a8f565b506080830151614bc06080860182614a8f565b5060a0830151614bd360a0860182614a36565b5060c0830151614be660c0860182614a36565b5060e083015184820360e0860152614bfe8282614aef565b915050610100830151614c15610100860182614a36565b50610120830151614c2a610120860182614a36565b50610140830151848203610140860152614c448282614aef565b915050610160830151614c5b610160860182614a36565b508091505092915050565b6000614c728383614b4d565b905092915050565b6000602082019050919050565b6000614c9282614a0a565b614c9c8185614a15565b935083602082028501614cae85614a26565b8060005b85811015614cea5784840389528151614ccb8582614c66565b9450614cd683614c7a565b925060208a01995050600181019050614cb2565b50829750879550505050505092915050565b60006020820190508181036000830152614d168184614c87565b905092915050565b600061014082019050614d34600083018d6148ab565b8181036020830152614d46818c614909565b90508181036040830152614d5a818b614909565b9050614d69606083018a614942565b614d766080830189614942565b614d8360a08301886148ab565b614d9060c08301876148ab565b614d9d60e08301866148ab565b614dab6101008301856148ab565b614db96101208301846148ab565b9b9a5050505050505050505050565b600061018083016000830151614de16000860182614a36565b5060208301518482036020860152614df98282614a56565b91505060408301518482036040860152614e138282614a56565b9150506060830151614e286060860182614a8f565b506080830151614e3b6080860182614a8f565b5060a0830151614e4e60a0860182614a36565b5060c0830151614e6160c0860182614a36565b5060e083015184820360e0860152614e798282614aef565b915050610100830151614e90610100860182614a36565b50610120830151614ea5610120860182614a36565b50610140830151848203610140860152614ebf8282614aef565b915050610160830151614ed6610160860182614a36565b508091505092915050565b600081519050919050565b600082825260208201905092915050565b6000819050602082019050919050565b60006101a083016000830151614f266000860182614a36565b506020830151614f396020860182614a36565b506040830151614f4c6040860182614a36565b5060608301518482036060860152614f648282614a56565b91505060808301518482036080860152614f7e8282614a56565b91505060a0830151614f9360a0860182614a8f565b5060c0830151614fa660c0860182614a8f565b5060e0830151614fb960e0860182614a36565b50610100830151848203610100860152614fd38282614aef565b915050610120830151614fea610120860182614a36565b50610140830151614fff610140860182614a36565b506101608301518482036101608601526150198282614aef565b915050610180830151615030610180860182614a36565b508091505092915050565b60006150478383614f0d565b905092915050565b6000602082019050919050565b600061506782614ee1565b6150718185614eec565b93508360208202850161508385614efd565b8060005b858110156150bf57848403895281516150a0858261503b565b94506150ab8361504f565b925060208a01995050600181019050615087565b50829750879550505050505092915050565b600081519050919050565b600082825260208201905092915050565b6000819050602082019050919050565b60006151098383614a36565b60208301905092915050565b6000602082019050919050565b600061512d826150d1565b61513781856150dc565b9350615142836150ed565b8060005b8381101561517357815161515a88826150fd565b975061516583615115565b925050600181019050615146565b5085935050505092915050565b600060e0830160008301516151986000860182614a36565b5060208301516151ab6020860182614a8f565b50604083015184820360408601526151c38282614a56565b915050606083015184820360608601526151dd8282615122565b915050608083015184820360808601526151f78282615122565b91505060a083015184820360a08601526152118282615122565b91505060c083015161522660c0860182614a36565b508091505092915050565b6000606082019050818103600083015261524b8186614dc8565b9050818103602083015261525f818561505c565b905081810360408301526152738184615180565b9050949350505050565b6000602082840312156152935761529261435a565b5b600082013567ffffffffffffffff8111156152b1576152b061435f565b5b6152bd84828501614587565b91505092915050565b600060208201905081810360008301526152e08184615180565b905092915050565b60006101a082840312156152ff576152fe614465565b5b61530a6101a06144db565b9050600061531a848285016143e3565b600083015250602061532e848285016143e3565b6020830152506040615342848285016143e3565b604083015250606082013567ffffffffffffffff811115615366576153656144f6565b5b61537284828501614587565b606083015250608082013567ffffffffffffffff811115615396576153956144f6565b5b6153a284828501614587565b60808301525060a06153b6848285016143ad565b60a08301525060c06153ca848285016143ad565b60c08301525060e06153de848285016143e3565b60e08301525061010082013567ffffffffffffffff811115615403576154026144f6565b5b61540f8482850161464f565b61010083015250610120615425848285016143e3565b6101208301525061014061543b848285016143e3565b6101408301525061016082013567ffffffffffffffff811115615461576154606144f6565b5b61546d8482850161464f565b61016083015250610180615483848285016143e3565b6101808301525092915050565b6000806000606084860312156154a9576154a861435a565b5b60006154b7868287016143e3565b93505060206154c8868287016143e3565b925050604084013567ffffffffffffffff8111156154e9576154e861435f565b5b6154f5868287016152e8565b9150509250925092565b60006020820190506155146000830184614942565b92915050565b60006101a0830160008301516155336000860182614a36565b5060208301516155466020860182614a36565b5060408301516155596040860182614a36565b50606083015184820360608601526155718282614a56565b9150506080830151848203608086015261558b8282614a56565b91505060a08301516155a060a0860182614a8f565b5060c08301516155b360c0860182614a8f565b5060e08301516155c660e0860182614a36565b506101008301518482036101008601526155e08282614aef565b9150506101208301516155f7610120860182614a36565b5061014083015161560c610140860182614a36565b506101608301518482036101608601526156268282614aef565b91505061018083015161563d610180860182614a36565b508091505092915050565b60006020820190508181036000830152615662818461551a565b905092915050565b600060208201905081810360008301526156848184614dc8565b905092915050565b6000602082840312156156a2576156a161435a565b5b60006156b0848285016143ad565b91505092915050565b60006020820190506156ce60008301846148ab565b92915050565b60006080820190506156e960008301876148ab565b6156f66020830186614942565b81810360408301526157088185614909565b905061571760608301846148ab565b95945050505050565b600080604083850312156157375761573661435a565b5b6000615745858286016143e3565b925050602083013567ffffffffffffffff8111156157665761576561435f565b5b61577285828601614587565b9150509250929050565b7f4e487b7100000000000000000000000000000000000000000000000000000000600052603260045260246000fd5b7f4e487b7100000000000000000000000000000000000000000000000000000000600052601160045260246000fd5b60006157e5826143c2565b91507fffffffffffffffffffffffffffffffffffffffffffffffffffffffffffffffff821415615818576158176157ab565b5b600182019050919050565b600061582e826143c2565b9150615839836143c2565b9250827fffffffffffffffffffffffffffffffffffffffffffffffffffffffffffffffff0382111561586e5761586d6157ab565b5b828201905092915050565b7f4e487b7100000000000000000000000000000000000000000000000000000000600052602260045260246000fd5b600060028204905060018216806158c057607f821691505b602082108114156158d4576158d3615879565b5b50919050565b7f557365726e616d65206973207265717569726564000000000000000000000000600082015250565b60006159106014836148c5565b915061591b826158da565b602082019050919050565b6000602082019050818103600083015261593f81615903565b9050919050565b7f5175657374696f6e2063616e6e6f7420626520656d7074790000000000000000600082015250565b600061597c6018836148c5565b915061598782615946565b602082019050919050565b600060208201905081810360008301526159ab8161596f565b9050919050565b7f416e737765722063616e6e6f7420626520656d70747900000000000000000000600082015250565b60006159e86016836148c5565b91506159f3826159b2565b602082019050919050565b60006020820190508181036000830152615a17816159db565b9050919050565b6000615a29826143c2565b9150615a34836143c2565b925082821015615a4757615a466157ab565b5b828203905092915050565b6000615a5d826143c2565b91506000821415615a7157615a706157ab565b5b60018203905091905056fea2646970667358221220d49d612a11876f61899da24a391923482bcc7118bc66fdf0f3d2c1f21dc701c964736f6c634300080b0033",
  "immutableReferences": {},
  "source": "// SPDX-License-Identifier: MIT\npragma solidity >=0.4.22 <0.9.0;\nimport \"./erc721.sol\";\n\ncontract DeQuora is ERC721 {\n    /**\n     * @notice NFT\n     */\n\n    //NFT\n    mapping(address => uint256) private _balances;\n    mapping(uint256 => address) private _owners;\n    mapping(uint256 => uint[2]) private _NFT_answers; // NFT_id to question id and answerId\n    \n    uint256 public NFT_id_generator = 0; // global unique answer id\n\n\n    function balanceOf(\n        address _owner\n    ) public view override returns (uint256 _balance) {\n        // 1.  `_owner` NFT\n        return _balances[_owner];\n    }\n\n    function ownerOf(\n        uint256 _tokenId\n    ) public view override returns (address _owner) {\n        // 2.  `_tokenId` \n        return _owners[_tokenId];\n    }\n\n    function transfer(address _to, uint256 _tokenId) public override {\n        require(msg.sender == ownerOf(_tokenId));\n        _owners[_tokenId] = _to;\n        Answer memory NFT_answer= get_answer(_NFT_answers[_tokenId][0],_NFT_answers[_tokenId][1]);\n        NFT_answer.owner_address = _to;\n        set_answer(_NFT_answers[_tokenId][0], _NFT_answers[_tokenId][1],NFT_answer);\n    }\n\n    function approve(address _to, uint256 _tokenId) public override {}\n\n    function takeOwnership(uint256 _tokenId) public override {\n\n    }\n\n    /**\n     * @notice for code refactoring and upgrading by Joshua\n     */\n    // enum ItemKind {\n    //     Question,\n    //     Answer\n    // }\n    // struct Item {\n    //     /// @notice what kind of item (post or comment)\n    //     ItemKind kind;\n    //     /// @notice Unique item id, assigned at creation time.\n    //     uint256 id;\n    //     /// @notice address of author.\n    //     address author;\n    //     /// @notice Id of parent item. Questions have parentId == 0.\n    //     uint256 parentId;\n    //     /// @notice block number when item was submitted\n    //     uint256 createdAtBlock;\n    //     /// @notice ids of all child items, with oldest items at front.\n    //     uint256[] childIds;\n    //     /// @notice IPFS CID o  f item content.\n    //     string contentCID;\n    // }\n\n    /**\n     * @notice \n     */\n\n    struct User {\n        uint256 id;\n        address account;\n        string name;\n        uint256[] questions;\n        uint256[] answered_questions;\n        uint256[] answers;\n        uint256 joined_on;\n    }\n\n    struct Question {\n        uint256 id;\n        string question;\n        string author_name;\n        address author_address;\n        address owner_address;\n        uint256 total_answers;\n        uint256 likes;\n        address[] liked_by;\n        uint256 created_on;\n        uint256 bonus_pool;\n        address[] support_by;\n        uint expire;\n    }\n\n    struct Answer {\n        uint256 id;\n        uint256 question_id;\n        uint256 NFT_id;\n        string answer;\n        string author_name;\n        address author_address;\n        address owner_address;\n        uint256 likes;\n        address[] liked_by;\n        uint256 created_on;\n        uint256 bonus;\n        address[] support_by;\n        uint256 expire;\n    }\n    // useless code\n    // struct QuestionAnswer {\n    //     Question question;\n    //     Answer[] answers;\n    // }\n\n    uint256 public total_users; //user count\n    uint256 public total_questions; // question count\n    \n\n    mapping(address => User) public users;\n    mapping(uint256 => Answer[]) public answers; //question_id to answers\n    Question[] public questions; // all questions\n    Answer[] answers_array;\n    event new_user_added(User);\n    event main_deployed(string);\n    event question_added(Question);\n    event answer_tipped(Answer);\n    event question_tipped(Question);\n    event answer_liked(Answer);\n    event question_liked(Question);\n    event question_bonus_divided(Question);\n    constructor() {\n        total_users = 0;\n        total_questions = 0;\n        emit main_deployed(\"Main is deployed\");\n    }\n\n    function create_user(\n        string memory _name\n    ) public payable returns (User memory) {\n        require(bytes(_name).length != 0, \"Username is required\");\n        User memory newUser = User(\n            total_users,\n            msg.sender,\n            _name,\n            new uint256[](0),\n            new uint256[](0),\n            new uint256[](0),\n            block.timestamp\n        );\n        users[msg.sender] = newUser;\n        total_users++;\n        emit new_user_added(newUser);\n        return newUser;\n    }\n\n    function get_user_details(\n        address _user_address\n    ) public view returns (User memory) {\n        User memory user = users[_user_address];\n        return user;\n    }\n\n    function add_question(\n        string memory _question\n    ) public payable returns (Question memory) {\n        require(bytes(_question).length != 0, \"Question cannot be empty\");\n        //Question\n        Question memory newQuestion = Question(\n            total_questions,\n            _question,\n            users[msg.sender].name,\n            msg.sender,\n            msg.sender,\n            0,\n            0,\n            new address[](0),\n            block.timestamp,\n            0,\n            new address[](0),\n            block.timestamp + 30 days\n        );\n        //questions\n        questions.push(newQuestion);\n        total_questions++;\n        //Answer\n        answers[newQuestion.id] = answers_array;\n        //\n        users[msg.sender].questions.push(newQuestion.id);\n\n        emit question_added(newQuestion);\n\n        return newQuestion;\n    }\n\n    function get_all_questions() public view returns (Question[] memory) {\n        return questions;\n    }\n\n    function get_question(\n        uint256 _question_id\n    ) public view returns (Question memory, Answer[] memory, User memory) {\n        Question memory question;\n\n        //iterate over all the questions\n        for (uint256 i = 0; i < total_questions; i++) {\n            // check for the question with the given id\n            if (questions[i].id == _question_id) {\n                //return the question with the given id, and corresponding author\n                question = questions[i];\n                break;\n            }\n        }\n        User memory _author = users[question.author_address];\n        Answer[] memory _answers = answers[question.id];\n        return (question, _answers, _author);\n    }\n\n    function set_question(\n        Question memory _question,\n        uint256 _question_id\n    ) public {\n        for (uint256 i = 0; i < total_questions; i++) {\n            if (questions[i].id == _question_id) {\n                questions[i] = _question;\n                break;\n            }\n        }\n    }\n\n    function add_answer(\n        uint256 _question_id,\n        string memory _answer\n    ) public payable returns (Answer memory) {\n        require(bytes(_answer).length != 0, \"Answer cannot be empty\");\n        (Question memory question, , ) = get_question(_question_id);\n        // require(\n        //     question.author_address != msg.sender,\n        //     \"Author cannot answer his/her own question\"\n        // );\n\n        Answer memory answer = Answer(\n            question.total_answers,\n            _question_id,\n            NFT_id_generator, // NFT token\n            _answer,\n            users[msg.sender].name,\n            msg.sender,\n            msg.sender,\n            0,\n            new address[](0),\n            block.timestamp,\n            0,\n            new address[](0),\n            block.timestamp + 30 days\n        );\n\n        answers[_question_id].push(answer);\n        question.total_answers++;\n\n        users[msg.sender].answered_questions.push(_question_id);\n        users[msg.sender].answers.push(answer.id);\n\n        set_question(question, _question_id);\n\n        //NFT\n        _NFT_answers[NFT_id_generator] = [_question_id, answer.id]; // NFT\n        _owners[NFT_id_generator] = msg.sender; // \n        _balances[msg.sender]++;\n        NFT_id_generator++; //NFT token++\n\n        return answer;\n    }\n\n    function get_answer(\n        uint256 _question_id,\n        uint256 _answer_id\n    ) public view returns (Answer memory) {\n        //Get the question\n        (Question memory question, , ) = get_question(_question_id);\n\n        Answer memory answer;\n\n        for (uint256 i = 0; i < question.total_answers; i++) {\n            if (answers[_question_id][i].id == _answer_id) {\n                answer = answers[_question_id][i];\n                break;\n            }\n        }\n\n        return answer;\n    }\n\n    function set_answer(\n        uint256 _question_id,\n        uint256 _answer_id,\n        Answer memory _answer\n    ) public {\n        //Get the question\n        (Question memory question, , ) = get_question(_question_id);\n\n        for (uint256 i = 0; i < question.total_answers; i++) {\n            if (answers[_question_id][i].id == _answer_id) {\n                answers[_question_id][i] = _answer;\n                break;\n            }\n        }\n\n    }\n\n    function like_answer(\n        uint256 _question_id,\n        uint256 _answer_id\n    ) public payable returns(Answer memory){\n        //Question\n        (Question memory question, , ) = get_question(_question_id);\n        //Answer\n        Answer memory answer = get_answer(_question_id, _answer_id);\n        //gas\n        // for (uint256 i = 0; i < answer.liked_by.length; i++) {\n        //     require(\n        //         answer.liked_by[i] != msg.sender,\n        //         \"You have already liked this answer\"\n        //     );\n        // }\n        // \n        // answer.liked_by[answer.likes] = msg.sender;\n        answer.likes++;\n        question.expire += 30 days;\n        answer.expire += 30 days;\n        //\n        set_answer(_question_id, _answer_id, answer);\n        set_question(question,_question_id);\n        emit answer_liked(answer);\n        return answer;\n    }\n\n    function like_question(\n        uint256 _question_id\n    ) public payable returns(Question memory){\n        (Question memory question, , ) = get_question(_question_id);\n\n        // for (uint256 i = 0; i < question.liked_by.length; i++) {\n        //     require(\n        //         question.liked_by[i] != msg.sender,\n        //         \"You have already liked this question\"\n        //     );\n        // }\n\n        // question.liked_by[question.likes] = msg.sender;\n        question.likes++;\n        question.expire += 30 days;\n\n        set_question(question, _question_id);\n\n        emit question_liked(question);\n\n        return question;\n    }\n\n    /**\n     * @notice \n     */\n\n    // \n    function tip_answer(\n        uint256 _question_id,\n        uint256 _answer_id\n    ) public payable returns(Answer memory){\n        // \n        //Question\n        (Question memory question, , ) = get_question(_question_id);\n        //Answer\n        Answer memory answer = get_answer(_question_id, _answer_id);\n        // \n        address payable _author = payable(answer.owner_address);\n        // \n        _author.transfer(msg.value);\n        answer.bonus += msg.value; \n        question.expire += 30 days;\n        answer.expire += 30 days;\n        //\n        set_answer(_question_id, _answer_id, answer);\n        set_question(question, _question_id);\n        // \n        emit answer_tipped(answer);\n\n        return answer;\n    }\n\n\n    // \n    function tip_question(uint256 _question_id) public payable returns(Question memory){\n        (Question memory question, , ) = get_question(_question_id);\n        question.bonus_pool += msg.value;\n        set_question(question,_question_id);\n        emit question_tipped(question);\n\n        return question;\n    }\n\n    function dividing_question_bonus_pool(uint _question_id) public {\n        (Question memory question, , ) = get_question(_question_id);\n        // \n        // require(question.expire - 30 days <= block.timestamp); \n        uint highest_liked_answer_id = 0;\n        uint highest_likes = 0;\n        for(uint i=0;i<answers[_question_id].length;i++){\n            if(answers[_question_id][i].likes >= highest_likes){\n                highest_liked_answer_id = answers[_question_id][i].id;\n                highest_likes = answers[_question_id][i].likes;\n            }\n        }\n        Answer memory answer = get_answer(_question_id,highest_liked_answer_id);\n        answer.bonus += question.bonus_pool;\n        payable(answer.owner_address).transfer(question.bonus_pool);\n        question.bonus_pool = 0;\n        \n        set_answer(_question_id,highest_liked_answer_id,answer);\n        set_question(question, _question_id);\n        emit question_bonus_divided(question);\n    }\n\n\n    function clean() public {\n        for (uint256 i = 0; i < total_questions; i++) {\n            Question memory q = questions[i];\n            if (q.expire < block.timestamp) {\n                dividing_question_bonus_pool(q.id);\n                //\n                questions[i] = questions[total_questions - 1];\n                total_questions--;\n            }\n        }\n    }\n}\n",
  "sourcePath": "D:\\Homework\\BlockChain\\QA-DApp\\contracts\\contracts\\DeQuora.sol",
  "compiler": {
    "name": "solc",
    "version": "0.8.11+commit.d7f03943.Emscripten.clang"
  },
  "schemaVersion": "3.4.11",
  "updatedAt": "2023-05-25T12:25:01.341Z",
  "networkType": "ethereum",
  "devdoc": {
    "kind": "dev",
    "methods": {},
    "version": 1
  },
  "userdoc": {
    "kind": "user",
    "methods": {
      "tip_answer(uint256,uint256)": {
        "notice": ""
      }
    },
    "version": 1
  }
}