{
  "contractName": "DeQuora",
  "abi": [
    {
      "inputs": [],
      "stateMutability": "nonpayable",
      "type": "constructor"
    },
    {
      "anonymous": false,
      "inputs": [
        {
          "indexed": true,
          "internalType": "address",
          "name": "_owner",
          "type": "address"
        },
        {
          "indexed": true,
          "internalType": "address",
          "name": "_approved",
          "type": "address"
        },
        {
          "indexed": false,
          "internalType": "uint256",
          "name": "_tokenId",
          "type": "uint256"
        }
      ],
      "name": "Approval",
      "type": "event"
    },
    {
      "anonymous": false,
      "inputs": [
        {
          "indexed": true,
          "internalType": "address",
          "name": "_from",
          "type": "address"
        },
        {
          "indexed": true,
          "internalType": "address",
          "name": "_to",
          "type": "address"
        },
        {
          "indexed": false,
          "internalType": "uint256",
          "name": "_tokenId",
          "type": "uint256"
        }
      ],
      "name": "Transfer",
      "type": "event"
    },
    {
      "anonymous": false,
      "inputs": [
        {
          "components": [
            {
              "internalType": "uint256",
              "name": "id",
              "type": "uint256"
            },
            {
              "internalType": "uint256",
              "name": "question_id",
              "type": "uint256"
            },
            {
              "internalType": "string",
              "name": "answer",
              "type": "string"
            },
            {
              "internalType": "string",
              "name": "author_name",
              "type": "string"
            },
            {
              "internalType": "address",
              "name": "author_address",
              "type": "address"
            },
            {
              "internalType": "address",
              "name": "owner_address",
              "type": "address"
            },
            {
              "internalType": "uint256",
              "name": "likes",
              "type": "uint256"
            },
            {
              "internalType": "address[]",
              "name": "liked_by",
              "type": "address[]"
            },
            {
              "internalType": "uint256",
              "name": "created_on",
              "type": "uint256"
            },
            {
              "internalType": "uint256",
              "name": "bonus",
              "type": "uint256"
            },
            {
              "internalType": "address[]",
              "name": "support_by",
              "type": "address[]"
            }
          ],
          "indexed": false,
          "internalType": "struct DeQuora.Answer",
          "name": "",
          "type": "tuple"
        }
      ],
      "name": "answer_tipped",
      "type": "event"
    },
    {
      "anonymous": false,
      "inputs": [
        {
          "indexed": false,
          "internalType": "string",
          "name": "",
          "type": "string"
        }
      ],
      "name": "main_deployed",
      "type": "event"
    },
    {
      "anonymous": false,
      "inputs": [
        {
          "components": [
            {
              "internalType": "uint256",
              "name": "id",
              "type": "uint256"
            },
            {
              "internalType": "address",
              "name": "account",
              "type": "address"
            },
            {
              "internalType": "string",
              "name": "name",
              "type": "string"
            },
            {
              "internalType": "uint256[]",
              "name": "questions",
              "type": "uint256[]"
            },
            {
              "internalType": "uint256[]",
              "name": "answered_questions",
              "type": "uint256[]"
            },
            {
              "internalType": "uint256[]",
              "name": "answers",
              "type": "uint256[]"
            },
            {
              "internalType": "uint256",
              "name": "joined_on",
              "type": "uint256"
            }
          ],
          "indexed": false,
          "internalType": "struct DeQuora.User",
          "name": "",
          "type": "tuple"
        }
      ],
      "name": "new_user_added",
      "type": "event"
    },
    {
      "anonymous": false,
      "inputs": [
        {
          "components": [
            {
              "internalType": "uint256",
              "name": "id",
              "type": "uint256"
            },
            {
              "internalType": "string",
              "name": "question",
              "type": "string"
            },
            {
              "internalType": "string",
              "name": "author_name",
              "type": "string"
            },
            {
              "internalType": "address",
              "name": "author_address",
              "type": "address"
            },
            {
              "internalType": "address",
              "name": "owner_address",
              "type": "address"
            },
            {
              "internalType": "uint256",
              "name": "total_answers",
              "type": "uint256"
            },
            {
              "internalType": "uint256",
              "name": "likes",
              "type": "uint256"
            },
            {
              "internalType": "address[]",
              "name": "liked_by",
              "type": "address[]"
            },
            {
              "internalType": "uint256",
              "name": "created_on",
              "type": "uint256"
            },
            {
              "internalType": "uint256",
              "name": "bonus_pool",
              "type": "uint256"
            },
            {
              "internalType": "address[]",
              "name": "support_by",
              "type": "address[]"
            }
          ],
          "indexed": false,
          "internalType": "struct DeQuora.Question",
          "name": "",
          "type": "tuple"
        }
      ],
      "name": "question_added",
      "type": "event"
    },
    {
      "anonymous": false,
      "inputs": [
        {
          "components": [
            {
              "internalType": "uint256",
              "name": "id",
              "type": "uint256"
            },
            {
              "internalType": "string",
              "name": "question",
              "type": "string"
            },
            {
              "internalType": "string",
              "name": "author_name",
              "type": "string"
            },
            {
              "internalType": "address",
              "name": "author_address",
              "type": "address"
            },
            {
              "internalType": "address",
              "name": "owner_address",
              "type": "address"
            },
            {
              "internalType": "uint256",
              "name": "total_answers",
              "type": "uint256"
            },
            {
              "internalType": "uint256",
              "name": "likes",
              "type": "uint256"
            },
            {
              "internalType": "address[]",
              "name": "liked_by",
              "type": "address[]"
            },
            {
              "internalType": "uint256",
              "name": "created_on",
              "type": "uint256"
            },
            {
              "internalType": "uint256",
              "name": "bonus_pool",
              "type": "uint256"
            },
            {
              "internalType": "address[]",
              "name": "support_by",
              "type": "address[]"
            }
          ],
          "indexed": false,
          "internalType": "struct DeQuora.Question",
          "name": "",
          "type": "tuple"
        }
      ],
      "name": "question_tipped",
      "type": "event"
    },
    {
      "inputs": [
        {
          "internalType": "uint256",
          "name": "",
          "type": "uint256"
        },
        {
          "internalType": "uint256",
          "name": "",
          "type": "uint256"
        }
      ],
      "name": "answers",
      "outputs": [
        {
          "internalType": "uint256",
          "name": "id",
          "type": "uint256"
        },
        {
          "internalType": "uint256",
          "name": "question_id",
          "type": "uint256"
        },
        {
          "internalType": "string",
          "name": "answer",
          "type": "string"
        },
        {
          "internalType": "string",
          "name": "author_name",
          "type": "string"
        },
        {
          "internalType": "address",
          "name": "author_address",
          "type": "address"
        },
        {
          "internalType": "address",
          "name": "owner_address",
          "type": "address"
        },
        {
          "internalType": "uint256",
          "name": "likes",
          "type": "uint256"
        },
        {
          "internalType": "uint256",
          "name": "created_on",
          "type": "uint256"
        },
        {
          "internalType": "uint256",
          "name": "bonus",
          "type": "uint256"
        }
      ],
      "stateMutability": "view",
      "type": "function",
      "constant": true
    },
    {
      "inputs": [
        {
          "internalType": "uint256",
          "name": "",
          "type": "uint256"
        }
      ],
      "name": "questions",
      "outputs": [
        {
          "internalType": "uint256",
          "name": "id",
          "type": "uint256"
        },
        {
          "internalType": "string",
          "name": "question",
          "type": "string"
        },
        {
          "internalType": "string",
          "name": "author_name",
          "type": "string"
        },
        {
          "internalType": "address",
          "name": "author_address",
          "type": "address"
        },
        {
          "internalType": "address",
          "name": "owner_address",
          "type": "address"
        },
        {
          "internalType": "uint256",
          "name": "total_answers",
          "type": "uint256"
        },
        {
          "internalType": "uint256",
          "name": "likes",
          "type": "uint256"
        },
        {
          "internalType": "uint256",
          "name": "created_on",
          "type": "uint256"
        },
        {
          "internalType": "uint256",
          "name": "bonus_pool",
          "type": "uint256"
        }
      ],
      "stateMutability": "view",
      "type": "function",
      "constant": true
    },
    {
      "inputs": [],
      "name": "total_questions",
      "outputs": [
        {
          "internalType": "uint256",
          "name": "",
          "type": "uint256"
        }
      ],
      "stateMutability": "view",
      "type": "function",
      "constant": true
    },
    {
      "inputs": [],
      "name": "total_users",
      "outputs": [
        {
          "internalType": "uint256",
          "name": "",
          "type": "uint256"
        }
      ],
      "stateMutability": "view",
      "type": "function",
      "constant": true
    },
    {
      "inputs": [
        {
          "internalType": "address",
          "name": "",
          "type": "address"
        }
      ],
      "name": "users",
      "outputs": [
        {
          "internalType": "uint256",
          "name": "id",
          "type": "uint256"
        },
        {
          "internalType": "address",
          "name": "account",
          "type": "address"
        },
        {
          "internalType": "string",
          "name": "name",
          "type": "string"
        },
        {
          "internalType": "uint256",
          "name": "joined_on",
          "type": "uint256"
        }
      ],
      "stateMutability": "view",
      "type": "function",
      "constant": true
    },
    {
      "inputs": [
        {
          "internalType": "address",
          "name": "_owner",
          "type": "address"
        }
      ],
      "name": "balanceOf",
      "outputs": [
        {
          "internalType": "uint256",
          "name": "_balance",
          "type": "uint256"
        }
      ],
      "stateMutability": "view",
      "type": "function",
      "constant": true
    },
    {
      "inputs": [
        {
          "internalType": "uint256",
          "name": "_tokenId",
          "type": "uint256"
        }
      ],
      "name": "ownerOf",
      "outputs": [
        {
          "internalType": "address",
          "name": "_owner",
          "type": "address"
        }
      ],
      "stateMutability": "view",
      "type": "function",
      "constant": true
    },
    {
      "inputs": [
        {
          "internalType": "address",
          "name": "_to",
          "type": "address"
        },
        {
          "internalType": "uint256",
          "name": "_tokenId",
          "type": "uint256"
        }
      ],
      "name": "transfer",
      "outputs": [],
      "stateMutability": "nonpayable",
      "type": "function"
    },
    {
      "inputs": [
        {
          "internalType": "address",
          "name": "_to",
          "type": "address"
        },
        {
          "internalType": "uint256",
          "name": "_tokenId",
          "type": "uint256"
        }
      ],
      "name": "approve",
      "outputs": [],
      "stateMutability": "nonpayable",
      "type": "function"
    },
    {
      "inputs": [
        {
          "internalType": "uint256",
          "name": "_tokenId",
          "type": "uint256"
        }
      ],
      "name": "takeOwnership",
      "outputs": [],
      "stateMutability": "nonpayable",
      "type": "function"
    },
    {
      "inputs": [
        {
          "internalType": "string",
          "name": "_name",
          "type": "string"
        }
      ],
      "name": "create_user",
      "outputs": [
        {
          "components": [
            {
              "internalType": "uint256",
              "name": "id",
              "type": "uint256"
            },
            {
              "internalType": "address",
              "name": "account",
              "type": "address"
            },
            {
              "internalType": "string",
              "name": "name",
              "type": "string"
            },
            {
              "internalType": "uint256[]",
              "name": "questions",
              "type": "uint256[]"
            },
            {
              "internalType": "uint256[]",
              "name": "answered_questions",
              "type": "uint256[]"
            },
            {
              "internalType": "uint256[]",
              "name": "answers",
              "type": "uint256[]"
            },
            {
              "internalType": "uint256",
              "name": "joined_on",
              "type": "uint256"
            }
          ],
          "internalType": "struct DeQuora.User",
          "name": "",
          "type": "tuple"
        }
      ],
      "stateMutability": "payable",
      "type": "function",
      "payable": true
    },
    {
      "inputs": [
        {
          "internalType": "address",
          "name": "_user_address",
          "type": "address"
        }
      ],
      "name": "get_user_details",
      "outputs": [
        {
          "components": [
            {
              "internalType": "uint256",
              "name": "id",
              "type": "uint256"
            },
            {
              "internalType": "address",
              "name": "account",
              "type": "address"
            },
            {
              "internalType": "string",
              "name": "name",
              "type": "string"
            },
            {
              "internalType": "uint256[]",
              "name": "questions",
              "type": "uint256[]"
            },
            {
              "internalType": "uint256[]",
              "name": "answered_questions",
              "type": "uint256[]"
            },
            {
              "internalType": "uint256[]",
              "name": "answers",
              "type": "uint256[]"
            },
            {
              "internalType": "uint256",
              "name": "joined_on",
              "type": "uint256"
            }
          ],
          "internalType": "struct DeQuora.User",
          "name": "",
          "type": "tuple"
        }
      ],
      "stateMutability": "view",
      "type": "function",
      "constant": true
    },
    {
      "inputs": [
        {
          "internalType": "string",
          "name": "_question",
          "type": "string"
        }
      ],
      "name": "add_question",
      "outputs": [
        {
          "components": [
            {
              "internalType": "uint256",
              "name": "id",
              "type": "uint256"
            },
            {
              "internalType": "string",
              "name": "question",
              "type": "string"
            },
            {
              "internalType": "string",
              "name": "author_name",
              "type": "string"
            },
            {
              "internalType": "address",
              "name": "author_address",
              "type": "address"
            },
            {
              "internalType": "address",
              "name": "owner_address",
              "type": "address"
            },
            {
              "internalType": "uint256",
              "name": "total_answers",
              "type": "uint256"
            },
            {
              "internalType": "uint256",
              "name": "likes",
              "type": "uint256"
            },
            {
              "internalType": "address[]",
              "name": "liked_by",
              "type": "address[]"
            },
            {
              "internalType": "uint256",
              "name": "created_on",
              "type": "uint256"
            },
            {
              "internalType": "uint256",
              "name": "bonus_pool",
              "type": "uint256"
            },
            {
              "internalType": "address[]",
              "name": "support_by",
              "type": "address[]"
            }
          ],
          "internalType": "struct DeQuora.Question",
          "name": "",
          "type": "tuple"
        }
      ],
      "stateMutability": "payable",
      "type": "function",
      "payable": true
    },
    {
      "inputs": [],
      "name": "get_all_questions",
      "outputs": [
        {
          "components": [
            {
              "internalType": "uint256",
              "name": "id",
              "type": "uint256"
            },
            {
              "internalType": "string",
              "name": "question",
              "type": "string"
            },
            {
              "internalType": "string",
              "name": "author_name",
              "type": "string"
            },
            {
              "internalType": "address",
              "name": "author_address",
              "type": "address"
            },
            {
              "internalType": "address",
              "name": "owner_address",
              "type": "address"
            },
            {
              "internalType": "uint256",
              "name": "total_answers",
              "type": "uint256"
            },
            {
              "internalType": "uint256",
              "name": "likes",
              "type": "uint256"
            },
            {
              "internalType": "address[]",
              "name": "liked_by",
              "type": "address[]"
            },
            {
              "internalType": "uint256",
              "name": "created_on",
              "type": "uint256"
            },
            {
              "internalType": "uint256",
              "name": "bonus_pool",
              "type": "uint256"
            },
            {
              "internalType": "address[]",
              "name": "support_by",
              "type": "address[]"
            }
          ],
          "internalType": "struct DeQuora.Question[]",
          "name": "",
          "type": "tuple[]"
        }
      ],
      "stateMutability": "view",
      "type": "function",
      "constant": true
    },
    {
      "inputs": [
        {
          "internalType": "uint256",
          "name": "_question_id",
          "type": "uint256"
        }
      ],
      "name": "get_question",
      "outputs": [
        {
          "components": [
            {
              "internalType": "uint256",
              "name": "id",
              "type": "uint256"
            },
            {
              "internalType": "string",
              "name": "question",
              "type": "string"
            },
            {
              "internalType": "string",
              "name": "author_name",
              "type": "string"
            },
            {
              "internalType": "address",
              "name": "author_address",
              "type": "address"
            },
            {
              "internalType": "address",
              "name": "owner_address",
              "type": "address"
            },
            {
              "internalType": "uint256",
              "name": "total_answers",
              "type": "uint256"
            },
            {
              "internalType": "uint256",
              "name": "likes",
              "type": "uint256"
            },
            {
              "internalType": "address[]",
              "name": "liked_by",
              "type": "address[]"
            },
            {
              "internalType": "uint256",
              "name": "created_on",
              "type": "uint256"
            },
            {
              "internalType": "uint256",
              "name": "bonus_pool",
              "type": "uint256"
            },
            {
              "internalType": "address[]",
              "name": "support_by",
              "type": "address[]"
            }
          ],
          "internalType": "struct DeQuora.Question",
          "name": "",
          "type": "tuple"
        },
        {
          "components": [
            {
              "internalType": "uint256",
              "name": "id",
              "type": "uint256"
            },
            {
              "internalType": "uint256",
              "name": "question_id",
              "type": "uint256"
            },
            {
              "internalType": "string",
              "name": "answer",
              "type": "string"
            },
            {
              "internalType": "string",
              "name": "author_name",
              "type": "string"
            },
            {
              "internalType": "address",
              "name": "author_address",
              "type": "address"
            },
            {
              "internalType": "address",
              "name": "owner_address",
              "type": "address"
            },
            {
              "internalType": "uint256",
              "name": "likes",
              "type": "uint256"
            },
            {
              "internalType": "address[]",
              "name": "liked_by",
              "type": "address[]"
            },
            {
              "internalType": "uint256",
              "name": "created_on",
              "type": "uint256"
            },
            {
              "internalType": "uint256",
              "name": "bonus",
              "type": "uint256"
            },
            {
              "internalType": "address[]",
              "name": "support_by",
              "type": "address[]"
            }
          ],
          "internalType": "struct DeQuora.Answer[]",
          "name": "",
          "type": "tuple[]"
        },
        {
          "components": [
            {
              "internalType": "uint256",
              "name": "id",
              "type": "uint256"
            },
            {
              "internalType": "address",
              "name": "account",
              "type": "address"
            },
            {
              "internalType": "string",
              "name": "name",
              "type": "string"
            },
            {
              "internalType": "uint256[]",
              "name": "questions",
              "type": "uint256[]"
            },
            {
              "internalType": "uint256[]",
              "name": "answered_questions",
              "type": "uint256[]"
            },
            {
              "internalType": "uint256[]",
              "name": "answers",
              "type": "uint256[]"
            },
            {
              "internalType": "uint256",
              "name": "joined_on",
              "type": "uint256"
            }
          ],
          "internalType": "struct DeQuora.User",
          "name": "",
          "type": "tuple"
        }
      ],
      "stateMutability": "view",
      "type": "function",
      "constant": true
    },
    {
      "inputs": [
        {
          "components": [
            {
              "internalType": "uint256",
              "name": "id",
              "type": "uint256"
            },
            {
              "internalType": "string",
              "name": "question",
              "type": "string"
            },
            {
              "internalType": "string",
              "name": "author_name",
              "type": "string"
            },
            {
              "internalType": "address",
              "name": "author_address",
              "type": "address"
            },
            {
              "internalType": "address",
              "name": "owner_address",
              "type": "address"
            },
            {
              "internalType": "uint256",
              "name": "total_answers",
              "type": "uint256"
            },
            {
              "internalType": "uint256",
              "name": "likes",
              "type": "uint256"
            },
            {
              "internalType": "address[]",
              "name": "liked_by",
              "type": "address[]"
            },
            {
              "internalType": "uint256",
              "name": "created_on",
              "type": "uint256"
            },
            {
              "internalType": "uint256",
              "name": "bonus_pool",
              "type": "uint256"
            },
            {
              "internalType": "address[]",
              "name": "support_by",
              "type": "address[]"
            }
          ],
          "internalType": "struct DeQuora.Question",
          "name": "_question",
          "type": "tuple"
        },
        {
          "internalType": "uint256",
          "name": "_question_id",
          "type": "uint256"
        }
      ],
      "name": "set_question",
      "outputs": [],
      "stateMutability": "nonpayable",
      "type": "function"
    },
    {
      "inputs": [
        {
          "internalType": "uint256",
          "name": "_question_id",
          "type": "uint256"
        },
        {
          "internalType": "string",
          "name": "_answer",
          "type": "string"
        }
      ],
      "name": "add_answer",
      "outputs": [
        {
          "components": [
            {
              "internalType": "uint256",
              "name": "id",
              "type": "uint256"
            },
            {
              "internalType": "uint256",
              "name": "question_id",
              "type": "uint256"
            },
            {
              "internalType": "string",
              "name": "answer",
              "type": "string"
            },
            {
              "internalType": "string",
              "name": "author_name",
              "type": "string"
            },
            {
              "internalType": "address",
              "name": "author_address",
              "type": "address"
            },
            {
              "internalType": "address",
              "name": "owner_address",
              "type": "address"
            },
            {
              "internalType": "uint256",
              "name": "likes",
              "type": "uint256"
            },
            {
              "internalType": "address[]",
              "name": "liked_by",
              "type": "address[]"
            },
            {
              "internalType": "uint256",
              "name": "created_on",
              "type": "uint256"
            },
            {
              "internalType": "uint256",
              "name": "bonus",
              "type": "uint256"
            },
            {
              "internalType": "address[]",
              "name": "support_by",
              "type": "address[]"
            }
          ],
          "internalType": "struct DeQuora.Answer",
          "name": "",
          "type": "tuple"
        }
      ],
      "stateMutability": "payable",
      "type": "function",
      "payable": true
    },
    {
      "inputs": [
        {
          "internalType": "uint256",
          "name": "_question_id",
          "type": "uint256"
        },
        {
          "internalType": "uint256",
          "name": "_answer_id",
          "type": "uint256"
        }
      ],
      "name": "get_answer",
      "outputs": [
        {
          "components": [
            {
              "internalType": "uint256",
              "name": "id",
              "type": "uint256"
            },
            {
              "internalType": "uint256",
              "name": "question_id",
              "type": "uint256"
            },
            {
              "internalType": "string",
              "name": "answer",
              "type": "string"
            },
            {
              "internalType": "string",
              "name": "author_name",
              "type": "string"
            },
            {
              "internalType": "address",
              "name": "author_address",
              "type": "address"
            },
            {
              "internalType": "address",
              "name": "owner_address",
              "type": "address"
            },
            {
              "internalType": "uint256",
              "name": "likes",
              "type": "uint256"
            },
            {
              "internalType": "address[]",
              "name": "liked_by",
              "type": "address[]"
            },
            {
              "internalType": "uint256",
              "name": "created_on",
              "type": "uint256"
            },
            {
              "internalType": "uint256",
              "name": "bonus",
              "type": "uint256"
            },
            {
              "internalType": "address[]",
              "name": "support_by",
              "type": "address[]"
            }
          ],
          "internalType": "struct DeQuora.Answer",
          "name": "",
          "type": "tuple"
        }
      ],
      "stateMutability": "view",
      "type": "function",
      "constant": true
    },
    {
      "inputs": [
        {
          "internalType": "uint256",
          "name": "_question_id",
          "type": "uint256"
        },
        {
          "internalType": "uint256",
          "name": "_answer_id",
          "type": "uint256"
        },
        {
          "components": [
            {
              "internalType": "uint256",
              "name": "id",
              "type": "uint256"
            },
            {
              "internalType": "uint256",
              "name": "question_id",
              "type": "uint256"
            },
            {
              "internalType": "string",
              "name": "answer",
              "type": "string"
            },
            {
              "internalType": "string",
              "name": "author_name",
              "type": "string"
            },
            {
              "internalType": "address",
              "name": "author_address",
              "type": "address"
            },
            {
              "internalType": "address",
              "name": "owner_address",
              "type": "address"
            },
            {
              "internalType": "uint256",
              "name": "likes",
              "type": "uint256"
            },
            {
              "internalType": "address[]",
              "name": "liked_by",
              "type": "address[]"
            },
            {
              "internalType": "uint256",
              "name": "created_on",
              "type": "uint256"
            },
            {
              "internalType": "uint256",
              "name": "bonus",
              "type": "uint256"
            },
            {
              "internalType": "address[]",
              "name": "support_by",
              "type": "address[]"
            }
          ],
          "internalType": "struct DeQuora.Answer",
          "name": "_answer",
          "type": "tuple"
        }
      ],
      "name": "set_answer",
      "outputs": [
        {
          "components": [
            {
              "internalType": "uint256",
              "name": "id",
              "type": "uint256"
            },
            {
              "internalType": "string",
              "name": "question",
              "type": "string"
            },
            {
              "internalType": "string",
              "name": "author_name",
              "type": "string"
            },
            {
              "internalType": "address",
              "name": "author_address",
              "type": "address"
            },
            {
              "internalType": "address",
              "name": "owner_address",
              "type": "address"
            },
            {
              "internalType": "uint256",
              "name": "total_answers",
              "type": "uint256"
            },
            {
              "internalType": "uint256",
              "name": "likes",
              "type": "uint256"
            },
            {
              "internalType": "address[]",
              "name": "liked_by",
              "type": "address[]"
            },
            {
              "internalType": "uint256",
              "name": "created_on",
              "type": "uint256"
            },
            {
              "internalType": "uint256",
              "name": "bonus_pool",
              "type": "uint256"
            },
            {
              "internalType": "address[]",
              "name": "support_by",
              "type": "address[]"
            }
          ],
          "internalType": "struct DeQuora.Question",
          "name": "",
          "type": "tuple"
        }
      ],
      "stateMutability": "nonpayable",
      "type": "function"
    },
    {
      "inputs": [
        {
          "internalType": "uint256",
          "name": "_question_id",
          "type": "uint256"
        },
        {
          "internalType": "uint256",
          "name": "_answer_id",
          "type": "uint256"
        },
        {
          "internalType": "address",
          "name": "_user_address",
          "type": "address"
        }
      ],
      "name": "like_answer",
      "outputs": [
        {
          "components": [
            {
              "internalType": "uint256",
              "name": "id",
              "type": "uint256"
            },
            {
              "internalType": "uint256",
              "name": "question_id",
              "type": "uint256"
            },
            {
              "internalType": "string",
              "name": "answer",
              "type": "string"
            },
            {
              "internalType": "string",
              "name": "author_name",
              "type": "string"
            },
            {
              "internalType": "address",
              "name": "author_address",
              "type": "address"
            },
            {
              "internalType": "address",
              "name": "owner_address",
              "type": "address"
            },
            {
              "internalType": "uint256",
              "name": "likes",
              "type": "uint256"
            },
            {
              "internalType": "address[]",
              "name": "liked_by",
              "type": "address[]"
            },
            {
              "internalType": "uint256",
              "name": "created_on",
              "type": "uint256"
            },
            {
              "internalType": "uint256",
              "name": "bonus",
              "type": "uint256"
            },
            {
              "internalType": "address[]",
              "name": "support_by",
              "type": "address[]"
            }
          ],
          "internalType": "struct DeQuora.Answer",
          "name": "",
          "type": "tuple"
        }
      ],
      "stateMutability": "nonpayable",
      "type": "function"
    },
    {
      "inputs": [
        {
          "internalType": "uint256",
          "name": "_question_id",
          "type": "uint256"
        },
        {
          "internalType": "address",
          "name": "_user_address",
          "type": "address"
        }
      ],
      "name": "like_question",
      "outputs": [
        {
          "components": [
            {
              "internalType": "uint256",
              "name": "id",
              "type": "uint256"
            },
            {
              "internalType": "string",
              "name": "question",
              "type": "string"
            },
            {
              "internalType": "string",
              "name": "author_name",
              "type": "string"
            },
            {
              "internalType": "address",
              "name": "author_address",
              "type": "address"
            },
            {
              "internalType": "address",
              "name": "owner_address",
              "type": "address"
            },
            {
              "internalType": "uint256",
              "name": "total_answers",
              "type": "uint256"
            },
            {
              "internalType": "uint256",
              "name": "likes",
              "type": "uint256"
            },
            {
              "internalType": "address[]",
              "name": "liked_by",
              "type": "address[]"
            },
            {
              "internalType": "uint256",
              "name": "created_on",
              "type": "uint256"
            },
            {
              "internalType": "uint256",
              "name": "bonus_pool",
              "type": "uint256"
            },
            {
              "internalType": "address[]",
              "name": "support_by",
              "type": "address[]"
            }
          ],
          "internalType": "struct DeQuora.Question",
          "name": "",
          "type": "tuple"
        }
      ],
      "stateMutability": "nonpayable",
      "type": "function"
    },
    {
      "inputs": [
        {
          "internalType": "uint256",
          "name": "_question_id",
          "type": "uint256"
        },
        {
          "internalType": "uint256",
          "name": "_answer_id",
          "type": "uint256"
        }
      ],
      "name": "tip_answer",
      "outputs": [],
      "stateMutability": "payable",
      "type": "function",
      "payable": true
    },
    {
      "inputs": [
        {
          "internalType": "uint256",
          "name": "_question_id",
          "type": "uint256"
        }
      ],
      "name": "tip_question",
      "outputs": [],
      "stateMutability": "payable",
      "type": "function",
      "payable": true
    }
  ],
  "bytecode": "0x60806040523480156200001157600080fd5b506000808190555060006001819055507f316a024183dffe386f9e64eeb7d2108a2f170f4c8708641f33f165f6dda8b9736040516200005090620000bf565b60405180910390a1620000e1565b600082825260208201905092915050565b7f4d61696e206973206465706c6f79656400000000000000000000000000000000600082015250565b6000620000a76010836200005e565b9150620000b4826200006f565b602082019050919050565b60006020820190508181036000830152620000da8162000098565b9050919050565b614fac80620000f16000396000f3fe6080604052600436106101405760003560e01c806370a08231116100b6578063df16b7ab1161006f578063df16b7ab146104cc578063e68ca4a4146104fc578063e7cc62bd14610518578063ed314cbe14610543578063edc91ed91461056c578063ff30ae0c146105a957610140565b806370a0823114610395578063a87430ba146103d2578063a9059cbb14610412578063b2e6ceeb1461043b578063c84ccaef14610464578063d2965f041461048f57610140565b806342a103671161010857806342a103671461026257806348e8158a1461029f5780634ee1d752146102cf5780636352211e1461030c5780636411ad3814610349578063676c98811461036557610140565b8063095ea7b3146101455780632401519c1461016e57806330de4984146101b357806331b1b978146101de578063403aa93b14610223575b600080fd5b34801561015157600080fd5b5061016c600480360381019061016791906138dc565b6105e6565b005b34801561017a57600080fd5b506101956004803603810190610190919061391c565b6105ea565b6040516101aa99989796959493929190613a13565b60405180910390f35b3480156101bf57600080fd5b506101c86107a5565b6040516101d59190613d8b565b60405180910390f35b3480156101ea57600080fd5b5061020560048036038101906102009190613dad565b610b23565b60405161021a99989796959493929190613dda565b60405180910390f35b34801561022f57600080fd5b5061024a60048036038101906102459190613dad565b610cd1565b6040516102599392919061429f565b60405180910390f35b34801561026e57600080fd5b506102896004803603810190610284919061466e565b611685565b60405161029691906146dd565b60405180910390f35b6102b960048036038101906102b491906146ff565b61187b565b6040516102c69190614748565b60405180910390f35b3480156102db57600080fd5b506102f660048036038101906102f1919061476a565b611b5b565b60405161030391906148c1565b60405180910390f35b34801561031857600080fd5b50610333600480360381019061032e9190613dad565b611cc0565b60405161034091906148e3565b60405180910390f35b610363600480360381019061035e919061391c565b611cc7565b005b61037f600480360381019061037a91906146ff565b611d62565b60405161038c91906146dd565b60405180910390f35b3480156103a157600080fd5b506103bc60048036038101906103b791906148fe565b6121de565b6040516103c9919061492b565b60405180910390f35b3480156103de57600080fd5b506103f960048036038101906103f491906148fe565b6121e5565b6040516104099493929190614946565b60405180910390f35b34801561041e57600080fd5b50610439600480360381019061043491906138dc565b6122bd565b005b34801561044757600080fd5b50610462600480360381019061045d9190613dad565b6122c1565b005b34801561047057600080fd5b506104796122c4565b604051610486919061492b565b60405180910390f35b34801561049b57600080fd5b506104b660048036038101906104b191906148fe565b6122ca565b6040516104c39190614748565b60405180910390f35b6104e660048036038101906104e19190614992565b61252d565b6040516104f391906148c1565b60405180910390f35b61051660048036038101906105119190613dad565b612a51565b005b34801561052457600080fd5b5061052d612a9b565b60405161053a919061492b565b60405180910390f35b34801561054f57600080fd5b5061056a60048036038101906105659190614b6a565b612aa1565b005b34801561057857600080fd5b50610593600480360381019061058e9190614bc6565b612c55565b6040516105a091906146dd565b60405180910390f35b3480156105b557600080fd5b506105d060048036038101906105cb919061391c565b612d9d565b6040516105dd91906148c1565b60405180910390f35b5050565b6003602052816000526040600020818154811061060657600080fd5b90600052602060002090600b02016000915091505080600001549080600101549080600201805461063690614c35565b80601f016020809104026020016040519081016040528092919081815260200182805461066290614c35565b80156106af5780601f10610684576101008083540402835291602001916106af565b820191906000526020600020905b81548152906001019060200180831161069257829003601f168201915b5050505050908060030180546106c490614c35565b80601f01602080910402602001604051908101604052809291908181526020018280546106f090614c35565b801561073d5780601f106107125761010080835404028352916020019161073d565b820191906000526020600020905b81548152906001019060200180831161072057829003601f168201915b5050505050908060040160009054906101000a900473ffffffffffffffffffffffffffffffffffffffff16908060050160009054906101000a900473ffffffffffffffffffffffffffffffffffffffff16908060060154908060080154908060090154905089565b60606004805480602002602001604051908101604052809291908181526020016000905b82821015610b1a57838290600052602060002090600b0201604051806101600160405290816000820154815260200160018201805461080790614c35565b80601f016020809104026020016040519081016040528092919081815260200182805461083390614c35565b80156108805780601f1061085557610100808354040283529160200191610880565b820191906000526020600020905b81548152906001019060200180831161086357829003601f168201915b5050505050815260200160028201805461089990614c35565b80601f01602080910402602001604051908101604052809291908181526020018280546108c590614c35565b80156109125780601f106108e757610100808354040283529160200191610912565b820191906000526020600020905b8154815290600101906020018083116108f557829003601f168201915b505050505081526020016003820160009054906101000a900473ffffffffffffffffffffffffffffffffffffffff1673ffffffffffffffffffffffffffffffffffffffff1673ffffffffffffffffffffffffffffffffffffffff1681526020016004820160009054906101000a900473ffffffffffffffffffffffffffffffffffffffff1673ffffffffffffffffffffffffffffffffffffffff1673ffffffffffffffffffffffffffffffffffffffff168152602001600582015481526020016006820154815260200160078201805480602002602001604051908101604052809291908181526020018280548015610a6057602002820191906000526020600020905b8160009054906101000a900473ffffffffffffffffffffffffffffffffffffffff1673ffffffffffffffffffffffffffffffffffffffff1681526020019060010190808311610a16575b505050505081526020016008820154815260200160098201548152602001600a8201805480602002602001604051908101604052809291908181526020018280548015610b0257602002820191906000526020600020905b8160009054906101000a900473ffffffffffffffffffffffffffffffffffffffff1673ffffffffffffffffffffffffffffffffffffffff1681526020019060010190808311610ab8575b505050505081525050815260200190600101906107c9565b50505050905090565b60048181548110610b3357600080fd5b90600052602060002090600b0201600091509050806000015490806001018054610b5c90614c35565b80601f0160208091040260200160405190810160405280929190818152602001828054610b8890614c35565b8015610bd55780601f10610baa57610100808354040283529160200191610bd5565b820191906000526020600020905b815481529060010190602001808311610bb857829003601f168201915b505050505090806002018054610bea90614c35565b80601f0160208091040260200160405190810160405280929190818152602001828054610c1690614c35565b8015610c635780601f10610c3857610100808354040283529160200191610c63565b820191906000526020600020905b815481529060010190602001808311610c4657829003601f168201915b5050505050908060030160009054906101000a900473ffffffffffffffffffffffffffffffffffffffff16908060040160009054906101000a900473ffffffffffffffffffffffffffffffffffffffff16908060050154908060060154908060080154908060090154905089565b610cd9613188565b6060610ce361320e565b610ceb613188565b60005b60015481101561108b578560048281548110610d0d57610d0c614c67565b5b90600052602060002090600b02016000015414156110785760048181548110610d3957610d38614c67565b5b90600052602060002090600b02016040518061016001604052908160008201548152602001600182018054610d6d90614c35565b80601f0160208091040260200160405190810160405280929190818152602001828054610d9990614c35565b8015610de65780601f10610dbb57610100808354040283529160200191610de6565b820191906000526020600020905b815481529060010190602001808311610dc957829003601f168201915b50505050508152602001600282018054610dff90614c35565b80601f0160208091040260200160405190810160405280929190818152602001828054610e2b90614c35565b8015610e785780601f10610e4d57610100808354040283529160200191610e78565b820191906000526020600020905b815481529060010190602001808311610e5b57829003601f168201915b505050505081526020016003820160009054906101000a900473ffffffffffffffffffffffffffffffffffffffff1673ffffffffffffffffffffffffffffffffffffffff1673ffffffffffffffffffffffffffffffffffffffff1681526020016004820160009054906101000a900473ffffffffffffffffffffffffffffffffffffffff1673ffffffffffffffffffffffffffffffffffffffff1673ffffffffffffffffffffffffffffffffffffffff168152602001600582015481526020016006820154815260200160078201805480602002602001604051908101604052809291908181526020018280548015610fc657602002820191906000526020600020905b8160009054906101000a900473ffffffffffffffffffffffffffffffffffffffff1673ffffffffffffffffffffffffffffffffffffffff1681526020019060010190808311610f7c575b505050505081526020016008820154815260200160098201548152602001600a820180548060200260200160405190810160405280929190818152602001828054801561106857602002820191906000526020600020905b8160009054906101000a900473ffffffffffffffffffffffffffffffffffffffff1673ffffffffffffffffffffffffffffffffffffffff168152602001906001019080831161101e575b505050505081525050915061108b565b808061108390614cc5565b915050610cee565b50600060026000836060015173ffffffffffffffffffffffffffffffffffffffff1673ffffffffffffffffffffffffffffffffffffffff1681526020019081526020016000206040518060e0016040529081600082015481526020016001820160009054906101000a900473ffffffffffffffffffffffffffffffffffffffff1673ffffffffffffffffffffffffffffffffffffffff1673ffffffffffffffffffffffffffffffffffffffff16815260200160028201805461114c90614c35565b80601f016020809104026020016040519081016040528092919081815260200182805461117890614c35565b80156111c55780601f1061119a576101008083540402835291602001916111c5565b820191906000526020600020905b8154815290600101906020018083116111a857829003601f168201915b505050505081526020016003820180548060200260200160405190810160405280929190818152602001828054801561121d57602002820191906000526020600020905b815481526020019060010190808311611209575b505050505081526020016004820180548060200260200160405190810160405280929190818152602001828054801561127557602002820191906000526020600020905b815481526020019060010190808311611261575b50505050508152602001600582018054806020026020016040519081016040528092919081815260200182805480156112cd57602002820191906000526020600020905b8154815260200190600101908083116112b9575b50505050508152602001600682015481525050905060006003600084600001518152602001908152602001600020805480602002602001604051908101604052809291908181526020016000905b8282101561166c57838290600052602060002090600b020160405180610160016040529081600082015481526020016001820154815260200160028201805461136390614c35565b80601f016020809104026020016040519081016040528092919081815260200182805461138f90614c35565b80156113dc5780601f106113b1576101008083540402835291602001916113dc565b820191906000526020600020905b8154815290600101906020018083116113bf57829003601f168201915b505050505081526020016003820180546113f590614c35565b80601f016020809104026020016040519081016040528092919081815260200182805461142190614c35565b801561146e5780601f106114435761010080835404028352916020019161146e565b820191906000526020600020905b81548152906001019060200180831161145157829003601f168201915b505050505081526020016004820160009054906101000a900473ffffffffffffffffffffffffffffffffffffffff1673ffffffffffffffffffffffffffffffffffffffff1673ffffffffffffffffffffffffffffffffffffffff1681526020016005820160009054906101000a900473ffffffffffffffffffffffffffffffffffffffff1673ffffffffffffffffffffffffffffffffffffffff1673ffffffffffffffffffffffffffffffffffffffff16815260200160068201548152602001600782018054806020026020016040519081016040528092919081815260200182805480156115b257602002820191906000526020600020905b8160009054906101000a900473ffffffffffffffffffffffffffffffffffffffff1673ffffffffffffffffffffffffffffffffffffffff1681526020019060010190808311611568575b505050505081526020016008820154815260200160098201548152602001600a820180548060200260200160405190810160405280929190818152602001828054801561165457602002820191906000526020600020905b8160009054906101000a900473ffffffffffffffffffffffffffffffffffffffff1673ffffffffffffffffffffffffffffffffffffffff168152602001906001019080831161160a575b5050505050815250508152602001906001019061131b565b5050505090508281839550955095505050509193909250565b61168d613188565b600061169885610cd1565b5050905060005b8160a0015181101561186f57846003600088815260200190815260200160002082815481106116d1576116d0614c67565b5b90600052602060002090600b020160000154141561185c578360036000888152602001908152602001600020828154811061170f5761170e614c67565b5b90600052602060002090600b02016000820151816000015560208201518160010155604082015181600201908051906020019061174d929190613261565b50606082015181600301908051906020019061176a929190613261565b5060808201518160040160006101000a81548173ffffffffffffffffffffffffffffffffffffffff021916908373ffffffffffffffffffffffffffffffffffffffff16021790555060a08201518160050160006101000a81548173ffffffffffffffffffffffffffffffffffffffff021916908373ffffffffffffffffffffffffffffffffffffffff16021790555060c0820151816006015560e082015181600701908051906020019061181f9291906132e7565b506101008201518160080155610120820151816009015561014082015181600a0190805190602001906118539291906132e7565b5090505061186f565b808061186790614cc5565b91505061169f565b50809150509392505050565b61188361320e565b6000825114156118c8576040517f08c379a00000000000000000000000000000000000000000000000000000000081526004016118bf90614d5a565b60405180910390fd5b60006040518060e0016040528060005481526020013373ffffffffffffffffffffffffffffffffffffffff168152602001848152602001600067ffffffffffffffff81111561191a576119196142f0565b5b6040519080825280602002602001820160405280156119485781602001602082028036833780820191505090505b508152602001600067ffffffffffffffff811115611969576119686142f0565b5b6040519080825280602002602001820160405280156119975781602001602082028036833780820191505090505b508152602001600067ffffffffffffffff8111156119b8576119b76142f0565b5b6040519080825280602002602001820160405280156119e65781602001602082028036833780820191505090505b50815260200142815250905080600260003373ffffffffffffffffffffffffffffffffffffffff1673ffffffffffffffffffffffffffffffffffffffff1681526020019081526020016000206000820151816000015560208201518160010160006101000a81548173ffffffffffffffffffffffffffffffffffffffff021916908373ffffffffffffffffffffffffffffffffffffffff1602179055506040820151816002019080519060200190611a9f929190613261565b506060820151816003019080519060200190611abc929190613371565b506080820151816004019080519060200190611ad9929190613371565b5060a0820151816005019080519060200190611af6929190613371565b5060c08201518160060155905050600080815480929190611b1690614cc5565b91905055507f35ce3ccc4e4d8114f3dcd288e157c011f700e316ff61ce9a81c2926eba963a0e81604051611b4a9190614748565b60405180910390a180915050919050565b611b636133be565b6000611b6e85610cd1565b505090506000611b7e8686612d9d565b905060005b8160e0015151811015611c30578473ffffffffffffffffffffffffffffffffffffffff168260e001518281518110611bbe57611bbd614c67565b5b602002602001015173ffffffffffffffffffffffffffffffffffffffff161415611c1d576040517f08c379a0000000000000000000000000000000000000000000000000000000008152600401611c1490614dec565b60405180910390fd5b8080611c2890614cc5565b915050611b83565b50838160e001518260c0015181518110611c4d57611c4c614c67565b5b602002602001019073ffffffffffffffffffffffffffffffffffffffff16908173ffffffffffffffffffffffffffffffffffffffff16815250508060c0018051809190611c9990614cc5565b81525050611ca8868683611685565b9150611cb48287612aa1565b80925050509392505050565b6000919050565b6000611cd38383612d9d565b90506000816080015190508073ffffffffffffffffffffffffffffffffffffffff166108fc349081150290604051600060405180830381858888f19350505050158015611d24573d6000803e3d6000fd5b507f95afe8af0f8b830308a55c9a520018694b12e8aeb41e6f6fd1129e6dde26d9f082604051611d5491906148c1565b60405180910390a150505050565b611d6a613188565b600082511415611daf576040517f08c379a0000000000000000000000000000000000000000000000000000000008152600401611da690614e58565b60405180910390fd5b60006040518061016001604052806001548152602001848152602001600260003373ffffffffffffffffffffffffffffffffffffffff1673ffffffffffffffffffffffffffffffffffffffff1681526020019081526020016000206002018054611e1890614c35565b80601f0160208091040260200160405190810160405280929190818152602001828054611e4490614c35565b8015611e915780601f10611e6657610100808354040283529160200191611e91565b820191906000526020600020905b815481529060010190602001808311611e7457829003601f168201915b505050505081526020013373ffffffffffffffffffffffffffffffffffffffff1681526020013373ffffffffffffffffffffffffffffffffffffffff1681526020016000815260200160008152602001600067ffffffffffffffff811115611efc57611efb6142f0565b5b604051908082528060200260200182016040528015611f2a5781602001602082028036833780820191505090505b50815260200142815260200160008152602001600067ffffffffffffffff811115611f5857611f576142f0565b5b604051908082528060200260200182016040528015611f865781602001602082028036833780820191505090505b50815250905060048190806001815401808255809150506001900390600052602060002090600b0201600090919091909150600082015181600001556020820151816001019080519060200190611fde929190613261565b506040820151816002019080519060200190611ffb929190613261565b5060608201518160030160006101000a81548173ffffffffffffffffffffffffffffffffffffffff021916908373ffffffffffffffffffffffffffffffffffffffff16021790555060808201518160040160006101000a81548173ffffffffffffffffffffffffffffffffffffffff021916908373ffffffffffffffffffffffffffffffffffffffff16021790555060a0820151816005015560c0820151816006015560e08201518160070190805190602001906120ba9291906132e7565b506101008201518160080155610120820151816009015561014082015181600a0190805190602001906120ee9291906132e7565b5050506001600081548092919061210490614cc5565b919050555060056003600083600001518152602001908152602001600020908054612130929190613444565b50600260003373ffffffffffffffffffffffffffffffffffffffff1673ffffffffffffffffffffffffffffffffffffffff168152602001908152602001600020600301816000015190806001815401808255809150506001900390600052602060002001600090919091909150557f66403c5e0deeb67702e5297cfcfe283707526ce413e22d44d78cd070b45471bb816040516121cd91906146dd565b60405180910390a180915050919050565b6000919050565b60026020528060005260406000206000915090508060000154908060010160009054906101000a900473ffffffffffffffffffffffffffffffffffffffff169080600201805461223490614c35565b80601f016020809104026020016040519081016040528092919081815260200182805461226090614c35565b80156122ad5780601f10612282576101008083540402835291602001916122ad565b820191906000526020600020905b81548152906001019060200180831161229057829003601f168201915b5050505050908060060154905084565b5050565b50565b60015481565b6122d261320e565b6000600260008473ffffffffffffffffffffffffffffffffffffffff1673ffffffffffffffffffffffffffffffffffffffff1681526020019081526020016000206040518060e0016040529081600082015481526020016001820160009054906101000a900473ffffffffffffffffffffffffffffffffffffffff1673ffffffffffffffffffffffffffffffffffffffff1673ffffffffffffffffffffffffffffffffffffffff16815260200160028201805461238e90614c35565b80601f01602080910402602001604051908101604052809291908181526020018280546123ba90614c35565b80156124075780601f106123dc57610100808354040283529160200191612407565b820191906000526020600020905b8154815290600101906020018083116123ea57829003601f168201915b505050505081526020016003820180548060200260200160405190810160405280929190818152602001828054801561245f57602002820191906000526020600020905b81548152602001906001019080831161244b575b50505050508152602001600482018054806020026020016040519081016040528092919081815260200182805480156124b757602002820191906000526020600020905b8154815260200190600101908083116124a3575b505050505081526020016005820180548060200260200160405190810160405280929190818152602001828054801561250f57602002820191906000526020600020905b8154815260200190600101908083116124fb575b50505050508152602001600682015481525050905080915050919050565b6125356133be565b60008251141561257a576040517f08c379a000000000000000000000000000000000000000000000000000000000815260040161257190614ec4565b60405180910390fd5b600061258584610cd1565b505090503373ffffffffffffffffffffffffffffffffffffffff16816060015173ffffffffffffffffffffffffffffffffffffffff1614156125fc576040517f08c379a00000000000000000000000000000000000000000000000000000000081526004016125f390614f56565b60405180910390fd5b60006040518061016001604052808360a001518152602001868152602001858152602001600260003373ffffffffffffffffffffffffffffffffffffffff1673ffffffffffffffffffffffffffffffffffffffff168152602001908152602001600020600201805461266d90614c35565b80601f016020809104026020016040519081016040528092919081815260200182805461269990614c35565b80156126e65780601f106126bb576101008083540402835291602001916126e6565b820191906000526020600020905b8154815290600101906020018083116126c957829003601f168201915b505050505081526020013373ffffffffffffffffffffffffffffffffffffffff1681526020013373ffffffffffffffffffffffffffffffffffffffff16815260200160008152602001600067ffffffffffffffff81111561274a576127496142f0565b5b6040519080825280602002602001820160405280156127785781602001602082028036833780820191505090505b50815260200142815260200160008152602001600067ffffffffffffffff8111156127a6576127a56142f0565b5b6040519080825280602002602001820160405280156127d45781602001602082028036833780820191505090505b508152509050600360008681526020019081526020016000208190806001815401808255809150506001900390600052602060002090600b020160009091909190915060008201518160000155602082015181600101556040820151816002019080519060200190612847929190613261565b506060820151816003019080519060200190612864929190613261565b5060808201518160040160006101000a81548173ffffffffffffffffffffffffffffffffffffffff021916908373ffffffffffffffffffffffffffffffffffffffff16021790555060a08201518160050160006101000a81548173ffffffffffffffffffffffffffffffffffffffff021916908373ffffffffffffffffffffffffffffffffffffffff16021790555060c0820151816006015560e08201518160070190805190602001906129199291906132e7565b506101008201518160080155610120820151816009015561014082015181600a01908051906020019061294d9291906132e7565b5050508160a001805180919061296290614cc5565b81525050600260003373ffffffffffffffffffffffffffffffffffffffff1673ffffffffffffffffffffffffffffffffffffffff168152602001908152602001600020600401859080600181540180825580915050600190039060005260206000200160009091909190915055600260003373ffffffffffffffffffffffffffffffffffffffff1673ffffffffffffffffffffffffffffffffffffffff16815260200190815260200160002060050181600001519080600181540180825580915050600190039060005260206000200160009091909190915055612a468286612aa1565b809250505092915050565b6000612a5c82610cd1565b505090507f649438db48b4277443932365958d83c8ade5436096e4e80a2d2fa5c890470de981604051612a8f91906146dd565b60405180910390a15050565b60005481565b60005b600154811015612c50578160048281548110612ac357612ac2614c67565b5b90600052602060002090600b0201600001541415612c3d578260048281548110612af057612aef614c67565b5b90600052602060002090600b0201600082015181600001556020820151816001019080519060200190612b24929190613261565b506040820151816002019080519060200190612b41929190613261565b5060608201518160030160006101000a81548173ffffffffffffffffffffffffffffffffffffffff021916908373ffffffffffffffffffffffffffffffffffffffff16021790555060808201518160040160006101000a81548173ffffffffffffffffffffffffffffffffffffffff021916908373ffffffffffffffffffffffffffffffffffffffff16021790555060a0820151816005015560c0820151816006015560e0820151816007019080519060200190612c009291906132e7565b506101008201518160080155610120820151816009015561014082015181600a019080519060200190612c349291906132e7565b50905050612c50565b8080612c4890614cc5565b915050612aa4565b505050565b612c5d613188565b6000612c6884610cd1565b5050905060005b8160e0015151811015612d1c578373ffffffffffffffffffffffffffffffffffffffff168260e001518281518110612caa57612ca9614c67565b5b602002602001015173ffffffffffffffffffffffffffffffffffffffff161415612d09576040517f08c379a0000000000000000000000000000000000000000000000000000000008152600401612d0090614dec565b60405180910390fd5b8080612d1490614cc5565b915050612c6f565b50828160e001518260c0015181518110612d3957612d38614c67565b5b602002602001019073ffffffffffffffffffffffffffffffffffffffff16908173ffffffffffffffffffffffffffffffffffffffff16815250508060c0018051809190612d8590614cc5565b81525050612d938185612aa1565b8091505092915050565b612da56133be565b6000612db084610cd1565b50509050612dbc6133be565b60005b8260a0015181101561317c5784600360008881526020019081526020016000208281548110612df157612df0614c67565b5b90600052602060002090600b020160000154141561316957600360008781526020019081526020016000208181548110612e2e57612e2d614c67565b5b90600052602060002090600b0201604051806101600160405290816000820154815260200160018201548152602001600282018054612e6c90614c35565b80601f0160208091040260200160405190810160405280929190818152602001828054612e9890614c35565b8015612ee55780601f10612eba57610100808354040283529160200191612ee5565b820191906000526020600020905b815481529060010190602001808311612ec857829003601f168201915b50505050508152602001600382018054612efe90614c35565b80601f0160208091040260200160405190810160405280929190818152602001828054612f2a90614c35565b8015612f775780601f10612f4c57610100808354040283529160200191612f77565b820191906000526020600020905b815481529060010190602001808311612f5a57829003601f168201915b505050505081526020016004820160009054906101000a900473ffffffffffffffffffffffffffffffffffffffff1673ffffffffffffffffffffffffffffffffffffffff1673ffffffffffffffffffffffffffffffffffffffff1681526020016005820160009054906101000a900473ffffffffffffffffffffffffffffffffffffffff1673ffffffffffffffffffffffffffffffffffffffff1673ffffffffffffffffffffffffffffffffffffffff16815260200160068201548152602001600782018054806020026020016040519081016040528092919081815260200182805480156130bb57602002820191906000526020600020905b8160009054906101000a900473ffffffffffffffffffffffffffffffffffffffff1673ffffffffffffffffffffffffffffffffffffffff1681526020019060010190808311613071575b505050505081526020016008820154815260200160098201548152602001600a820180548060200260200160405190810160405280929190818152602001828054801561315d57602002820191906000526020600020905b8160009054906101000a900473ffffffffffffffffffffffffffffffffffffffff1673ffffffffffffffffffffffffffffffffffffffff1681526020019060010190808311613113575b50505050508152505091505b808061317490614cc5565b915050612dbf565b50809250505092915050565b604051806101600160405280600081526020016060815260200160608152602001600073ffffffffffffffffffffffffffffffffffffffff168152602001600073ffffffffffffffffffffffffffffffffffffffff1681526020016000815260200160008152602001606081526020016000815260200160008152602001606081525090565b6040518060e0016040528060008152602001600073ffffffffffffffffffffffffffffffffffffffff16815260200160608152602001606081526020016060815260200160608152602001600081525090565b82805461326d90614c35565b90600052602060002090601f01602090048101928261328f57600085556132d6565b82601f106132a857805160ff19168380011785556132d6565b828001600101855582156132d6579182015b828111156132d55782518255916020019190600101906132ba565b5b5090506132e3919061360a565b5090565b828054828255906000526020600020908101928215613360579160200282015b8281111561335f5782518260006101000a81548173ffffffffffffffffffffffffffffffffffffffff021916908373ffffffffffffffffffffffffffffffffffffffff16021790555091602001919060010190613307565b5b50905061336d919061360a565b5090565b8280548282559060005260206000209081019282156133ad579160200282015b828111156133ac578251825591602001919060010190613391565b5b5090506133ba919061360a565b5090565b60405180610160016040528060008152602001600081526020016060815260200160608152602001600073ffffffffffffffffffffffffffffffffffffffff168152602001600073ffffffffffffffffffffffffffffffffffffffff16815260200160008152602001606081526020016000815260200160008152602001606081525090565b82805482825590600052602060002090600b0281019282156135f957600052602060002091600b0282015b828111156135f8578282600082015481600001556001820154816001015560028201816002019080546134a190614c35565b6134ac929190613627565b5060038201816003019080546134c190614c35565b6134cc929190613627565b506004820160009054906101000a900473ffffffffffffffffffffffffffffffffffffffff168160040160006101000a81548173ffffffffffffffffffffffffffffffffffffffff021916908373ffffffffffffffffffffffffffffffffffffffff1602179055506005820160009054906101000a900473ffffffffffffffffffffffffffffffffffffffff168160050160006101000a81548173ffffffffffffffffffffffffffffffffffffffff021916908373ffffffffffffffffffffffffffffffffffffffff1602179055506006820154816006015560078201816007019080546135bb9291906136b4565b506008820154816008015560098201548160090155600a820181600a019080546135e69291906136b4565b50505091600b019190600b019061346f565b5b5090506136069190613706565b5090565b5b8082111561362357600081600090555060010161360b565b5090565b82805461363390614c35565b90600052602060002090601f01602090048101928261365557600085556136a3565b82601f1061366657805485556136a3565b828001600101855582156136a357600052602060002091601f016020900482015b828111156136a2578254825591600101919060010190613687565b5b5090506136b0919061360a565b5090565b8280548282559060005260206000209081019282156136f55760005260206000209182015b828111156136f45782548255916001019190600101906136d9565b5b509050613702919061360a565b5090565b5b808211156137cf57600080820160009055600182016000905560028201600061373091906137d3565b60038201600061374091906137d3565b6004820160006101000a81549073ffffffffffffffffffffffffffffffffffffffff02191690556005820160006101000a81549073ffffffffffffffffffffffffffffffffffffffff021916905560068201600090556007820160006137a69190613813565b60088201600090556009820160009055600a820160006137c69190613813565b50600b01613707565b5090565b5080546137df90614c35565b6000825580601f106137f15750613810565b601f01602090049060005260206000209081019061380f919061360a565b5b50565b5080546000825590600052602060002090810190613831919061360a565b50565b6000604051905090565b600080fd5b600080fd5b600073ffffffffffffffffffffffffffffffffffffffff82169050919050565b600061387382613848565b9050919050565b61388381613868565b811461388e57600080fd5b50565b6000813590506138a08161387a565b92915050565b6000819050919050565b6138b9816138a6565b81146138c457600080fd5b50565b6000813590506138d6816138b0565b92915050565b600080604083850312156138f3576138f261383e565b5b600061390185828601613891565b9250506020613912858286016138c7565b9150509250929050565b600080604083850312156139335761393261383e565b5b6000613941858286016138c7565b9250506020613952858286016138c7565b9150509250929050565b613965816138a6565b82525050565b600081519050919050565b600082825260208201905092915050565b60005b838110156139a557808201518184015260208101905061398a565b838111156139b4576000848401525b50505050565b6000601f19601f8301169050919050565b60006139d68261396b565b6139e08185613976565b93506139f0818560208601613987565b6139f9816139ba565b840191505092915050565b613a0d81613868565b82525050565b600061012082019050613a29600083018c61395c565b613a36602083018b61395c565b8181036040830152613a48818a6139cb565b90508181036060830152613a5c81896139cb565b9050613a6b6080830188613a04565b613a7860a0830187613a04565b613a8560c083018661395c565b613a9260e083018561395c565b613aa061010083018461395c565b9a9950505050505050505050565b600081519050919050565b600082825260208201905092915050565b6000819050602082019050919050565b613ae3816138a6565b82525050565b600082825260208201905092915050565b6000613b058261396b565b613b0f8185613ae9565b9350613b1f818560208601613987565b613b28816139ba565b840191505092915050565b613b3c81613868565b82525050565b600081519050919050565b600082825260208201905092915050565b6000819050602082019050919050565b6000613b7a8383613b33565b60208301905092915050565b6000602082019050919050565b6000613b9e82613b42565b613ba88185613b4d565b9350613bb383613b5e565b8060005b83811015613be4578151613bcb8882613b6e565b9750613bd683613b86565b925050600181019050613bb7565b5085935050505092915050565b600061016083016000830151613c0a6000860182613ada565b5060208301518482036020860152613c228282613afa565b91505060408301518482036040860152613c3c8282613afa565b9150506060830151613c516060860182613b33565b506080830151613c646080860182613b33565b5060a0830151613c7760a0860182613ada565b5060c0830151613c8a60c0860182613ada565b5060e083015184820360e0860152613ca28282613b93565b915050610100830151613cb9610100860182613ada565b50610120830151613cce610120860182613ada565b50610140830151848203610140860152613ce88282613b93565b9150508091505092915050565b6000613d018383613bf1565b905092915050565b6000602082019050919050565b6000613d2182613aae565b613d2b8185613ab9565b935083602082028501613d3d85613aca565b8060005b85811015613d795784840389528151613d5a8582613cf5565b9450613d6583613d09565b925060208a01995050600181019050613d41565b50829750879550505050505092915050565b60006020820190508181036000830152613da58184613d16565b905092915050565b600060208284031215613dc357613dc261383e565b5b6000613dd1848285016138c7565b91505092915050565b600061012082019050613df0600083018c61395c565b8181036020830152613e02818b6139cb565b90508181036040830152613e16818a6139cb565b9050613e256060830189613a04565b613e326080830188613a04565b613e3f60a083018761395c565b613e4c60c083018661395c565b613e5960e083018561395c565b613e6761010083018461395c565b9a9950505050505050505050565b600061016083016000830151613e8e6000860182613ada565b5060208301518482036020860152613ea68282613afa565b91505060408301518482036040860152613ec08282613afa565b9150506060830151613ed56060860182613b33565b506080830151613ee86080860182613b33565b5060a0830151613efb60a0860182613ada565b5060c0830151613f0e60c0860182613ada565b5060e083015184820360e0860152613f268282613b93565b915050610100830151613f3d610100860182613ada565b50610120830151613f52610120860182613ada565b50610140830151848203610140860152613f6c8282613b93565b9150508091505092915050565b600081519050919050565b600082825260208201905092915050565b6000819050602082019050919050565b600061016083016000830151613fbe6000860182613ada565b506020830151613fd16020860182613ada565b5060408301518482036040860152613fe98282613afa565b915050606083015184820360608601526140038282613afa565b91505060808301516140186080860182613b33565b5060a083015161402b60a0860182613b33565b5060c083015161403e60c0860182613ada565b5060e083015184820360e08601526140568282613b93565b91505061010083015161406d610100860182613ada565b50610120830151614082610120860182613ada565b5061014083015184820361014086015261409c8282613b93565b9150508091505092915050565b60006140b58383613fa5565b905092915050565b6000602082019050919050565b60006140d582613f79565b6140df8185613f84565b9350836020820285016140f185613f95565b8060005b8581101561412d578484038952815161410e85826140a9565b9450614119836140bd565b925060208a019950506001810190506140f5565b50829750879550505050505092915050565b600081519050919050565b600082825260208201905092915050565b6000819050602082019050919050565b60006141778383613ada565b60208301905092915050565b6000602082019050919050565b600061419b8261413f565b6141a5818561414a565b93506141b08361415b565b8060005b838110156141e15781516141c8888261416b565b97506141d383614183565b9250506001810190506141b4565b5085935050505092915050565b600060e0830160008301516142066000860182613ada565b5060208301516142196020860182613b33565b50604083015184820360408601526142318282613afa565b9150506060830151848203606086015261424b8282614190565b915050608083015184820360808601526142658282614190565b91505060a083015184820360a086015261427f8282614190565b91505060c083015161429460c0860182613ada565b508091505092915050565b600060608201905081810360008301526142b98186613e75565b905081810360208301526142cd81856140ca565b905081810360408301526142e181846141ee565b9050949350505050565b600080fd5b7f4e487b7100000000000000000000000000000000000000000000000000000000600052604160045260246000fd5b614328826139ba565b810181811067ffffffffffffffff82111715614347576143466142f0565b5b80604052505050565b600061435a613834565b9050614366828261431f565b919050565b600080fd5b600080fd5b600080fd5b600067ffffffffffffffff821115614395576143946142f0565b5b61439e826139ba565b9050602081019050919050565b82818337600083830152505050565b60006143cd6143c88461437a565b614350565b9050828152602081018484840111156143e9576143e8614375565b5b6143f48482856143ab565b509392505050565b600082601f83011261441157614410614370565b5b81356144218482602086016143ba565b91505092915050565b600067ffffffffffffffff821115614445576144446142f0565b5b602082029050602081019050919050565b600080fd5b600061446e6144698461442a565b614350565b9050808382526020820190506020840283018581111561449157614490614456565b5b835b818110156144ba57806144a68882613891565b845260208401935050602081019050614493565b5050509392505050565b600082601f8301126144d9576144d8614370565b5b81356144e984826020860161445b565b91505092915050565b60006101608284031215614509576145086142eb565b5b614514610160614350565b90506000614524848285016138c7565b6000830152506020614538848285016138c7565b602083015250604082013567ffffffffffffffff81111561455c5761455b61436b565b5b614568848285016143fc565b604083015250606082013567ffffffffffffffff81111561458c5761458b61436b565b5b614598848285016143fc565b60608301525060806145ac84828501613891565b60808301525060a06145c084828501613891565b60a08301525060c06145d4848285016138c7565b60c08301525060e082013567ffffffffffffffff8111156145f8576145f761436b565b5b614604848285016144c4565b60e083015250610100614619848285016138c7565b6101008301525061012061462f848285016138c7565b6101208301525061014082013567ffffffffffffffff8111156146555761465461436b565b5b614661848285016144c4565b6101408301525092915050565b6000806000606084860312156146875761468661383e565b5b6000614695868287016138c7565b93505060206146a6868287016138c7565b925050604084013567ffffffffffffffff8111156146c7576146c6613843565b5b6146d3868287016144f2565b9150509250925092565b600060208201905081810360008301526146f78184613e75565b905092915050565b6000602082840312156147155761471461383e565b5b600082013567ffffffffffffffff81111561473357614732613843565b5b61473f848285016143fc565b91505092915050565b6000602082019050818103600083015261476281846141ee565b905092915050565b6000806000606084860312156147835761478261383e565b5b6000614791868287016138c7565b93505060206147a2868287016138c7565b92505060406147b386828701613891565b9150509250925092565b6000610160830160008301516147d66000860182613ada565b5060208301516147e96020860182613ada565b50604083015184820360408601526148018282613afa565b9150506060830151848203606086015261481b8282613afa565b91505060808301516148306080860182613b33565b5060a083015161484360a0860182613b33565b5060c083015161485660c0860182613ada565b5060e083015184820360e086015261486e8282613b93565b915050610100830151614885610100860182613ada565b5061012083015161489a610120860182613ada565b506101408301518482036101408601526148b48282613b93565b9150508091505092915050565b600060208201905081810360008301526148db81846147bd565b905092915050565b60006020820190506148f86000830184613a04565b92915050565b6000602082840312156149145761491361383e565b5b600061492284828501613891565b91505092915050565b6000602082019050614940600083018461395c565b92915050565b600060808201905061495b600083018761395c565b6149686020830186613a04565b818103604083015261497a81856139cb565b9050614989606083018461395c565b95945050505050565b600080604083850312156149a9576149a861383e565b5b60006149b7858286016138c7565b925050602083013567ffffffffffffffff8111156149d8576149d7613843565b5b6149e4858286016143fc565b9150509250929050565b60006101608284031215614a0557614a046142eb565b5b614a10610160614350565b90506000614a20848285016138c7565b600083015250602082013567ffffffffffffffff811115614a4457614a4361436b565b5b614a50848285016143fc565b602083015250604082013567ffffffffffffffff811115614a7457614a7361436b565b5b614a80848285016143fc565b6040830152506060614a9484828501613891565b6060830152506080614aa884828501613891565b60808301525060a0614abc848285016138c7565b60a08301525060c0614ad0848285016138c7565b60c08301525060e082013567ffffffffffffffff811115614af457614af361436b565b5b614b00848285016144c4565b60e083015250610100614b15848285016138c7565b61010083015250610120614b2b848285016138c7565b6101208301525061014082013567ffffffffffffffff811115614b5157614b5061436b565b5b614b5d848285016144c4565b6101408301525092915050565b60008060408385031215614b8157614b8061383e565b5b600083013567ffffffffffffffff811115614b9f57614b9e613843565b5b614bab858286016149ee565b9250506020614bbc858286016138c7565b9150509250929050565b60008060408385031215614bdd57614bdc61383e565b5b6000614beb858286016138c7565b9250506020614bfc85828601613891565b9150509250929050565b7f4e487b7100000000000000000000000000000000000000000000000000000000600052602260045260246000fd5b60006002820490506001821680614c4d57607f821691505b60208210811415614c6157614c60614c06565b5b50919050565b7f4e487b7100000000000000000000000000000000000000000000000000000000600052603260045260246000fd5b7f4e487b7100000000000000000000000000000000000000000000000000000000600052601160045260246000fd5b6000614cd0826138a6565b91507fffffffffffffffffffffffffffffffffffffffffffffffffffffffffffffffff821415614d0357614d02614c96565b5b600182019050919050565b7f4e616d652063616e6e6f7420626520656d707479000000000000000000000000600082015250565b6000614d44601483613976565b9150614d4f82614d0e565b602082019050919050565b60006020820190508181036000830152614d7381614d37565b9050919050565b7f596f75206861766520616c7265616479206c696b6564207468697320616e737760008201527f6572000000000000000000000000000000000000000000000000000000000000602082015250565b6000614dd6602283613976565b9150614de182614d7a565b604082019050919050565b60006020820190508181036000830152614e0581614dc9565b9050919050565b7f5175657374696f6e2063616e6e6f7420626520656d7074790000000000000000600082015250565b6000614e42601883613976565b9150614e4d82614e0c565b602082019050919050565b60006020820190508181036000830152614e7181614e35565b9050919050565b7f416e737765722063616e6e6f7420626520656d70747900000000000000000000600082015250565b6000614eae601683613976565b9150614eb982614e78565b602082019050919050565b60006020820190508181036000830152614edd81614ea1565b9050919050565b7f417574686f722063616e6e6f7420616e73776572206869732f686572206f776e60008201527f207175657374696f6e0000000000000000000000000000000000000000000000602082015250565b6000614f40602983613976565b9150614f4b82614ee4565b604082019050919050565b60006020820190508181036000830152614f6f81614f33565b905091905056fea2646970667358221220ab1d38834d2291576891731d63a90c36870862cc1f81e46d6d26cf7266ed62fe64736f6c634300080b0033",
  "immutableReferences": {},
  "source": "// SPDX-License-Identifier: MIT\npragma solidity >=0.4.22 <0.9.0;\nimport \"./erc721.sol\";\n\ncontract DeQuora is ERC721 {\n\n    /**\n    * @notice NFT\n    */\n\n\n    function balanceOf(address _owner)\n        public\n        view\n        override\n        returns (uint256 _balance)\n    {\n        // 1.  `_owner` NFT\n    }\n\n    function ownerOf(uint256 _tokenId)\n        public\n        view\n        override\n        returns (address _owner)\n    {\n        // 2.  `_tokenId` \n    }\n\n    function transfer(address _to, uint256 _tokenId) public override {}\n\n    function approve(address _to, uint256 _tokenId) public override {}\n\n    function takeOwnership(uint256 _tokenId) public override {}\n\n    /**\n     * @notice for code refactoring and upgrading by Joshua\n     */\n    enum ItemKind {\n        Question,\n        Answer\n    }\n    struct Item {\n        /// @notice what kind of item (post or comment)\n        ItemKind kind;\n        /// @notice Unique item id, assigned at creation time.\n        uint256 id;\n        /// @notice address of author.\n        address author;\n        /// @notice Id of parent item. Questions have parentId == 0.\n        uint256 parentId;\n        /// @notice block number when item was submitted\n        uint256 createdAtBlock;\n        /// @notice ids of all child items, with oldest items at front.\n        uint256[] childIds;\n        /// @notice IPFS CID of item content.\n        string contentCID;\n    }\n\n    /**\n     * @notice \n     */\n    \n    struct User {\n        uint256 id;\n        address account;\n        string name;\n        uint256[] questions;\n        uint256[] answered_questions;\n        uint256[] answers;\n        uint256 joined_on;\n    }\n\n    struct Question {\n        uint256 id;\n        string question;\n        string author_name;\n        address author_address;\n        address owner_address;\n        uint256 total_answers;\n        uint256 likes;\n        address[] liked_by;\n        uint256 created_on;\n        uint256 bonus_pool;\n        address[] support_by;\n    }\n\n    struct Answer {\n        uint256 id;\n        uint256 question_id;\n        string answer;\n        string author_name;\n        address author_address;\n        address owner_address;\n        uint256 likes;\n        address[] liked_by;\n        uint256 created_on;\n        uint256 bonus;\n        address[] support_by;\n    }\n\n    struct QuestionAnswer {\n        Question question;\n        Answer[] answers;\n    }\n\n    uint256 public total_users;\n    uint256 public total_questions;\n    mapping(address => User) public users;\n    mapping(uint256 => Answer[]) public answers; //question id to answers\n    Question[] public questions; // user address to question\n    Answer[] answers_array;\n    // uint256[] arr;\n\n    event new_user_added(User);\n    event main_deployed(string);\n    event question_added(Question);\n    event answer_tipped(Answer);\n    event question_tipped(Question);\n\n\n    constructor() {\n        total_users = 0;\n        total_questions = 0;\n        emit main_deployed(\"Main is deployed\");\n    }\n\n    function create_user(string memory _name)\n        public\n        payable\n        returns (User memory)\n    {\n        require(bytes(_name).length != 0, \"Name cannot be empty\");\n\n        //Create a new user\n        User memory newUser = User(\n            total_users,\n            msg.sender,\n            _name,\n            new uint256[](0),\n            new uint256[](0),\n            new uint256[](0),\n            block.timestamp\n        );\n        users[msg.sender] = newUser;\n        total_users++;\n        emit new_user_added(newUser);\n\n        //Return the user\n        return newUser;\n    }\n\n    function get_user_details(address _user_address)\n        public\n        view\n        returns (User memory)\n    {\n        User memory user = users[_user_address];\n        return user;\n    }\n\n    function add_question(string memory _question)\n        public\n        payable\n        returns (Question memory)\n    {\n        require(bytes(_question).length != 0, \"Question cannot be empty\");\n\n        //Create the question\n        Question memory newQuestion = Question(\n            total_questions,\n            _question,\n            users[msg.sender].name,\n            msg.sender,\n            msg.sender,\n            0,\n            0,\n            new address[](0),\n            block.timestamp,\n            0,\n            new address[](0)\n        );\n        questions.push(newQuestion);\n        total_questions++;\n\n        answers[newQuestion.id] = answers_array;\n        users[msg.sender].questions.push(newQuestion.id);\n\n        emit question_added(newQuestion);\n\n        //return the question\n        return newQuestion;\n    }\n\n    function get_all_questions() public view returns (Question[] memory) {\n        return questions;\n    }\n\n    function get_question(uint256 _question_id)\n        public\n        view\n        returns (\n            Question memory,\n            Answer[] memory,\n            User memory\n        )\n    {\n        Question memory question;\n\n        //iterate over all the questions\n        for (uint256 i = 0; i < total_questions; i++) {\n            // check for the question with the given id\n            if (questions[i].id == _question_id) {\n                //return the question with the given id, and corresponding author\n                question = questions[i];\n                break;\n            }\n        }\n        User memory _author = users[question.author_address];\n        Answer[] memory _answers = answers[question.id];\n        return (question, _answers, _author);\n    }\n\n    function set_question(Question memory _question, uint256 _question_id)\n        public{\n        //iterate over all the questions\n        for (uint256 i = 0; i < total_questions; i++) {\n            // check for the question to be updated usign the id\n            if (questions[i].id == _question_id) {\n                //update the question when found\n                questions[i] = _question;\n                break;\n            }\n        }\n    }\n\n    function add_answer(uint256 _question_id, string memory _answer)\n        public\n        payable\n        returns (Answer memory)\n    {\n        require(bytes(_answer).length != 0, \"Answer cannot be empty\");\n\n        //Get the question from all the questions\n        (Question memory question, , ) = get_question(_question_id);\n\n        require(\n            question.author_address != msg.sender,\n            \"Author cannot answer his/her own question\"\n        );\n\n        //Create the answer\n        // address[] memory address_arr;\n        Answer memory answer = Answer(\n            question.total_answers,\n            _question_id,\n            _answer,\n            users[msg.sender].name,\n            msg.sender,\n            msg.sender,\n            0,\n            new address[](0),\n            block.timestamp,\n            0,\n            new address[](0)\n        );\n\n        //Add the answer to records\n        answers[_question_id].push(answer);\n        question.total_answers++;\n\n        //add the answer to user details\n        users[msg.sender].answered_questions.push(_question_id);\n        users[msg.sender].answers.push(answer.id);\n\n        //update the question in the array\n        set_question(question, _question_id);\n        return answer;\n    }\n\n    function get_answer(uint256 _question_id, uint256 _answer_id)\n        public\n        view\n        returns (Answer memory)\n    {\n        //Get the question\n        (Question memory question, , ) = get_question(_question_id);\n\n        Answer memory answer;\n\n        for (uint256 i = 0; i < question.total_answers; i++) {\n            if (answers[_question_id][i].id == _answer_id) {\n                answer = answers[_question_id][i];\n            }\n        }\n\n        return answer;\n    }\n\n    function set_answer(\n        uint256 _question_id,\n        uint256 _answer_id,\n        Answer memory _answer\n    ) public returns (Question memory) {\n        //Get the question\n        (Question memory question, , ) = get_question(_question_id);\n\n        for (uint256 i = 0; i < question.total_answers; i++) {\n            if (answers[_question_id][i].id == _answer_id) {\n                answers[_question_id][i] = _answer;\n                break;\n            }\n        }\n        return question;\n    }\n\n    function like_answer(\n        uint256 _question_id,\n        uint256 _answer_id,\n        address _user_address\n    ) public returns (Answer memory) {\n        //Get the question\n        (Question memory question, , ) = get_question(_question_id);\n\n        // Get the answer form the mapping\n        Answer memory answer = get_answer(_question_id, _answer_id);\n\n        for (uint256 i = 0; i < answer.liked_by.length; i++) {\n            require(\n                answer.liked_by[i] != _user_address,\n                \"You have already liked this answer\"\n            );\n        }\n\n        // Increase the likes and update the mapping\n        answer.liked_by[answer.likes] = _user_address;\n        answer.likes++;\n\n        //Update the answer\n        question = set_answer(_question_id, _answer_id, answer);\n\n        //update the question\n        set_question(question, _question_id);\n\n        //Return the updated likes\n        return answer;\n    }\n\n    function like_question(\n        uint256 _question_id,\n        address _user_address\n    ) public returns (Question memory) {\n        //Get the question\n        (Question memory question, , ) = get_question(_question_id);\n\n        for (uint256 i = 0; i < question.liked_by.length; i++) {\n            require(\n                question.liked_by[i] != _user_address,\n                \"You have already liked this answer\"\n            );\n        }\n        // Increase the likes and update the mapping\n        question.liked_by[question.likes] = _user_address;\n        question.likes++;\n\n        //update the question\n        set_question(question, _question_id);\n\n        //Return the updated likes\n        return question;\n    }\n\n    /**\n    * @notice \n    */\n\n    // \n    function tip_answer (\n        uint256 _question_id,\n        uint256 _answer_id\n        ) public payable {\n        \n        // \n        Answer memory answer = get_answer(_question_id, _answer_id);\n        // \n        address payable _author = payable(answer.author_address) ;\n        // \n        _author.transfer(msg.value);\n        // TODO Answer struct \n        \n        // \n        emit answer_tipped(answer);\n    }\n\n    // \n    function tip_question (\n        uint256 _question_id\n        ) public payable {\n        (Question memory question, , ) = get_question(_question_id);\n\n\n        emit question_tipped(question);\n    }\n}\n",
  "sourcePath": "D:\\Homework\\BlockChain\\De-Quora-master\\contracts\\contracts\\DeQuora.sol",
  "compiler": {
    "name": "solc",
    "version": "0.8.11+commit.d7f03943.Emscripten.clang"
  },
  "schemaVersion": "3.4.11",
  "updatedAt": "2023-05-06T14:42:44.990Z",
  "networkType": "ethereum",
  "devdoc": {
    "kind": "dev",
    "methods": {},
    "version": 1
  },
  "userdoc": {
    "kind": "user",
    "methods": {
      "balanceOf(address)": {
        "notice": "NFT"
      },
      "tip_answer(uint256,uint256)": {
        "notice": ""
      }
    },
    "version": 1
  }
}