{
  "contractName": "Main",
  "abi": [
    {
      "inputs": [],
      "stateMutability": "nonpayable",
      "type": "constructor"
    },
    {
      "anonymous": false,
      "inputs": [
        {
          "indexed": false,
          "internalType": "string",
          "name": "",
          "type": "string"
        }
      ],
      "name": "main_deployed",
      "type": "event"
    },
    {
      "anonymous": false,
      "inputs": [
        {
          "components": [
            {
              "internalType": "uint256",
              "name": "id",
              "type": "uint256"
            },
            {
              "internalType": "address",
              "name": "account",
              "type": "address"
            },
            {
              "internalType": "string",
              "name": "name",
              "type": "string"
            },
            {
              "internalType": "uint256[]",
              "name": "questions",
              "type": "uint256[]"
            },
            {
              "internalType": "uint256[]",
              "name": "answers",
              "type": "uint256[]"
            }
          ],
          "indexed": false,
          "internalType": "struct Main.User",
          "name": "",
          "type": "tuple"
        }
      ],
      "name": "new_user_added",
      "type": "event"
    },
    {
      "anonymous": false,
      "inputs": [
        {
          "components": [
            {
              "internalType": "uint256",
              "name": "id",
              "type": "uint256"
            },
            {
              "internalType": "string",
              "name": "question",
              "type": "string"
            },
            {
              "internalType": "address",
              "name": "author",
              "type": "address"
            },
            {
              "internalType": "uint256",
              "name": "total_answers",
              "type": "uint256"
            },
            {
              "internalType": "uint256",
              "name": "likes",
              "type": "uint256"
            },
            {
              "internalType": "address[]",
              "name": "liked_by",
              "type": "address[]"
            }
          ],
          "indexed": false,
          "internalType": "struct Main.Question",
          "name": "",
          "type": "tuple"
        }
      ],
      "name": "question_added",
      "type": "event"
    },
    {
      "inputs": [
        {
          "internalType": "uint256",
          "name": "",
          "type": "uint256"
        }
      ],
      "name": "questions",
      "outputs": [
        {
          "internalType": "uint256",
          "name": "id",
          "type": "uint256"
        },
        {
          "internalType": "string",
          "name": "question",
          "type": "string"
        },
        {
          "internalType": "address",
          "name": "author",
          "type": "address"
        },
        {
          "internalType": "uint256",
          "name": "total_answers",
          "type": "uint256"
        },
        {
          "internalType": "uint256",
          "name": "likes",
          "type": "uint256"
        }
      ],
      "stateMutability": "view",
      "type": "function"
    },
    {
      "inputs": [
        {
          "internalType": "address",
          "name": "",
          "type": "address"
        }
      ],
      "name": "users",
      "outputs": [
        {
          "internalType": "uint256",
          "name": "id",
          "type": "uint256"
        },
        {
          "internalType": "address",
          "name": "account",
          "type": "address"
        },
        {
          "internalType": "string",
          "name": "name",
          "type": "string"
        }
      ],
      "stateMutability": "view",
      "type": "function"
    },
    {
      "inputs": [
        {
          "internalType": "string",
          "name": "_name",
          "type": "string"
        }
      ],
      "name": "create_user",
      "outputs": [
        {
          "components": [
            {
              "internalType": "uint256",
              "name": "id",
              "type": "uint256"
            },
            {
              "internalType": "address",
              "name": "account",
              "type": "address"
            },
            {
              "internalType": "string",
              "name": "name",
              "type": "string"
            },
            {
              "internalType": "uint256[]",
              "name": "questions",
              "type": "uint256[]"
            },
            {
              "internalType": "uint256[]",
              "name": "answers",
              "type": "uint256[]"
            }
          ],
          "internalType": "struct Main.User",
          "name": "",
          "type": "tuple"
        }
      ],
      "stateMutability": "payable",
      "type": "function"
    },
    {
      "inputs": [
        {
          "internalType": "address",
          "name": "_user_address",
          "type": "address"
        }
      ],
      "name": "get_user_details",
      "outputs": [
        {
          "components": [
            {
              "internalType": "uint256",
              "name": "id",
              "type": "uint256"
            },
            {
              "internalType": "address",
              "name": "account",
              "type": "address"
            },
            {
              "internalType": "string",
              "name": "name",
              "type": "string"
            },
            {
              "internalType": "uint256[]",
              "name": "questions",
              "type": "uint256[]"
            },
            {
              "internalType": "uint256[]",
              "name": "answers",
              "type": "uint256[]"
            }
          ],
          "internalType": "struct Main.User",
          "name": "",
          "type": "tuple"
        }
      ],
      "stateMutability": "view",
      "type": "function"
    },
    {
      "inputs": [
        {
          "internalType": "string",
          "name": "_question",
          "type": "string"
        }
      ],
      "name": "add_question",
      "outputs": [
        {
          "components": [
            {
              "internalType": "uint256",
              "name": "id",
              "type": "uint256"
            },
            {
              "internalType": "string",
              "name": "question",
              "type": "string"
            },
            {
              "internalType": "address",
              "name": "author",
              "type": "address"
            },
            {
              "internalType": "uint256",
              "name": "total_answers",
              "type": "uint256"
            },
            {
              "internalType": "uint256",
              "name": "likes",
              "type": "uint256"
            },
            {
              "internalType": "address[]",
              "name": "liked_by",
              "type": "address[]"
            }
          ],
          "internalType": "struct Main.Question",
          "name": "",
          "type": "tuple"
        }
      ],
      "stateMutability": "payable",
      "type": "function"
    },
    {
      "inputs": [
        {
          "internalType": "uint256",
          "name": "_question_id",
          "type": "uint256"
        },
        {
          "internalType": "string",
          "name": "_answer",
          "type": "string"
        }
      ],
      "name": "add_answer",
      "outputs": [
        {
          "components": [
            {
              "internalType": "uint256",
              "name": "id",
              "type": "uint256"
            },
            {
              "internalType": "string",
              "name": "answer",
              "type": "string"
            },
            {
              "internalType": "address",
              "name": "author",
              "type": "address"
            },
            {
              "internalType": "uint256",
              "name": "likes",
              "type": "uint256"
            },
            {
              "internalType": "address[]",
              "name": "liked_by",
              "type": "address[]"
            }
          ],
          "internalType": "struct Main.Answer",
          "name": "",
          "type": "tuple"
        }
      ],
      "stateMutability": "nonpayable",
      "type": "function"
    },
    {
      "inputs": [
        {
          "internalType": "uint256",
          "name": "_question_id",
          "type": "uint256"
        }
      ],
      "name": "get_answers",
      "outputs": [
        {
          "components": [
            {
              "internalType": "uint256",
              "name": "id",
              "type": "uint256"
            },
            {
              "internalType": "string",
              "name": "answer",
              "type": "string"
            },
            {
              "internalType": "address",
              "name": "author",
              "type": "address"
            },
            {
              "internalType": "uint256",
              "name": "likes",
              "type": "uint256"
            },
            {
              "internalType": "address[]",
              "name": "liked_by",
              "type": "address[]"
            }
          ],
          "internalType": "struct Main.Answer[]",
          "name": "",
          "type": "tuple[]"
        }
      ],
      "stateMutability": "view",
      "type": "function"
    },
    {
      "inputs": [
        {
          "internalType": "uint256",
          "name": "_question_id",
          "type": "uint256"
        },
        {
          "internalType": "uint256",
          "name": "_answer_number",
          "type": "uint256"
        },
        {
          "internalType": "address",
          "name": "_user_address",
          "type": "address"
        }
      ],
      "name": "like_answer",
      "outputs": [
        {
          "components": [
            {
              "internalType": "uint256",
              "name": "id",
              "type": "uint256"
            },
            {
              "internalType": "string",
              "name": "answer",
              "type": "string"
            },
            {
              "internalType": "address",
              "name": "author",
              "type": "address"
            },
            {
              "internalType": "uint256",
              "name": "likes",
              "type": "uint256"
            },
            {
              "internalType": "address[]",
              "name": "liked_by",
              "type": "address[]"
            }
          ],
          "internalType": "struct Main.Answer",
          "name": "",
          "type": "tuple"
        }
      ],
      "stateMutability": "nonpayable",
      "type": "function"
    }
  ],
  "bytecode": "0x60806040523480156200001157600080fd5b506000808190555060006001819055507f316a024183dffe386f9e64eeb7d2108a2f170f4c8708641f33f165f6dda8b9736040516200005090620000bf565b60405180910390a1620000e1565b600082825260208201905092915050565b7f4d61696e206973206465706c6f79656400000000000000000000000000000000600082015250565b6000620000a76010836200005e565b9150620000b4826200006f565b602082019050919050565b60006020820190508181036000830152620000da8162000098565b9050919050565b61274380620000f16000396000f3fe60806040526004361061007b5760003560e01c8063a87430ba1161004e578063a87430ba1461015e578063d2965f041461019d578063d5c718e6146101da578063df16b7ab146102175761007b565b806331b1b9781461008057806348e8158a146100c15780634ee1d752146100f1578063676c98811461012e575b600080fd5b34801561008c57600080fd5b506100a760048036038101906100a29190611a4b565b610254565b6040516100b8959493929190611b61565b60405180910390f35b6100db60048036038101906100d69190611cf0565b610332565b6040516100e89190611ed4565b60405180910390f35b3480156100fd57600080fd5b5061011860048036038101906101139190611f22565b610507565b60405161012591906120a1565b60405180910390f35b61014860048036038101906101439190611cf0565b610b1e565b6040516101559190612153565b60405180910390f35b34801561016a57600080fd5b5061018560048036038101906101809190612175565b610cc9565b604051610194939291906121a2565b60405180910390f35b3480156101a957600080fd5b506101c460048036038101906101bf9190612175565b610d9b565b6040516101d19190611ed4565b60405180910390f35b3480156101e657600080fd5b5061020160048036038101906101fc9190611a4b565b610f9c565b60405161020e919061231f565b60405180910390f35b34801561022357600080fd5b5061023e60048036038101906102399190612341565b61135a565b60405161024b91906120a1565b60405180910390f35b600360205280600052604060002060009150905080600001549080600101805461027d906123cc565b80601f01602080910402602001604051908101604052809291908181526020018280546102a9906123cc565b80156102f65780601f106102cb576101008083540402835291602001916102f6565b820191906000526020600020905b8154815290600101906020018083116102d957829003601f168201915b5050505050908060020160009054906101000a900473ffffffffffffffffffffffffffffffffffffffff16908060030154908060040154905085565b61033a6117b1565b60008251141561037f576040517f08c379a00000000000000000000000000000000000000000000000000000000081526004016103769061244a565b60405180910390fd5b606060006040518060a0016040528060005481526020013373ffffffffffffffffffffffffffffffffffffffff16815260200185815260200183815260200183815250905080600260003373ffffffffffffffffffffffffffffffffffffffff1673ffffffffffffffffffffffffffffffffffffffff1681526020019081526020016000206000820151816000015560208201518160010160006101000a81548173ffffffffffffffffffffffffffffffffffffffff021916908373ffffffffffffffffffffffffffffffffffffffff16021790555060408201518160020190805190602001906104719291906117f6565b50606082015181600301908051906020019061048e92919061187c565b5060808201518160040190805190602001906104ab92919061187c565b509050506000808154809291906104c190612499565b91905055507f282a36b6c0a2cff0ae90d0c099853c7bd21f09c60eb100ba9bf4ebba48398c33816040516104f59190611ed4565b60405180910390a18092505050919050565b61050f6118c9565b6000600360008681526020019081526020016000206040518060c001604052908160008201548152602001600182018054610549906123cc565b80601f0160208091040260200160405190810160405280929190818152602001828054610575906123cc565b80156105c25780601f10610597576101008083540402835291602001916105c2565b820191906000526020600020905b8154815290600101906020018083116105a557829003601f168201915b505050505081526020016002820160009054906101000a900473ffffffffffffffffffffffffffffffffffffffff1673ffffffffffffffffffffffffffffffffffffffff1673ffffffffffffffffffffffffffffffffffffffff1681526020016003820154815260200160048201548152602001600582018054806020026020016040519081016040528092919081815260200182805480156106ba57602002820191906000526020600020905b8160009054906101000a900473ffffffffffffffffffffffffffffffffffffffff1673ffffffffffffffffffffffffffffffffffffffff1681526020019060010190808311610670575b505050505081525050905060006004600087815260200190815260200160002060008681526020019081526020016000206040518060a001604052908160008201548152602001600182018054610710906123cc565b80601f016020809104026020016040519081016040528092919081815260200182805461073c906123cc565b80156107895780601f1061075e57610100808354040283529160200191610789565b820191906000526020600020905b81548152906001019060200180831161076c57829003601f168201915b505050505081526020016002820160009054906101000a900473ffffffffffffffffffffffffffffffffffffffff1673ffffffffffffffffffffffffffffffffffffffff1673ffffffffffffffffffffffffffffffffffffffff168152602001600382015481526020016004820180548060200260200160405190810160405280929190818152602001828054801561087757602002820191906000526020600020905b8160009054906101000a900473ffffffffffffffffffffffffffffffffffffffff1673ffffffffffffffffffffffffffffffffffffffff168152602001906001019080831161082d575b505050505081525050905060005b816080015151811015610932578473ffffffffffffffffffffffffffffffffffffffff16826080015182815181106108c0576108bf6124e2565b5b602002602001015173ffffffffffffffffffffffffffffffffffffffff16141561091f576040517f08c379a000000000000000000000000000000000000000000000000000000000815260040161091690612583565b60405180910390fd5b808061092a90612499565b915050610885565b5083816080015182606001518151811061094f5761094e6124e2565b5b602002602001019073ffffffffffffffffffffffffffffffffffffffff16908173ffffffffffffffffffffffffffffffffffffffff168152505080606001805180919061099b90612499565b81525050806004600088815260200190815260200160002060008781526020019081526020016000206000820151816000015560208201518160010190805190602001906109ea9291906117f6565b5060408201518160020160006101000a81548173ffffffffffffffffffffffffffffffffffffffff021916908373ffffffffffffffffffffffffffffffffffffffff160217905550606082015181600301556080820151816004019080519060200190610a5892919061190e565b509050508160036000888152602001908152602001600020600082015181600001556020820151816001019080519060200190610a969291906117f6565b5060408201518160020160006101000a81548173ffffffffffffffffffffffffffffffffffffffff021916908373ffffffffffffffffffffffffffffffffffffffff160217905550606082015181600301556080820151816004015560a0820151816005019080519060200190610b0e92919061190e565b5090505080925050509392505050565b610b26611998565b600082511415610b6b576040517f08c379a0000000000000000000000000000000000000000000000000000000008152600401610b62906125ef565b60405180910390fd5b606060006040518060c0016040528060015481526020018581526020013373ffffffffffffffffffffffffffffffffffffffff168152602001600081526020016000815260200183815250905080600360006001548152602001908152602001600020600082015181600001556020820151816001019080519060200190610bf49291906117f6565b5060408201518160020160006101000a81548173ffffffffffffffffffffffffffffffffffffffff021916908373ffffffffffffffffffffffffffffffffffffffff160217905550606082015181600301556080820151816004015560a0820151816005019080519060200190610c6c92919061190e565b5090505060016000815480929190610c8390612499565b91905055507f3e49e1ff220215f62d8bcccf158ed0c89db018f69aaea3d37db64d060dcb5b1881604051610cb79190612153565b60405180910390a18092505050919050565b60026020528060005260406000206000915090508060000154908060010160009054906101000a900473ffffffffffffffffffffffffffffffffffffffff1690806002018054610d18906123cc565b80601f0160208091040260200160405190810160405280929190818152602001828054610d44906123cc565b8015610d915780601f10610d6657610100808354040283529160200191610d91565b820191906000526020600020905b815481529060010190602001808311610d7457829003601f168201915b5050505050905083565b610da36117b1565b6000600260008473ffffffffffffffffffffffffffffffffffffffff1673ffffffffffffffffffffffffffffffffffffffff1681526020019081526020016000206040518060a0016040529081600082015481526020016001820160009054906101000a900473ffffffffffffffffffffffffffffffffffffffff1673ffffffffffffffffffffffffffffffffffffffff1673ffffffffffffffffffffffffffffffffffffffff168152602001600282018054610e5f906123cc565b80601f0160208091040260200160405190810160405280929190818152602001828054610e8b906123cc565b8015610ed85780601f10610ead57610100808354040283529160200191610ed8565b820191906000526020600020905b815481529060010190602001808311610ebb57829003601f168201915b5050505050815260200160038201805480602002602001604051908101604052809291908181526020018280548015610f3057602002820191906000526020600020905b815481526020019060010190808311610f1c575b5050505050815260200160048201805480602002602001604051908101604052809291908181526020018280548015610f8857602002820191906000526020600020905b815481526020019060010190808311610f74575b505050505081525050905080915050919050565b60606000600360008481526020019081526020016000206040518060c001604052908160008201548152602001600182018054610fd8906123cc565b80601f0160208091040260200160405190810160405280929190818152602001828054611004906123cc565b80156110515780601f1061102657610100808354040283529160200191611051565b820191906000526020600020905b81548152906001019060200180831161103457829003601f168201915b505050505081526020016002820160009054906101000a900473ffffffffffffffffffffffffffffffffffffffff1673ffffffffffffffffffffffffffffffffffffffff1673ffffffffffffffffffffffffffffffffffffffff16815260200160038201548152602001600482015481526020016005820180548060200260200160405190810160405280929190818152602001828054801561114957602002820191906000526020600020905b8160009054906101000a900473ffffffffffffffffffffffffffffffffffffffff1673ffffffffffffffffffffffffffffffffffffffff16815260200190600101908083116110ff575b5050505050815250509050606060005b826060015181101561134f576004600086815260200190815260200160002060008281526020019081526020016000206040518060a0016040529081600082015481526020016001820180546111ae906123cc565b80601f01602080910402602001604051908101604052809291908181526020018280546111da906123cc565b80156112275780601f106111fc57610100808354040283529160200191611227565b820191906000526020600020905b81548152906001019060200180831161120a57829003601f168201915b505050505081526020016002820160009054906101000a900473ffffffffffffffffffffffffffffffffffffffff1673ffffffffffffffffffffffffffffffffffffffff1673ffffffffffffffffffffffffffffffffffffffff168152602001600382015481526020016004820180548060200260200160405190810160405280929190818152602001828054801561131557602002820191906000526020600020905b8160009054906101000a900473ffffffffffffffffffffffffffffffffffffffff1673ffffffffffffffffffffffffffffffffffffffff16815260200190600101908083116112cb575b505050505081525050828281518110611331576113306124e2565b5b6020026020010181905250808061134790612499565b915050611159565b508092505050919050565b6113626118c9565b6000825114156113a7576040517f08c379a000000000000000000000000000000000000000000000000000000000815260040161139e9061265b565b60405180910390fd5b6000600360008581526020019081526020016000206040518060c0016040529081600082015481526020016001820180546113e1906123cc565b80601f016020809104026020016040519081016040528092919081815260200182805461140d906123cc565b801561145a5780601f1061142f5761010080835404028352916020019161145a565b820191906000526020600020905b81548152906001019060200180831161143d57829003601f168201915b505050505081526020016002820160009054906101000a900473ffffffffffffffffffffffffffffffffffffffff1673ffffffffffffffffffffffffffffffffffffffff1673ffffffffffffffffffffffffffffffffffffffff16815260200160038201548152602001600482015481526020016005820180548060200260200160405190810160405280929190818152602001828054801561155257602002820191906000526020600020905b8160009054906101000a900473ffffffffffffffffffffffffffffffffffffffff1673ffffffffffffffffffffffffffffffffffffffff1681526020019060010190808311611508575b50505050508152505090503373ffffffffffffffffffffffffffffffffffffffff16816040015173ffffffffffffffffffffffffffffffffffffffff1614156115d0576040517f08c379a00000000000000000000000000000000000000000000000000000000081526004016115c7906126ed565b60405180910390fd5b606060006040518060a00160405280846060015181526020018681526020013373ffffffffffffffffffffffffffffffffffffffff1681526020016000815260200183815250905080600460008881526020019081526020016000206000856060015181526020019081526020016000206000820151816000015560208201518160010190805190602001906116679291906117f6565b5060408201518160020160006101000a81548173ffffffffffffffffffffffffffffffffffffffff021916908373ffffffffffffffffffffffffffffffffffffffff1602179055506060820151816003015560808201518160040190805190602001906116d592919061190e565b509050508260600180518091906116eb90612499565b8152505082600360008881526020019081526020016000206000820151816000015560208201518160010190805190602001906117299291906117f6565b5060408201518160020160006101000a81548173ffffffffffffffffffffffffffffffffffffffff021916908373ffffffffffffffffffffffffffffffffffffffff160217905550606082015181600301556080820151816004015560a08201518160050190805190602001906117a192919061190e565b5090505080935050505092915050565b6040518060a0016040528060008152602001600073ffffffffffffffffffffffffffffffffffffffff1681526020016060815260200160608152602001606081525090565b828054611802906123cc565b90600052602060002090601f016020900481019282611824576000855561186b565b82601f1061183d57805160ff191683800117855561186b565b8280016001018555821561186b579182015b8281111561186a57825182559160200191906001019061184f565b5b50905061187891906119e4565b5090565b8280548282559060005260206000209081019282156118b8579160200282015b828111156118b757825182559160200191906001019061189c565b5b5090506118c591906119e4565b5090565b6040518060a001604052806000815260200160608152602001600073ffffffffffffffffffffffffffffffffffffffff16815260200160008152602001606081525090565b828054828255906000526020600020908101928215611987579160200282015b828111156119865782518260006101000a81548173ffffffffffffffffffffffffffffffffffffffff021916908373ffffffffffffffffffffffffffffffffffffffff1602179055509160200191906001019061192e565b5b50905061199491906119e4565b5090565b6040518060c001604052806000815260200160608152602001600073ffffffffffffffffffffffffffffffffffffffff1681526020016000815260200160008152602001606081525090565b5b808211156119fd5760008160009055506001016119e5565b5090565b6000604051905090565b600080fd5b600080fd5b6000819050919050565b611a2881611a15565b8114611a3357600080fd5b50565b600081359050611a4581611a1f565b92915050565b600060208284031215611a6157611a60611a0b565b5b6000611a6f84828501611a36565b91505092915050565b611a8181611a15565b82525050565b600081519050919050565b600082825260208201905092915050565b60005b83811015611ac1578082015181840152602081019050611aa6565b83811115611ad0576000848401525b50505050565b6000601f19601f8301169050919050565b6000611af282611a87565b611afc8185611a92565b9350611b0c818560208601611aa3565b611b1581611ad6565b840191505092915050565b600073ffffffffffffffffffffffffffffffffffffffff82169050919050565b6000611b4b82611b20565b9050919050565b611b5b81611b40565b82525050565b600060a082019050611b766000830188611a78565b8181036020830152611b888187611ae7565b9050611b976040830186611b52565b611ba46060830185611a78565b611bb16080830184611a78565b9695505050505050565b600080fd5b600080fd5b7f4e487b7100000000000000000000000000000000000000000000000000000000600052604160045260246000fd5b611bfd82611ad6565b810181811067ffffffffffffffff82111715611c1c57611c1b611bc5565b5b80604052505050565b6000611c2f611a01565b9050611c3b8282611bf4565b919050565b600067ffffffffffffffff821115611c5b57611c5a611bc5565b5b611c6482611ad6565b9050602081019050919050565b82818337600083830152505050565b6000611c93611c8e84611c40565b611c25565b905082815260208101848484011115611caf57611cae611bc0565b5b611cba848285611c71565b509392505050565b600082601f830112611cd757611cd6611bbb565b5b8135611ce7848260208601611c80565b91505092915050565b600060208284031215611d0657611d05611a0b565b5b600082013567ffffffffffffffff811115611d2457611d23611a10565b5b611d3084828501611cc2565b91505092915050565b611d4281611a15565b82525050565b611d5181611b40565b82525050565b600082825260208201905092915050565b6000611d7382611a87565b611d7d8185611d57565b9350611d8d818560208601611aa3565b611d9681611ad6565b840191505092915050565b600081519050919050565b600082825260208201905092915050565b6000819050602082019050919050565b6000611dd98383611d39565b60208301905092915050565b6000602082019050919050565b6000611dfd82611da1565b611e078185611dac565b9350611e1283611dbd565b8060005b83811015611e43578151611e2a8882611dcd565b9750611e3583611de5565b925050600181019050611e16565b5085935050505092915050565b600060a083016000830151611e686000860182611d39565b506020830151611e7b6020860182611d48565b5060408301518482036040860152611e938282611d68565b91505060608301518482036060860152611ead8282611df2565b91505060808301518482036080860152611ec78282611df2565b9150508091505092915050565b60006020820190508181036000830152611eee8184611e50565b905092915050565b611eff81611b40565b8114611f0a57600080fd5b50565b600081359050611f1c81611ef6565b92915050565b600080600060608486031215611f3b57611f3a611a0b565b5b6000611f4986828701611a36565b9350506020611f5a86828701611a36565b9250506040611f6b86828701611f0d565b9150509250925092565b600081519050919050565b600082825260208201905092915050565b6000819050602082019050919050565b6000611fad8383611d48565b60208301905092915050565b6000602082019050919050565b6000611fd182611f75565b611fdb8185611f80565b9350611fe683611f91565b8060005b83811015612017578151611ffe8882611fa1565b975061200983611fb9565b925050600181019050611fea565b5085935050505092915050565b600060a08301600083015161203c6000860182611d39565b50602083015184820360208601526120548282611d68565b91505060408301516120696040860182611d48565b50606083015161207c6060860182611d39565b50608083015184820360808601526120948282611fc6565b9150508091505092915050565b600060208201905081810360008301526120bb8184612024565b905092915050565b600060c0830160008301516120db6000860182611d39565b50602083015184820360208601526120f38282611d68565b91505060408301516121086040860182611d48565b50606083015161211b6060860182611d39565b50608083015161212e6080860182611d39565b5060a083015184820360a08601526121468282611fc6565b9150508091505092915050565b6000602082019050818103600083015261216d81846120c3565b905092915050565b60006020828403121561218b5761218a611a0b565b5b600061219984828501611f0d565b91505092915050565b60006060820190506121b76000830186611a78565b6121c46020830185611b52565b81810360408301526121d68184611ae7565b9050949350505050565b600081519050919050565b600082825260208201905092915050565b6000819050602082019050919050565b600060a0830160008301516122246000860182611d39565b506020830151848203602086015261223c8282611d68565b91505060408301516122516040860182611d48565b5060608301516122646060860182611d39565b506080830151848203608086015261227c8282611fc6565b9150508091505092915050565b6000612295838361220c565b905092915050565b6000602082019050919050565b60006122b5826121e0565b6122bf81856121eb565b9350836020820285016122d1856121fc565b8060005b8581101561230d57848403895281516122ee8582612289565b94506122f98361229d565b925060208a019950506001810190506122d5565b50829750879550505050505092915050565b6000602082019050818103600083015261233981846122aa565b905092915050565b6000806040838503121561235857612357611a0b565b5b600061236685828601611a36565b925050602083013567ffffffffffffffff81111561238757612386611a10565b5b61239385828601611cc2565b9150509250929050565b7f4e487b7100000000000000000000000000000000000000000000000000000000600052602260045260246000fd5b600060028204905060018216806123e457607f821691505b602082108114156123f8576123f761239d565b5b50919050565b7f4e616d652063616e6e6f7420626520656d707479000000000000000000000000600082015250565b6000612434601483611a92565b915061243f826123fe565b602082019050919050565b6000602082019050818103600083015261246381612427565b9050919050565b7f4e487b7100000000000000000000000000000000000000000000000000000000600052601160045260246000fd5b60006124a482611a15565b91507fffffffffffffffffffffffffffffffffffffffffffffffffffffffffffffffff8214156124d7576124d661246a565b5b600182019050919050565b7f4e487b7100000000000000000000000000000000000000000000000000000000600052603260045260246000fd5b7f596f75206861766520616c7265616479206c696b6564207468697320616e737760008201527f6572000000000000000000000000000000000000000000000000000000000000602082015250565b600061256d602283611a92565b915061257882612511565b604082019050919050565b6000602082019050818103600083015261259c81612560565b9050919050565b7f5175657374696f6e2063616e6e6f7420626520656d7074790000000000000000600082015250565b60006125d9601883611a92565b91506125e4826125a3565b602082019050919050565b60006020820190508181036000830152612608816125cc565b9050919050565b7f416e737765722063616e6e6f7420626520656d70747900000000000000000000600082015250565b6000612645601683611a92565b91506126508261260f565b602082019050919050565b6000602082019050818103600083015261267481612638565b9050919050565b7f417574686f722063616e6e6f7420616e73776572206869732f686572206f776e60008201527f207175657374696f6e0000000000000000000000000000000000000000000000602082015250565b60006126d7602983611a92565b91506126e28261267b565b604082019050919050565b60006020820190508181036000830152612706816126ca565b905091905056fea26469706673582212200574728c5f9108c1a87cedef001ed12c122b500b95d5e817760a623c2e8f7bbc64736f6c634300080b0033",
  "immutableReferences": {},
  "source": "// SPDX-License-Identifier: MIT\npragma solidity >=0.4.22 <0.9.0;\n\ncontract Main {\n\n    struct User{\n        uint id;\n        address account;\n        string name;\n        uint[] questions;\n        uint[] answers;\n    }\n\n    struct Question{\n        uint id;\n        string question;\n        address author;\n        uint total_answers;\n        uint likes;\n        address[] liked_by;\n    }\n\n    struct Answer{\n        uint id;\n        string answer;\n        address author;\n        uint256 likes;\n        address[] liked_by;\n    }\n\n\n    uint total_users;\n    uint total_questions;\n    mapping(address => User) public users;    \n    mapping(uint => Question) public questions; // struct address to question\n    mapping(uint => mapping (uint=>Answer)) answers; // question address to mapping to answers\n\n    event new_user_added(User);\n    event main_deployed(string);\n    event question_added(Question);\n\n\n    constructor(){\n        total_users = 0;\n        total_questions = 0;\n        emit main_deployed('Main is deployed');\n    }\n\n    function create_user(string memory _name) public payable returns(User memory){\n\n        require(bytes(_name).length != 0,\"Name cannot be empty\");\n\n        //Create a new user\n        uint[] memory arr;\n        User memory newUser = User(total_users, msg.sender, _name, arr, arr);\n        users[msg.sender] = newUser;\n        total_users++;\n        emit new_user_added(newUser);\n        \n        //Return the user\n        return newUser;\n    }\n\n    function get_user_details(address _user_address) public view returns(User memory){\n        User memory user = users[_user_address];\n        return user;\n    }\n\n    function add_question(string memory _question) public payable returns(Question memory){\n        require(bytes(_question).length != 0,\"Question cannot be empty\");\n        \n        //Create the question\n        address[] memory arr;\n        Question memory newQuestion = Question(total_questions, _question, msg.sender, 0, 0, arr);\n        questions[total_questions] = newQuestion;\n        total_questions++;\n\n        emit question_added(newQuestion);\n\n        //return the question\n        return newQuestion;\n    }\n\n    function add_answer(uint _question_id,string memory _answer) public returns(Answer memory){\n\n        require(bytes(_answer).length != 0,\"Answer cannot be empty\");\n\n        Question memory question = questions[_question_id];\n        require(question.author != msg.sender,\"Author cannot answer his/her own question\");\n\n        //Create the answer\n        address[] memory arr;\n        Answer memory answer = Answer(question.total_answers, _answer, msg.sender,0,arr);\n\n        //Add the answer to records\n        answers[_question_id][question.total_answers] = answer;\n        question.total_answers++;\n\n        questions[_question_id] = question;\n        return answer;\n    }\n\n    function get_answers(uint _question_id) public view returns(Answer[] memory){\n        \n        Question memory question = questions[_question_id];\n\n        Answer[] memory _answers;\n        for(uint i=0;i<question.total_answers;i++){\n            _answers[i] = answers[_question_id][i];\n        }\n\n        return _answers;\n    }\n        \n        \n    function like_answer( uint _question_id, uint _answer_number, address _user_address) public returns(Answer memory){\n\n        //Get the question\n        Question memory question = questions[_question_id];\n\n        // Get the answeer form the mapping\n        Answer memory answer = answers[_question_id][_answer_number];\n        \n        for(uint i=0; i<answer.liked_by.length; i++){\n            require(answer.liked_by[i] != _user_address, \"You have already liked this answer\") ;\n        }\n\n        // Increase the likes and update the mapping\n        answer.liked_by[answer.likes] = _user_address;\n        answer.likes++;\n\n        //Update the answer\n        answers[_question_id][_answer_number] = answer;\n\n        //update the question\n        questions[_question_id] = question;\n\n        //Return the updated likes\n        return answer;\n    } \n\n}\n",
  "sourcePath": "C:\\Users\\Kailash\\Desktop\\All Projects\\De-Quora\\contracts\\contracts\\DeQuora.sol",
  "compiler": {
    "name": "solc",
    "version": "0.8.11+commit.d7f03943.Emscripten.clang"
  },
  "schemaVersion": "3.4.5",
  "updatedAt": "2022-03-29T11:14:33.171Z",
  "devdoc": {
    "kind": "dev",
    "methods": {},
    "version": 1
  },
  "userdoc": {
    "kind": "user",
    "methods": {},
    "version": 1
  }
}